{
  "contractName": "Collateralizer",
  "abi": [
    {
      "inputs": [
        {
          "internalType": "address",
          "name": "_debtKernel",
          "type": "address"
        },
        {
          "internalType": "address",
          "name": "_debtRegistry",
          "type": "address"
        },
        {
          "internalType": "address",
          "name": "_tokenRegistry",
          "type": "address"
        },
        {
          "internalType": "address",
          "name": "_tokenTransferProxy",
          "type": "address"
        }
      ],
      "payable": false,
      "stateMutability": "nonpayable",
      "type": "constructor"
    },
    {
      "anonymous": false,
      "inputs": [
        {
          "indexed": true,
          "internalType": "address",
          "name": "agent",
          "type": "address"
        },
        {
          "indexed": false,
          "internalType": "string",
          "name": "callingContext",
          "type": "string"
        }
      ],
      "name": "AuthorizationRevoked",
      "type": "event"
    },
    {
      "anonymous": false,
      "inputs": [
        {
          "indexed": true,
          "internalType": "address",
          "name": "agent",
          "type": "address"
        },
        {
          "indexed": false,
          "internalType": "string",
          "name": "callingContext",
          "type": "string"
        }
      ],
      "name": "Authorized",
      "type": "event"
    },
    {
      "anonymous": false,
      "inputs": [
        {
          "indexed": true,
          "internalType": "bytes32",
          "name": "agreementID",
          "type": "bytes32"
        },
        {
          "indexed": true,
          "internalType": "address",
          "name": "token",
          "type": "address"
        },
        {
          "indexed": false,
          "internalType": "uint256",
          "name": "amount",
          "type": "uint256"
        }
      ],
      "name": "CollateralLocked",
      "type": "event"
    },
    {
      "anonymous": false,
      "inputs": [
        {
          "indexed": true,
          "internalType": "bytes32",
          "name": "agreementID",
          "type": "bytes32"
        },
        {
          "indexed": true,
          "internalType": "address",
          "name": "collateralizer",
          "type": "address"
        },
        {
          "indexed": false,
          "internalType": "address",
          "name": "token",
          "type": "address"
        },
        {
          "indexed": false,
          "internalType": "uint256",
          "name": "amount",
          "type": "uint256"
        }
      ],
      "name": "CollateralReturned",
      "type": "event"
    },
    {
      "anonymous": false,
      "inputs": [
        {
          "indexed": true,
          "internalType": "bytes32",
          "name": "agreementID",
          "type": "bytes32"
        },
        {
          "indexed": true,
          "internalType": "address",
          "name": "beneficiary",
          "type": "address"
        },
        {
          "indexed": false,
          "internalType": "address",
          "name": "token",
          "type": "address"
        },
        {
          "indexed": false,
          "internalType": "uint256",
          "name": "amount",
          "type": "uint256"
        }
      ],
      "name": "CollateralSeized",
      "type": "event"
    },
    {
      "anonymous": false,
      "inputs": [
        {
          "indexed": true,
          "internalType": "address",
          "name": "previousOwner",
          "type": "address"
        }
      ],
      "name": "OwnershipRenounced",
      "type": "event"
    },
    {
      "anonymous": false,
      "inputs": [
        {
          "indexed": true,
          "internalType": "address",
          "name": "previousOwner",
          "type": "address"
        },
        {
          "indexed": true,
          "internalType": "address",
          "name": "newOwner",
          "type": "address"
        }
      ],
      "name": "OwnershipTransferred",
      "type": "event"
    },
    {
      "anonymous": false,
      "inputs": [],
      "name": "Pause",
      "type": "event"
    },
    {
      "anonymous": false,
      "inputs": [],
      "name": "Unpause",
      "type": "event"
    },
    {
      "constant": true,
      "inputs": [],
      "name": "CONTEXT",
      "outputs": [
        {
          "internalType": "string",
          "name": "",
          "type": "string"
        }
      ],
      "payable": false,
      "stateMutability": "view",
      "type": "function"
    },
    {
      "constant": true,
      "inputs": [],
      "name": "SECONDS_IN_DAY",
      "outputs": [
        {
          "internalType": "uint256",
          "name": "",
          "type": "uint256"
        }
      ],
      "payable": false,
      "stateMutability": "view",
      "type": "function"
    },
    {
      "constant": true,
      "inputs": [
        {
          "internalType": "bytes32",
          "name": "",
          "type": "bytes32"
        }
      ],
      "name": "agreementToCollateralizer",
      "outputs": [
        {
          "internalType": "address",
          "name": "",
          "type": "address"
        }
      ],
      "payable": false,
      "stateMutability": "view",
      "type": "function"
    },
    {
      "constant": true,
      "inputs": [],
      "name": "debtKernelAddress",
      "outputs": [
        {
          "internalType": "address",
          "name": "",
          "type": "address"
        }
      ],
      "payable": false,
      "stateMutability": "view",
      "type": "function"
    },
    {
      "constant": true,
      "inputs": [],
      "name": "debtRegistry",
      "outputs": [
        {
          "internalType": "contract DebtRegistry",
          "name": "",
          "type": "address"
        }
      ],
      "payable": false,
      "stateMutability": "view",
      "type": "function"
    },
    {
      "constant": true,
      "inputs": [],
      "name": "owner",
      "outputs": [
        {
          "internalType": "address",
          "name": "",
          "type": "address"
        }
      ],
      "payable": false,
      "stateMutability": "view",
      "type": "function"
    },
    {
      "constant": false,
      "inputs": [],
      "name": "pause",
      "outputs": [],
      "payable": false,
      "stateMutability": "nonpayable",
      "type": "function"
    },
    {
      "constant": true,
      "inputs": [],
      "name": "paused",
      "outputs": [
        {
          "internalType": "bool",
          "name": "",
          "type": "bool"
        }
      ],
      "payable": false,
      "stateMutability": "view",
      "type": "function"
    },
    {
      "constant": false,
      "inputs": [],
      "name": "renounceOwnership",
      "outputs": [],
      "payable": false,
      "stateMutability": "nonpayable",
      "type": "function"
    },
    {
      "constant": true,
      "inputs": [],
      "name": "tokenRegistry",
      "outputs": [
        {
          "internalType": "contract TokenRegistry",
          "name": "",
          "type": "address"
        }
      ],
      "payable": false,
      "stateMutability": "view",
      "type": "function"
    },
    {
      "constant": true,
      "inputs": [],
      "name": "tokenTransferProxy",
      "outputs": [
        {
          "internalType": "contract TokenTransferProxy",
          "name": "",
          "type": "address"
        }
      ],
      "payable": false,
      "stateMutability": "view",
      "type": "function"
    },
    {
      "constant": false,
      "inputs": [
        {
          "internalType": "address",
          "name": "newOwner",
          "type": "address"
        }
      ],
      "name": "transferOwnership",
      "outputs": [],
      "payable": false,
      "stateMutability": "nonpayable",
      "type": "function"
    },
    {
      "constant": false,
      "inputs": [],
      "name": "unpause",
      "outputs": [],
      "payable": false,
      "stateMutability": "nonpayable",
      "type": "function"
    },
    {
      "constant": false,
      "inputs": [
        {
          "internalType": "bytes32",
          "name": "agreementId",
          "type": "bytes32"
        },
        {
          "internalType": "address",
          "name": "collateralizer",
          "type": "address"
        }
      ],
      "name": "collateralize",
      "outputs": [
        {
          "internalType": "bool",
          "name": "_success",
          "type": "bool"
        }
      ],
      "payable": false,
      "stateMutability": "nonpayable",
      "type": "function"
    },
    {
      "constant": false,
      "inputs": [
        {
          "internalType": "bytes32",
          "name": "agreementId",
          "type": "bytes32"
        }
      ],
      "name": "returnCollateral",
      "outputs": [],
      "payable": false,
      "stateMutability": "nonpayable",
      "type": "function"
    },
    {
      "constant": false,
      "inputs": [
        {
          "internalType": "bytes32",
          "name": "agreementId",
          "type": "bytes32"
        }
      ],
      "name": "seizeCollateral",
      "outputs": [],
      "payable": false,
      "stateMutability": "nonpayable",
      "type": "function"
    },
    {
      "constant": false,
      "inputs": [
        {
          "internalType": "address",
          "name": "agent",
          "type": "address"
        }
      ],
      "name": "addAuthorizedCollateralizeAgent",
      "outputs": [],
      "payable": false,
      "stateMutability": "nonpayable",
      "type": "function"
    },
    {
      "constant": false,
      "inputs": [
        {
          "internalType": "address",
          "name": "agent",
          "type": "address"
        }
      ],
      "name": "revokeCollateralizeAuthorization",
      "outputs": [],
      "payable": false,
      "stateMutability": "nonpayable",
      "type": "function"
    },
    {
      "constant": true,
      "inputs": [],
      "name": "getAuthorizedCollateralizeAgents",
      "outputs": [
        {
          "internalType": "address[]",
          "name": "",
          "type": "address[]"
        }
      ],
      "payable": false,
      "stateMutability": "view",
      "type": "function"
    },
    {
      "constant": true,
      "inputs": [
        {
          "internalType": "bytes32",
          "name": "parameters",
          "type": "bytes32"
        }
      ],
      "name": "unpackCollateralParametersFromBytes",
      "outputs": [
        {
          "internalType": "uint256",
          "name": "",
          "type": "uint256"
        },
        {
          "internalType": "uint256",
          "name": "",
          "type": "uint256"
        },
        {
          "internalType": "uint256",
          "name": "",
          "type": "uint256"
        }
      ],
      "payable": false,
      "stateMutability": "pure",
      "type": "function"
    },
    {
      "constant": true,
      "inputs": [
        {
          "internalType": "uint256",
          "name": "gracePeriodInDays",
          "type": "uint256"
        }
      ],
      "name": "timestampAdjustedForGracePeriod",
      "outputs": [
        {
          "internalType": "uint256",
          "name": "",
          "type": "uint256"
        }
      ],
      "payable": false,
      "stateMutability": "view",
      "type": "function"
    }
  ],
  "bytecode": "0x608060405260008060146101000a81548160ff02191690831515021790555034801561002a57600080fd5b506040516127113803806127118339818101604052608081101561004d57600080fd5b8101908080519060200190929190805190602001909291908051906020019092919080519060200190929190505050336000806101000a81548173ffffffffffffffffffffffffffffffffffffffff021916908373ffffffffffffffffffffffffffffffffffffffff16021790555083600160006101000a81548173ffffffffffffffffffffffffffffffffffffffff021916908373ffffffffffffffffffffffffffffffffffffffff16021790555082600260006101000a81548173ffffffffffffffffffffffffffffffffffffffff021916908373ffffffffffffffffffffffffffffffffffffffff16021790555081600360006101000a81548173ffffffffffffffffffffffffffffffffffffffff021916908373ffffffffffffffffffffffffffffffffffffffff16021790555080600460006101000a81548173ffffffffffffffffffffffffffffffffffffffff021916908373ffffffffffffffffffffffffffffffffffffffff1602179055505050505061253e806101d36000396000f3fe608060405234801561001057600080fd5b50600436106101365760003560e01c8063715018a6116100b8578063ae72c6ef1161007c578063ae72c6ef146104a8578063ca062647146104ec578063e4b67a4c1461053c578063ed8e52bd146105aa578063f2fde38b146105d8578063f466f42e1461061c57610136565b8063715018a6146103bc5780638456cb59146103c65780638da5cb5b146103d05780639ae1c1f31461041a5780639d23c4c71461045e57610136565b806344c4ea95116100ff57806344c4ea95146102a65780634bbf7a67146102d45780635c975abb1461031657806361a52a3614610338578063649404bd1461035657610136565b80627eb6671461013b5780630eefdbad146101855780632e667c4e146101cf5780632f866f73146102525780633f4ba83a1461029c575b600080fd5b61014361067b565b604051808273ffffffffffffffffffffffffffffffffffffffff1673ffffffffffffffffffffffffffffffffffffffff16815260200191505060405180910390f35b61018d6106a1565b604051808273ffffffffffffffffffffffffffffffffffffffff1673ffffffffffffffffffffffffffffffffffffffff16815260200191505060405180910390f35b6101d76106c7565b6040518080602001828103825283818151815260200191508051906020019080838360005b838110156102175780820151818401526020810190506101fc565b50505050905090810190601f1680156102445780820380516001836020036101000a031916815260200191505b509250505060405180910390f35b61025a610700565b604051808273ffffffffffffffffffffffffffffffffffffffff1673ffffffffffffffffffffffffffffffffffffffff16815260200191505060405180910390f35b6102a4610726565b005b6102d2600480360360208110156102bc57600080fd5b81019080803590602001909291905050506107e0565b005b610300600480360360208110156102ea57600080fd5b8101908080359060200190929190505050610c47565b6040518082815260200191505060405180910390f35b61031e610c78565b604051808215151515815260200191505060405180910390f35b610340610c8b565b6040518082815260200191505060405180910390f35b6103a26004803603604081101561036c57600080fd5b8101908080359060200190929190803573ffffffffffffffffffffffffffffffffffffffff169060200190929190505050610c92565b604051808215151515815260200191505060405180910390f35b6103c46111c3565b005b6103ce6112c3565b005b6103d861137f565b604051808273ffffffffffffffffffffffffffffffffffffffff1673ffffffffffffffffffffffffffffffffffffffff16815260200191505060405180910390f35b61045c6004803603602081101561043057600080fd5b81019080803573ffffffffffffffffffffffffffffffffffffffff1690602001909291905050506113a4565b005b61046661144b565b604051808273ffffffffffffffffffffffffffffffffffffffff1673ffffffffffffffffffffffffffffffffffffffff16815260200191505060405180910390f35b6104ea600480360360208110156104be57600080fd5b81019080803573ffffffffffffffffffffffffffffffffffffffff169060200190929190505050611471565b005b6105186004803603602081101561050257600080fd5b8101908080359060200190929190505050611518565b60405180848152602001838152602001828152602001935050505060405180910390f35b6105686004803603602081101561055257600080fd5b810190808035906020019092919050505061159f565b604051808273ffffffffffffffffffffffffffffffffffffffff1673ffffffffffffffffffffffffffffffffffffffff16815260200191505060405180910390f35b6105d6600480360360208110156105c057600080fd5b81019080803590602001909291905050506115d2565b005b61061a600480360360208110156105ee57600080fd5b81019080803573ffffffffffffffffffffffffffffffffffffffff169060200190929190505050611a2f565b005b610624611b80565b6040518080602001828103825283818151815260200191508051906020019060200280838360005b8381101561066757808201518184015260208101905061064c565b505050509050019250505060405180910390f35b600160009054906101000a900473ffffffffffffffffffffffffffffffffffffffff1681565b600460009054906101000a900473ffffffffffffffffffffffffffffffffffffffff1681565b6040518060400160405280600e81526020017f636f6c6c61746572616c697a657200000000000000000000000000000000000081525081565b600260009054906101000a900473ffffffffffffffffffffffffffffffffffffffff1681565b6000809054906101000a900473ffffffffffffffffffffffffffffffffffffffff1673ffffffffffffffffffffffffffffffffffffffff163373ffffffffffffffffffffffffffffffffffffffff161461077f57600080fd5b600060149054906101000a900460ff1661079857600080fd5b60008060146101000a81548160ff0219169083151502179055507f7805862f689e2f13df9f062ff482ad3ad112aca9e0847911ed832e158c525b3360405160405180910390a1565b600060149054906101000a900460ff16156107fa57600080fd5b60008060008061080985611b91565b809450819550829650839750505050506000831161082657600080fd5b600073ffffffffffffffffffffffffffffffffffffffff168473ffffffffffffffffffffffffffffffffffffffff16141561086057600080fd5b600073ffffffffffffffffffffffffffffffffffffffff166005600087815260200190815260200160002060009054906101000a900473ffffffffffffffffffffffffffffffffffffffff1673ffffffffffffffffffffffffffffffffffffffff1614156108cd57600080fd5b8073ffffffffffffffffffffffffffffffffffffffff166303a896a1866040518263ffffffff1660e01b81526004018082815260200191505060206040518083038186803b15801561091e57600080fd5b505afa158015610932573d6000803e3d6000fd5b505050506040513d602081101561094857600080fd5b81019080805190602001909291905050508173ffffffffffffffffffffffffffffffffffffffff166399114d84878473ffffffffffffffffffffffffffffffffffffffff16632762dd8c8a6040518263ffffffff1660e01b81526004018082815260200191505060206040518083038186803b1580156109c757600080fd5b505afa1580156109db573d6000803e3d6000fd5b505050506040513d60208110156109f157600080fd5b81019080805190602001909291905050506040518363ffffffff1660e01b8152600401808381526020018281526020019250505060206040518083038186803b158015610a3d57600080fd5b505afa158015610a51573d6000803e3d6000fd5b505050506040513d6020811015610a6757600080fd5b81019080805190602001909291905050501115610a8357600080fd5b60006005600087815260200190815260200160002060009054906101000a900473ffffffffffffffffffffffffffffffffffffffff1690506005600087815260200190815260200160002060006101000a81549073ffffffffffffffffffffffffffffffffffffffff02191690558473ffffffffffffffffffffffffffffffffffffffff1663a9059cbb82866040518363ffffffff1660e01b8152600401808373ffffffffffffffffffffffffffffffffffffffff1673ffffffffffffffffffffffffffffffffffffffff16815260200182815260200192505050602060405180830381600087803b158015610b7857600080fd5b505af1158015610b8c573d6000803e3d6000fd5b505050506040513d6020811015610ba257600080fd5b8101908080519060200190929190505050610bbc57600080fd5b8073ffffffffffffffffffffffffffffffffffffffff16867f2621540e2b91ca10330d6a7cbd6fb8cab2396f91c4935ad76b1183770819fa1f8787604051808373ffffffffffffffffffffffffffffffffffffffff1673ffffffffffffffffffffffffffffffffffffffff1681526020018281526020019250505060405180910390a3505050505050565b6000610c71610c628362015180611d3e90919063ffffffff16565b42611dc490919063ffffffff16565b9050919050565b600060149054906101000a900460ff1681565b6201518081565b6000610ca8336006611e0e90919063ffffffff16565b610cb157600080fd5b600060149054906101000a900460ff1615610ccb57600080fd5b600080600080610cda87611b91565b809450819550829650839750505050503373ffffffffffffffffffffffffffffffffffffffff168173ffffffffffffffffffffffffffffffffffffffff1614610d2257600080fd5b60008311610d2f57600080fd5b600073ffffffffffffffffffffffffffffffffffffffff168473ffffffffffffffffffffffffffffffffffffffff161415610d6957600080fd5b600073ffffffffffffffffffffffffffffffffffffffff166005600089815260200190815260200160002060009054906101000a900473ffffffffffffffffffffffffffffffffffffffff1673ffffffffffffffffffffffffffffffffffffffff1614610dd557600080fd5b60008490506000309050848273ffffffffffffffffffffffffffffffffffffffff166370a082318a6040518263ffffffff1660e01b8152600401808273ffffffffffffffffffffffffffffffffffffffff1673ffffffffffffffffffffffffffffffffffffffff16815260200191505060206040518083038186803b158015610e5d57600080fd5b505afa158015610e71573d6000803e3d6000fd5b505050506040513d6020811015610e8757600080fd5b81019080805190602001909291905050501015610ea357600080fd5b848273ffffffffffffffffffffffffffffffffffffffff1663dd62ed3e8a600460009054906101000a900473ffffffffffffffffffffffffffffffffffffffff166040518363ffffffff1660e01b8152600401808373ffffffffffffffffffffffffffffffffffffffff1673ffffffffffffffffffffffffffffffffffffffff1681526020018273ffffffffffffffffffffffffffffffffffffffff1673ffffffffffffffffffffffffffffffffffffffff1681526020019250505060206040518083038186803b158015610f7757600080fd5b505afa158015610f8b573d6000803e3d6000fd5b505050506040513d6020811015610fa157600080fd5b81019080805190602001909291905050501015610fbd57600080fd5b87600560008b815260200190815260200160002060006101000a81548173ffffffffffffffffffffffffffffffffffffffff021916908373ffffffffffffffffffffffffffffffffffffffff160217905550600460009054906101000a900473ffffffffffffffffffffffffffffffffffffffff1673ffffffffffffffffffffffffffffffffffffffff166315dacbea838a84896040518563ffffffff1660e01b8152600401808573ffffffffffffffffffffffffffffffffffffffff1673ffffffffffffffffffffffffffffffffffffffff1681526020018473ffffffffffffffffffffffffffffffffffffffff1673ffffffffffffffffffffffffffffffffffffffff1681526020018373ffffffffffffffffffffffffffffffffffffffff1673ffffffffffffffffffffffffffffffffffffffff168152602001828152602001945050505050602060405180830381600087803b15801561112057600080fd5b505af1158015611134573d6000803e3d6000fd5b505050506040513d602081101561114a57600080fd5b810190808051906020019092919050505061116457600080fd5b8573ffffffffffffffffffffffffffffffffffffffff16897f38f12634ebefbe7f6767652aae05e220f95e0ca8ef8353c9c9c5ae439a592aec876040518082815260200191505060405180910390a36001965050505050505092915050565b6000809054906101000a900473ffffffffffffffffffffffffffffffffffffffff1673ffffffffffffffffffffffffffffffffffffffff163373ffffffffffffffffffffffffffffffffffffffff161461121c57600080fd5b6000809054906101000a900473ffffffffffffffffffffffffffffffffffffffff1673ffffffffffffffffffffffffffffffffffffffff167ff8df31144d9c2f0f6b59d69b8b98abd5459d07f2742c4df920b25aae33c6482060405160405180910390a260008060006101000a81548173ffffffffffffffffffffffffffffffffffffffff021916908373ffffffffffffffffffffffffffffffffffffffff160217905550565b6000809054906101000a900473ffffffffffffffffffffffffffffffffffffffff1673ffffffffffffffffffffffffffffffffffffffff163373ffffffffffffffffffffffffffffffffffffffff161461131c57600080fd5b600060149054906101000a900460ff161561133657600080fd5b6001600060146101000a81548160ff0219169083151502179055507f6985a02210a168e66602d3235cb6db0e70f92b3ba4d376a33c0f3d9434bff62560405160405180910390a1565b6000809054906101000a900473ffffffffffffffffffffffffffffffffffffffff1681565b6000809054906101000a900473ffffffffffffffffffffffffffffffffffffffff1673ffffffffffffffffffffffffffffffffffffffff163373ffffffffffffffffffffffffffffffffffffffff16146113fd57600080fd5b611448816040518060400160405280600e81526020017f636f6c6c61746572616c697a65720000000000000000000000000000000000008152506006611e679092919063ffffffff16565b50565b600360009054906101000a900473ffffffffffffffffffffffffffffffffffffffff1681565b6000809054906101000a900473ffffffffffffffffffffffffffffffffffffffff1673ffffffffffffffffffffffffffffffffffffffff163373ffffffffffffffffffffffffffffffffffffffff16146114ca57600080fd5b611515816040518060400160405280600e81526020017f636f6c6c61746572616c697a657200000000000000000000000000000000000081525060066121539092919063ffffffff16565b50565b6000806000806d0ff000000000000000000000000060001b8516905060006c0fffffffffffffffffffffff0060001b8616905060006c100000000000000000000000008360001c8161156657fe5b04905060006101008360001c8161157957fe5b049050600060ff60001b8916905082828260001c97509750975050505050509193909250565b60056020528060005260406000206000915054906101000a900473ffffffffffffffffffffffffffffffffffffffff1681565b600060149054906101000a900460ff16156115ec57600080fd5b6000806000806115fb85611b91565b809450819550829650839750505050506000831161161857600080fd5b600073ffffffffffffffffffffffffffffffffffffffff168473ffffffffffffffffffffffffffffffffffffffff16141561165257600080fd5b600073ffffffffffffffffffffffffffffffffffffffff166005600087815260200190815260200160002060009054906101000a900473ffffffffffffffffffffffffffffffffffffffff1673ffffffffffffffffffffffffffffffffffffffff1614156116bf57600080fd5b8073ffffffffffffffffffffffffffffffffffffffff166303a896a1866040518263ffffffff1660e01b81526004018082815260200191505060206040518083038186803b15801561171057600080fd5b505afa158015611724573d6000803e3d6000fd5b505050506040513d602081101561173a57600080fd5b81019080805190602001909291905050508173ffffffffffffffffffffffffffffffffffffffff166399114d848761177186610c47565b6040518363ffffffff1660e01b8152600401808381526020018281526020019250505060206040518083038186803b1580156117ac57600080fd5b505afa1580156117c0573d6000803e3d6000fd5b505050506040513d60208110156117d657600080fd5b8101908080519060200190929190505050116117f157600080fd5b6005600086815260200190815260200160002060006101000a81549073ffffffffffffffffffffffffffffffffffffffff02191690556000600260009054906101000a900473ffffffffffffffffffffffffffffffffffffffff1673ffffffffffffffffffffffffffffffffffffffff1663ba20dda4876040518263ffffffff1660e01b81526004018082815260200191505060206040518083038186803b15801561189c57600080fd5b505afa1580156118b0573d6000803e3d6000fd5b505050506040513d60208110156118c657600080fd5b810190808051906020019092919050505090508473ffffffffffffffffffffffffffffffffffffffff1663a9059cbb82866040518363ffffffff1660e01b8152600401808373ffffffffffffffffffffffffffffffffffffffff1673ffffffffffffffffffffffffffffffffffffffff16815260200182815260200192505050602060405180830381600087803b15801561196057600080fd5b505af1158015611974573d6000803e3d6000fd5b505050506040513d602081101561198a57600080fd5b81019080805190602001909291905050506119a457600080fd5b8073ffffffffffffffffffffffffffffffffffffffff16867f50d195a4b80a950617a8e0e18ac9dd4c0236ac72d5e12355d881443823870d398787604051808373ffffffffffffffffffffffffffffffffffffffff1673ffffffffffffffffffffffffffffffffffffffff1681526020018281526020019250505060405180910390a3505050505050565b6000809054906101000a900473ffffffffffffffffffffffffffffffffffffffff1673ffffffffffffffffffffffffffffffffffffffff163373ffffffffffffffffffffffffffffffffffffffff1614611a8857600080fd5b600073ffffffffffffffffffffffffffffffffffffffff168173ffffffffffffffffffffffffffffffffffffffff161415611ac257600080fd5b8073ffffffffffffffffffffffffffffffffffffffff166000809054906101000a900473ffffffffffffffffffffffffffffffffffffffff1673ffffffffffffffffffffffffffffffffffffffff167f8be0079c531659141344cd1fd0a4f28419497f9722a3daafe3b4186f6b6457e060405160405180910390a3806000806101000a81548173ffffffffffffffffffffffffffffffffffffffff021916908373ffffffffffffffffffffffffffffffffffffffff16021790555050565b6060611b8c6006612330565b905090565b600080600080600080600260009054906101000a900473ffffffffffffffffffffffffffffffffffffffff1673ffffffffffffffffffffffffffffffffffffffff16636be39bda886040518263ffffffff1660e01b815260040180828152602001915050604080518083038186803b158015611c0c57600080fd5b505afa158015611c20573d6000803e3d6000fd5b505050506040513d6040811015611c3657600080fd5b81019080805190602001909291908051906020019092919050505080925081935050506000806000611c6784611518565b8093508194508295505050506000600360009054906101000a900473ffffffffffffffffffffffffffffffffffffffff1673ffffffffffffffffffffffffffffffffffffffff16635715c5b7856040518263ffffffff1660e01b81526004018082815260200191505060206040518083038186803b158015611ce857600080fd5b505afa158015611cfc573d6000803e3d6000fd5b505050506040513d6020811015611d1257600080fd5b810190808051906020019092919050505090508083838899509950995099505050505050509193509193565b600080831415611d515760009050611dbe565b6000828402905082848281611d6257fe5b0414611db9576040517f08c379a00000000000000000000000000000000000000000000000000000000081526004018080602001828103825260218152602001806124e96021913960400191505060405180910390fd5b809150505b92915050565b6000611e0683836040518060400160405280601e81526020017f536166654d6174683a207375627472616374696f6e206f766572666c6f7700008152506123c2565b905092915050565b60008260000160008373ffffffffffffffffffffffffffffffffffffffff1673ffffffffffffffffffffffffffffffffffffffff16815260200190815260200160002060009054906101000a900460ff16905092915050565b611e718383611e0e565b611e7a57600080fd5b60008360010160008473ffffffffffffffffffffffffffffffffffffffff1673ffffffffffffffffffffffffffffffffffffffff1681526020019081526020016000205490506000600185600201805490500390506000856002018281548110611ee057fe5b9060005260206000200160009054906101000a900473ffffffffffffffffffffffffffffffffffffffff1690508560000160008673ffffffffffffffffffffffffffffffffffffffff1673ffffffffffffffffffffffffffffffffffffffff16815260200190815260200160002060006101000a81549060ff021916905580866002018481548110611f6e57fe5b9060005260206000200160006101000a81548173ffffffffffffffffffffffffffffffffffffffff021916908373ffffffffffffffffffffffffffffffffffffffff160217905550828660010160008373ffffffffffffffffffffffffffffffffffffffff1673ffffffffffffffffffffffffffffffffffffffff168152602001908152602001600020819055508560010160008673ffffffffffffffffffffffffffffffffffffffff1673ffffffffffffffffffffffffffffffffffffffff1681526020019081526020016000206000905585600201828154811061205057fe5b9060005260206000200160006101000a81549073ffffffffffffffffffffffffffffffffffffffff0219169055600186600201818180549050039150816120979190612497565b508473ffffffffffffffffffffffffffffffffffffffff167f0814e4ee85854cea446b4a27a460e5ffb41516230dbc02f226c07907e432241c856040518080602001828103825283818151815260200191508051906020019080838360005b838110156121115780820151818401526020810190506120f6565b50505050905090810190601f16801561213e5780820380516001836020036101000a031916815260200191505b509250505060405180910390a2505050505050565b61215d8383612482565b61216657600080fd5b60018360000160008473ffffffffffffffffffffffffffffffffffffffff1673ffffffffffffffffffffffffffffffffffffffff16815260200190815260200160002060006101000a81548160ff021916908315150217905550826002018290806001815401808255809150509060018203906000526020600020016000909192909190916101000a81548173ffffffffffffffffffffffffffffffffffffffff021916908373ffffffffffffffffffffffffffffffffffffffff1602179055505060018360020180549050038360010160008473ffffffffffffffffffffffffffffffffffffffff1673ffffffffffffffffffffffffffffffffffffffff168152602001908152602001600020819055508173ffffffffffffffffffffffffffffffffffffffff167f571925c699f9072cec76b6c6c000571cc8d0bb5c47e5819202e2e9496c6508b5826040518080602001828103825283818151815260200191508051906020019080838360005b838110156122f15780820151818401526020810190506122d6565b50505050905090810190601f16801561231e5780820380516001836020036101000a031916815260200191505b509250505060405180910390a2505050565b6060816002018054806020026020016040519081016040528092919081815260200182805480156123b657602002820191906000526020600020905b8160009054906101000a900473ffffffffffffffffffffffffffffffffffffffff1673ffffffffffffffffffffffffffffffffffffffff168152602001906001019080831161236c575b50505050509050919050565b600083831115829061246f576040517f08c379a00000000000000000000000000000000000000000000000000000000081526004018080602001828103825283818151815260200191508051906020019080838360005b83811015612434578082015181840152602081019050612419565b50505050905090810190601f1680156124615780820380516001836020036101000a031916815260200191505b509250505060405180910390fd5b5060008385039050809150509392505050565b600061248e8383611e0e565b15905092915050565b8154818355818111156124be578183600052602060002091820191016124bd91906124c3565b5b505050565b6124e591905b808211156124e15760008160009055506001016124c9565b5090565b9056fe536166654d6174683a206d756c7469706c69636174696f6e206f766572666c6f77a265627a7a7231582006bfa0b8a6f78bfceb78e94a4899aa2d4fd70a619990aeb69eaf081a77c56dd364736f6c63430005100032",
  "source": "/*\n\n  Copyright 2017 Dharma Labs Inc.\n\n  Licensed under the Apache License, Version 2.0 (the \"License\");\n  you may not use this file except in compliance with the License.\n  You may obtain a copy of the License at\n\n    http://www.apache.org/licenses/LICENSE-2.0\n\n  Unless required by applicable law or agreed to in writing, software\n  distributed under the License is distributed on an \"AS IS\" BASIS,\n  WITHOUT WARRANTIES OR CONDITIONS OF ANY KIND, either express or implied.\n  See the License for the specific language governing permissions and\n  limitations under the License.\n\n*/\n// SPDX-License-Identifier: MIT\npragma solidity >=0.4.21 <0.7.0;\n\nimport \"./SafeMath.sol\";\nimport \"./ERC20.sol\";\n\nimport \"./TermsContract.sol\";\nimport \"./DebtRegistry.sol\";\nimport \"./TokenRegistry.sol\";\nimport \"./TokenTransferProxy.sol\";\nimport { PermissionsLib, PermissionEvents } from \"../contracts/libraries/PermissionsLib.sol\";\n\n\n/**\n  * Contains functionality for collateralizing assets, by transferring them from\n  * a debtor address to this contract as a custodian.\n  *\n  * Authors (in no particular order): nadavhollander, saturnial, jdkanani, graemecode\n  */\ncontract Collateralizer is Pausable, PermissionEvents {\n    using PermissionsLib for PermissionsLib.Permissions;\n    using SafeMath for uint;\n\n    address public debtKernelAddress;\n\n    DebtRegistry public debtRegistry;\n    TokenRegistry public tokenRegistry;\n    TokenTransferProxy public tokenTransferProxy;\n\n    // Collateralizer here refers to the owner of the asset that is being collateralized.\n    mapping(bytes32 => address) public agreementToCollateralizer;\n\n    PermissionsLib.Permissions internal collateralizationPermissions;\n\n    uint public constant SECONDS_IN_DAY = 24*60*60;\n\n    string public constant CONTEXT = \"collateralizer\";\n\n    event CollateralLocked(\n        bytes32 indexed agreementID,\n        address indexed token,\n        uint amount\n    );\n\n    event CollateralReturned(\n        bytes32 indexed agreementID,\n        address indexed collateralizer,\n        address token,\n        uint amount\n    );\n\n    event CollateralSeized(\n        bytes32 indexed agreementID,\n        address indexed beneficiary,\n        address token,\n        uint amount\n    );\n\n    modifier onlyAuthorizedToCollateralize() {\n        require(collateralizationPermissions.isAuthorized(msg.sender));\n        _;\n    }\n\n    constructor(\n        address _debtKernel,\n        address _debtRegistry,\n        address _tokenRegistry,\n        address _tokenTransferProxy\n    ) public {\n        debtKernelAddress = _debtKernel;\n        debtRegistry = DebtRegistry(_debtRegistry);\n        tokenRegistry = TokenRegistry(_tokenRegistry);\n        tokenTransferProxy = TokenTransferProxy(_tokenTransferProxy);\n    }\n\n    /**\n     * Transfers collateral from the debtor to the current contract, as custodian.\n     *\n     * @param agreementId bytes32 The debt agreement's ID\n     * @param collateralizer address The owner of the asset being collateralized\n     */\n    function collateralize(\n        bytes32 agreementId,\n        address collateralizer\n    )\n        public\n        onlyAuthorizedToCollateralize\n        whenNotPaused\n        returns (bool _success)\n    {\n        // The token in which collateral is denominated\n        address collateralToken;\n        // The amount being put up for collateral\n        uint collateralAmount;\n        // The number of days a debtor has after a debt enters default\n        // before their collateral is eligible for seizure.\n        uint gracePeriodInDays;\n        // The terms contract according to which this asset is being collateralized.\n        TermsContract termsContract;\n\n        // Fetch all relevant collateralization parameters\n        (\n            collateralToken,\n            collateralAmount,\n            gracePeriodInDays,\n            termsContract\n        ) = retrieveCollateralParameters(agreementId);\n\n        require(address(termsContract) == msg.sender);\n        require(collateralAmount > 0);\n        require(collateralToken != address(0));\n\n        /*\n        Ensure that the agreement has not already been collateralized.\n\n        If the agreement has already been collateralized, this check will fail\n        because any valid collateralization must have some sort of valid\n        address associated with it as a collateralizer.  Given that it is impossible\n        to send transactions from address 0x0, this check will only fail\n        when the agreement is already collateralized.\n        */\n        require(agreementToCollateralizer[agreementId] == address(0));\n\n        ERC20 erc20token = ERC20(collateralToken);\n        address custodian = address(this);\n\n        /*\n        The collateralizer must have sufficient balance equal to or greater\n        than the amount being put up for collateral.\n        */\n        require(erc20token.balanceOf(collateralizer) >= collateralAmount);\n\n        /*\n        The proxy must have an allowance granted by the collateralizer equal\n        to or greater than the amount being put up for collateral.\n        */\n        require(erc20token.allowance(collateralizer, address(tokenTransferProxy)) >= collateralAmount);\n\n        // store collaterallizer in mapping, effectively demarcating that the\n        // agreement is now collateralized.\n        agreementToCollateralizer[agreementId] = collateralizer;\n\n        // the collateral must be successfully transferred to this contract, via a proxy.\n        require(tokenTransferProxy.transferFrom(\n            address(erc20token),\n            collateralizer,\n            custodian,\n            collateralAmount\n        ));\n\n        // emit event that collateral has been secured.\n        emit CollateralLocked(agreementId, collateralToken, collateralAmount);\n\n        return true;\n    }\n\n    /**\n     * Returns collateral to the debt agreement's original collateralizer\n     * if and only if the debt agreement's term has lapsed and\n     * the total expected repayment value has been repaid.\n     *\n     * @param agreementId bytes32 The debt agreement's ID\n     */\n    function returnCollateral(\n        bytes32 agreementId\n    )\n        public\n        whenNotPaused\n    {\n        // The token in which collateral is denominated\n        address collateralToken;\n        // The amount being put up for collateral\n        uint collateralAmount;\n        // The number of days a debtor has after a debt enters default\n        // before their collateral is eligible for seizure.\n        uint gracePeriodInDays;\n        // The terms contract according to which this asset is being collateralized.\n        TermsContract termsContract;\n\n        // Fetch all relevant collateralization parameters.\n        (\n            collateralToken,\n            collateralAmount,\n            gracePeriodInDays,\n            termsContract\n        ) = retrieveCollateralParameters(agreementId);\n\n        // Ensure a valid form of collateral is tied to this agreement id\n        require(collateralAmount > 0);\n        require(collateralToken != address(0));\n\n        // Withdrawal can only occur if the collateral has yet to be withdrawn.\n        // When we withdraw collateral, we reset the collateral agreement\n        // in a gas-efficient manner by resetting the address of the collateralizer to 0\n        require(agreementToCollateralizer[agreementId] != address(0));\n\n        // Ensure that the debt is not in a state of default\n        require(\n            termsContract.getExpectedRepaymentValue(\n                agreementId,\n                termsContract.getTermEndTimestamp(agreementId)\n            ) <= termsContract.getValueRepaidToDate(agreementId)\n        );\n\n        // determine collateralizer of the collateral.\n        address collateralizer = agreementToCollateralizer[agreementId];\n\n        // Mark agreement's collateral as withdrawn by setting the agreement's\n        // collateralizer to 0x0.\n        delete agreementToCollateralizer[agreementId];\n\n        // transfer the collateral this contract was holding in escrow back to collateralizer.\n        require(\n            ERC20(collateralToken).transfer(\n                collateralizer,\n                collateralAmount\n            )\n        );\n\n        // log the return event.\n      emit  CollateralReturned(\n            agreementId,\n            collateralizer,\n            collateralToken,\n            collateralAmount\n        );\n    }\n\n    /**\n     * Seizes the collateral from the given debt agreement and\n     * transfers it to the debt agreement's current beneficiary\n     * (i.e. the person who \"owns\" the debt).\n     *\n     * @param agreementId bytes32 The debt agreement's ID\n     */\n    function seizeCollateral(\n        bytes32 agreementId\n    )\n        public\n        whenNotPaused\n    {\n\n        // The token in which collateral is denominated\n        address collateralToken;\n        // The amount being put up for collateral\n        uint collateralAmount;\n        // The number of days a debtor has after a debt enters default\n        // before their collateral is eligible for seizure.\n        uint gracePeriodInDays;\n        // The terms contract according to which this asset is being collateralized.\n        TermsContract termsContract;\n\n        // Fetch all relevant collateralization parameters\n        (\n            collateralToken,\n            collateralAmount,\n            gracePeriodInDays,\n            termsContract\n        ) = retrieveCollateralParameters(agreementId);\n\n        // Ensure a valid form of collateral is tied to this agreement id\n        require(collateralAmount > 0);\n        require(collateralToken != address(0));\n\n        // Seizure can only occur if the collateral has yet to be withdrawn.\n        // When we withdraw collateral, we reset the collateral agreement\n        // in a gas-efficient manner by resetting the address of the collateralizer to 0\n        require(agreementToCollateralizer[agreementId] != address(0));\n\n        // Ensure debt is in a state of default when we account for the\n        // specified \"grace period\".  We do this by checking whether the\n        // *current* value repaid to-date exceeds the expected repayment value\n        // at the point of time at which the grace period would begin if it ended\n        // now.  This crucially relies on the assumption that both expected repayment value\n        /// and value repaid to date monotonically increase over time\n        require(\n            termsContract.getExpectedRepaymentValue(\n                agreementId,\n                timestampAdjustedForGracePeriod(gracePeriodInDays)\n            ) > termsContract.getValueRepaidToDate(agreementId)\n        );\n\n        // Mark agreement's collateral as withdrawn by setting the agreement's\n        // collateralizer to 0x0.\n        delete agreementToCollateralizer[agreementId];\n\n        // determine beneficiary of the seized collateral.\n        address beneficiary = debtRegistry.getBeneficiary(agreementId);\n\n        // transfer the collateral this contract was holding in escrow to beneficiary.\n        require(\n            ERC20(collateralToken).transfer(\n                beneficiary,\n                collateralAmount\n            )\n        );\n\n        // log the seizure event.\n        emit CollateralSeized(\n            agreementId,\n            beneficiary,\n            collateralToken,\n            collateralAmount\n        );\n    }\n\n    /**\n     * Adds an address to the list of agents authorized\n     * to invoke the `collateralize` function.\n     */\n    function addAuthorizedCollateralizeAgent(address agent)\n        public\n        onlyOwner\n    {\n        collateralizationPermissions.authorize(agent, CONTEXT);\n    }\n\n    /**\n     * Removes an address from the list of agents authorized\n     * to invoke the `collateralize` function.\n     */\n    function revokeCollateralizeAuthorization(address agent)\n        public\n        onlyOwner\n    {\n        collateralizationPermissions.revokeAuthorization(agent, CONTEXT);\n    }\n\n    /**\n    * Returns the list of agents authorized to invoke the 'collateralize' function.\n    */\n    function getAuthorizedCollateralizeAgents()\n        public\n        view\n        returns(address[] memory)\n    {\n        return collateralizationPermissions.getAuthorizedAgents();\n    }\n\n    /**\n     * Unpacks collateralization-specific parameters from their tightly-packed\n     * representation in a terms contract parameter string.\n     *\n     * For collateralized terms contracts, we reserve the lowest order 108 bits\n     * of the terms contract parameters for parameters relevant to collateralization.\n     *\n     * Contracts that inherit from the Collateralized terms contract\n     * can encode whichever parameter schema they please in the remaining\n     * space of the terms contract parameters.\n     * The 108 bits are encoded as follows (from higher order bits to lower order bits):\n     *\n     * 8 bits - Collateral Token (encoded by its unsigned integer index in the TokenRegistry contract)\n     * 92 bits - Collateral Amount (encoded as an unsigned integer)\n     * 8 bits - Grace Period* Length (encoded as an unsigned integer)\n     *\n     * * = The \"Grace\" Period is the number of days a debtor has between\n     *      when they fall behind on an expected payment and when their collateral\n     *      can be seized by the creditor.\n     */\n    function unpackCollateralParametersFromBytes(bytes32 parameters)\n        public\n        pure\n        returns (uint, uint, uint)\n    {\n        // The first byte of the 108 reserved bits represents the collateral token.\n        bytes32 collateralTokenIndexShifted =\n            parameters & 0x0000000000000000000000000000000000000ff0000000000000000000000000;\n        // The subsequent 92 bits represents the collateral amount, as denominated in the above token.\n        bytes32 collateralAmountShifted =\n            parameters & 0x000000000000000000000000000000000000000fffffffffffffffffffffff00;\n\n        // We bit-shift these values, respectively, 100 bits and 8 bits right using\n        // mathematical operations, so that their 32 byte integer counterparts\n        // correspond to the intended values packed in the 32 byte string\n        uint collateralTokenIndex = uint(collateralTokenIndexShifted) / 2 ** 100;\n        uint collateralAmount = uint(collateralAmountShifted) / 2 ** 8;\n\n        // The last byte of the parameters represents the \"grace period\" of the loan,\n        // as defined in terms of days.\n        // Since this value takes the rightmost place in the parameters string,\n        // we do not need to bit-shift it.\n        bytes32 gracePeriodInDays =\n            parameters & 0x00000000000000000000000000000000000000000000000000000000000000ff;\n\n        return (\n            collateralTokenIndex,\n            collateralAmount,\n            uint(gracePeriodInDays)\n        );\n    }\n\n    function timestampAdjustedForGracePeriod(uint gracePeriodInDays)\n        public\n        view\n        returns (uint)\n    {\n        return block.timestamp.sub(\n            SECONDS_IN_DAY.mul(gracePeriodInDays)\n        );\n    }\n\n    function retrieveCollateralParameters(bytes32 agreementId)\n        internal\n        view\n        returns (\n            address _collateralToken,\n            uint _collateralAmount,\n            uint _gracePeriodInDays,\n            TermsContract _termsContract\n        )\n    {\n        address termsContractAddress;\n        bytes32 termsContractParameters;\n\n        // Pull the terms contract and associated parameters for the agreement\n        (termsContractAddress, termsContractParameters) = debtRegistry.getTerms(agreementId);\n\n        uint collateralTokenIndex;\n        uint collateralAmount;\n        uint gracePeriodInDays;\n\n        // Unpack terms contract parameters in order to get collateralization-specific params\n        (\n            collateralTokenIndex,\n            collateralAmount,\n            gracePeriodInDays\n        ) = unpackCollateralParametersFromBytes(termsContractParameters);\n\n        // Resolve address of token associated with this agreement in token registry\n        address collateralTokenAddress = tokenRegistry.getTokenAddressByIndex(collateralTokenIndex);\n\n        return (\n            collateralTokenAddress,\n            collateralAmount,\n            gracePeriodInDays,\n            TermsContract(termsContractAddress)\n        );\n    }\n}\n",
  "sourcePath": "/home/niraj/Desktop/customcognito/contracts/Collateralizer.sol",
  "compiler": {
    "name": "solc",
    "version": "0.5.16+commit.9c3226ce.Emscripten.clang"
  },
  "schemaVersion": "3.3.1",
  "updatedAt": "2020-11-09T08:10:46.616Z",
  "devdoc": {
    "methods": {
      "collateralize(bytes32,address)": {
        "params": {
          "agreementId": "bytes32 The debt agreement's ID",
          "collateralizer": "address The owner of the asset being collateralized"
        }
      },
      "pause()": {
        "details": "called by the owner to pause, triggers stopped state"
      },
      "renounceOwnership()": {
        "details": "Allows the current owner to relinquish control of the contract."
      },
      "returnCollateral(bytes32)": {
        "params": {
          "agreementId": "bytes32 The debt agreement's ID"
        }
      },
      "seizeCollateral(bytes32)": {
        "params": {
          "agreementId": "bytes32 The debt agreement's ID"
        }
      },
      "transferOwnership(address)": {
        "details": "Allows the current owner to transfer control of the contract to a newOwner.",
        "params": {
          "newOwner": "The address to transfer ownership to."
        }
      },
      "unpause()": {
        "details": "called by the owner to unpause, returns to normal state"
      }
    }
  },
  "userdoc": {
    "methods": {
      "addAuthorizedCollateralizeAgent(address)": {
        "notice": "Adds an address to the list of agents authorized to invoke the `collateralize` function."
      },
      "collateralize(bytes32,address)": {
        "notice": "Transfers collateral from the debtor to the current contract, as custodian."
      },
      "getAuthorizedCollateralizeAgents()": {
        "notice": "Returns the list of agents authorized to invoke the 'collateralize' function."
      },
      "returnCollateral(bytes32)": {
        "notice": "Returns collateral to the debt agreement's original collateralizer if and only if the debt agreement's term has lapsed and the total expected repayment value has been repaid."
      },
      "revokeCollateralizeAuthorization(address)": {
        "notice": "Removes an address from the list of agents authorized to invoke the `collateralize` function."
      },
      "seizeCollateral(bytes32)": {
        "notice": "Seizes the collateral from the given debt agreement and transfers it to the debt agreement's current beneficiary (i.e. the person who \"owns\" the debt)."
      },
      "unpackCollateralParametersFromBytes(bytes32)": {
        "notice": "Unpacks collateralization-specific parameters from their tightly-packed representation in a terms contract parameter string.     * For collateralized terms contracts, we reserve the lowest order 108 bits of the terms contract parameters for parameters relevant to collateralization.     * Contracts that inherit from the Collateralized terms contract can encode whichever parameter schema they please in the remaining space of the terms contract parameters. The 108 bits are encoded as follows (from higher order bits to lower order bits):     * 8 bits - Collateral Token (encoded by its unsigned integer index in the TokenRegistry contract) 92 bits - Collateral Amount (encoded as an unsigned integer) 8 bits - Grace Period* Length (encoded as an unsigned integer)     * * = The \"Grace\" Period is the number of days a debtor has between     when they fall behind on an expected payment and when their collateral     can be seized by the creditor."
      }
    },
    "notice": "Contains functionality for collateralizing assets, by transferring them from a debtor address to this contract as a custodian.  * Authors (in no particular order): nadavhollander, saturnial, jdkanani, graemecode"
  }
}