{
  "contractName": "ContractRegistry",
  "abi": [
    {
      "inputs": [
        {
          "internalType": "address",
          "name": "_collateralizer",
          "type": "address"
        },
        {
          "internalType": "address",
          "name": "_debtKernel",
          "type": "address"
        },
        {
          "internalType": "address",
          "name": "_debtRegistry",
          "type": "address"
        },
        {
          "internalType": "address",
          "name": "_debtToken",
          "type": "address"
        },
        {
          "internalType": "address",
          "name": "_repaymentRouter",
          "type": "address"
        },
        {
          "internalType": "address",
          "name": "_tokenRegistry",
          "type": "address"
        },
        {
          "internalType": "address",
          "name": "_tokenTransferProxy",
          "type": "address"
        }
      ],
      "payable": false,
      "stateMutability": "nonpayable",
      "type": "constructor"
    },
    {
      "anonymous": false,
      "inputs": [
        {
          "indexed": true,
          "internalType": "enum ContractRegistry.ContractType",
          "name": "contractType",
          "type": "uint8"
        },
        {
          "indexed": true,
          "internalType": "address",
          "name": "oldAddress",
          "type": "address"
        },
        {
          "indexed": true,
          "internalType": "address",
          "name": "newAddress",
          "type": "address"
        }
      ],
      "name": "ContractAddressUpdated",
      "type": "event"
    },
    {
      "anonymous": false,
      "inputs": [
        {
          "indexed": true,
          "internalType": "address",
          "name": "previousOwner",
          "type": "address"
        }
      ],
      "name": "OwnershipRenounced",
      "type": "event"
    },
    {
      "anonymous": false,
      "inputs": [
        {
          "indexed": true,
          "internalType": "address",
          "name": "previousOwner",
          "type": "address"
        },
        {
          "indexed": true,
          "internalType": "address",
          "name": "newOwner",
          "type": "address"
        }
      ],
      "name": "OwnershipTransferred",
      "type": "event"
    },
    {
      "constant": true,
      "inputs": [],
      "name": "collateralizer",
      "outputs": [
        {
          "internalType": "contract Collateralizer",
          "name": "",
          "type": "address"
        }
      ],
      "payable": false,
      "stateMutability": "view",
      "type": "function"
    },
    {
      "constant": true,
      "inputs": [],
      "name": "debtKernel",
      "outputs": [
        {
          "internalType": "contract DebtKernel",
          "name": "",
          "type": "address"
        }
      ],
      "payable": false,
      "stateMutability": "view",
      "type": "function"
    },
    {
      "constant": true,
      "inputs": [],
      "name": "debtRegistry",
      "outputs": [
        {
          "internalType": "contract DebtRegistry",
          "name": "",
          "type": "address"
        }
      ],
      "payable": false,
      "stateMutability": "view",
      "type": "function"
    },
    {
      "constant": true,
      "inputs": [],
      "name": "debtToken",
      "outputs": [
        {
          "internalType": "contract DebtToken",
          "name": "",
          "type": "address"
        }
      ],
      "payable": false,
      "stateMutability": "view",
      "type": "function"
    },
    {
      "constant": true,
      "inputs": [],
      "name": "owner",
      "outputs": [
        {
          "internalType": "address",
          "name": "",
          "type": "address"
        }
      ],
      "payable": false,
      "stateMutability": "view",
      "type": "function"
    },
    {
      "constant": false,
      "inputs": [],
      "name": "renounceOwnership",
      "outputs": [],
      "payable": false,
      "stateMutability": "nonpayable",
      "type": "function"
    },
    {
      "constant": true,
      "inputs": [],
      "name": "repaymentRouter",
      "outputs": [
        {
          "internalType": "contract RepaymentRouter",
          "name": "",
          "type": "address"
        }
      ],
      "payable": false,
      "stateMutability": "view",
      "type": "function"
    },
    {
      "constant": true,
      "inputs": [],
      "name": "tokenRegistry",
      "outputs": [
        {
          "internalType": "contract TokenRegistry",
          "name": "",
          "type": "address"
        }
      ],
      "payable": false,
      "stateMutability": "view",
      "type": "function"
    },
    {
      "constant": true,
      "inputs": [],
      "name": "tokenTransferProxy",
      "outputs": [
        {
          "internalType": "contract TokenTransferProxy",
          "name": "",
          "type": "address"
        }
      ],
      "payable": false,
      "stateMutability": "view",
      "type": "function"
    },
    {
      "constant": false,
      "inputs": [
        {
          "internalType": "address",
          "name": "newOwner",
          "type": "address"
        }
      ],
      "name": "transferOwnership",
      "outputs": [],
      "payable": false,
      "stateMutability": "nonpayable",
      "type": "function"
    },
    {
      "constant": false,
      "inputs": [
        {
          "internalType": "enum ContractRegistry.ContractType",
          "name": "contractType",
          "type": "uint8"
        },
        {
          "internalType": "address",
          "name": "newAddress",
          "type": "address"
        }
      ],
      "name": "updateAddress",
      "outputs": [],
      "payable": false,
      "stateMutability": "nonpayable",
      "type": "function"
    }
  ],
  "bytecode": "0x608060405234801561001057600080fd5b50604051610f41380380610f41833981810160405260e081101561003357600080fd5b8101908080519060200190929190805190602001909291908051906020019092919080519060200190929190805190602001909291908051906020019092919080519060200190929190505050336000806101000a81548173ffffffffffffffffffffffffffffffffffffffff021916908373ffffffffffffffffffffffffffffffffffffffff16021790555086600160006101000a81548173ffffffffffffffffffffffffffffffffffffffff021916908373ffffffffffffffffffffffffffffffffffffffff16021790555085600260006101000a81548173ffffffffffffffffffffffffffffffffffffffff021916908373ffffffffffffffffffffffffffffffffffffffff16021790555084600360006101000a81548173ffffffffffffffffffffffffffffffffffffffff021916908373ffffffffffffffffffffffffffffffffffffffff16021790555083600460006101000a81548173ffffffffffffffffffffffffffffffffffffffff021916908373ffffffffffffffffffffffffffffffffffffffff16021790555082600560006101000a81548173ffffffffffffffffffffffffffffffffffffffff021916908373ffffffffffffffffffffffffffffffffffffffff16021790555081600660006101000a81548173ffffffffffffffffffffffffffffffffffffffff021916908373ffffffffffffffffffffffffffffffffffffffff16021790555080600760006101000a81548173ffffffffffffffffffffffffffffffffffffffff021916908373ffffffffffffffffffffffffffffffffffffffff16021790555050505050505050610ca48061029d6000396000f3fe608060405234801561001057600080fd5b50600436106100a95760003560e01c8063869f051111610071578063869f0511146101e05780638da5cb5b1461022a5780639d23c4c714610274578063e2aa46bb146102be578063f2fde38b1461030f578063f8d8989814610353576100a9565b8063079dd4b7146100ae5780630eefdbad146100f85780632f866f73146101425780636fa9d0561461018c578063715018a6146101d6575b600080fd5b6100b661039d565b604051808273ffffffffffffffffffffffffffffffffffffffff1673ffffffffffffffffffffffffffffffffffffffff16815260200191505060405180910390f35b6101006103c3565b604051808273ffffffffffffffffffffffffffffffffffffffff1673ffffffffffffffffffffffffffffffffffffffff16815260200191505060405180910390f35b61014a6103e9565b604051808273ffffffffffffffffffffffffffffffffffffffff1673ffffffffffffffffffffffffffffffffffffffff16815260200191505060405180910390f35b61019461040f565b604051808273ffffffffffffffffffffffffffffffffffffffff1673ffffffffffffffffffffffffffffffffffffffff16815260200191505060405180910390f35b6101de610435565b005b6101e8610535565b604051808273ffffffffffffffffffffffffffffffffffffffff1673ffffffffffffffffffffffffffffffffffffffff16815260200191505060405180910390f35b61023261055b565b604051808273ffffffffffffffffffffffffffffffffffffffff1673ffffffffffffffffffffffffffffffffffffffff16815260200191505060405180910390f35b61027c610580565b604051808273ffffffffffffffffffffffffffffffffffffffff1673ffffffffffffffffffffffffffffffffffffffff16815260200191505060405180910390f35b61030d600480360360408110156102d457600080fd5b81019080803560ff169060200190929190803573ffffffffffffffffffffffffffffffffffffffff1690602001909291905050506105a6565b005b6103516004803603602081101561032557600080fd5b81019080803573ffffffffffffffffffffffffffffffffffffffff169060200190929190505050610a81565b005b61035b610bd2565b604051808273ffffffffffffffffffffffffffffffffffffffff1673ffffffffffffffffffffffffffffffffffffffff16815260200191505060405180910390f35b600260009054906101000a900473ffffffffffffffffffffffffffffffffffffffff1681565b600760009054906101000a900473ffffffffffffffffffffffffffffffffffffffff1681565b600360009054906101000a900473ffffffffffffffffffffffffffffffffffffffff1681565b600560009054906101000a900473ffffffffffffffffffffffffffffffffffffffff1681565b6000809054906101000a900473ffffffffffffffffffffffffffffffffffffffff1673ffffffffffffffffffffffffffffffffffffffff163373ffffffffffffffffffffffffffffffffffffffff161461048e57600080fd5b6000809054906101000a900473ffffffffffffffffffffffffffffffffffffffff1673ffffffffffffffffffffffffffffffffffffffff167ff8df31144d9c2f0f6b59d69b8b98abd5459d07f2742c4df920b25aae33c6482060405160405180910390a260008060006101000a81548173ffffffffffffffffffffffffffffffffffffffff021916908373ffffffffffffffffffffffffffffffffffffffff160217905550565b600160009054906101000a900473ffffffffffffffffffffffffffffffffffffffff1681565b6000809054906101000a900473ffffffffffffffffffffffffffffffffffffffff1681565b600660009054906101000a900473ffffffffffffffffffffffffffffffffffffffff1681565b6000809054906101000a900473ffffffffffffffffffffffffffffffffffffffff1673ffffffffffffffffffffffffffffffffffffffff163373ffffffffffffffffffffffffffffffffffffffff16146105ff57600080fd5b600080600681111561060d57fe5b83600681111561061957fe5b141561069457600160009054906101000a900473ffffffffffffffffffffffffffffffffffffffff16905061064e8282610bf8565b81600160006101000a81548173ffffffffffffffffffffffffffffffffffffffff021916908373ffffffffffffffffffffffffffffffffffffffff160217905550610a16565b600160068111156106a157fe5b8360068111156106ad57fe5b141561072857600260009054906101000a900473ffffffffffffffffffffffffffffffffffffffff1690506106e28282610bf8565b81600260006101000a81548173ffffffffffffffffffffffffffffffffffffffff021916908373ffffffffffffffffffffffffffffffffffffffff160217905550610a15565b6002600681111561073557fe5b83600681111561074157fe5b14156107bc57600360009054906101000a900473ffffffffffffffffffffffffffffffffffffffff1690506107768282610bf8565b81600360006101000a81548173ffffffffffffffffffffffffffffffffffffffff021916908373ffffffffffffffffffffffffffffffffffffffff160217905550610a14565b600360068111156107c957fe5b8360068111156107d557fe5b141561085057600460009054906101000a900473ffffffffffffffffffffffffffffffffffffffff16905061080a8282610bf8565b81600460006101000a81548173ffffffffffffffffffffffffffffffffffffffff021916908373ffffffffffffffffffffffffffffffffffffffff160217905550610a13565b6004600681111561085d57fe5b83600681111561086957fe5b14156108e457600560009054906101000a900473ffffffffffffffffffffffffffffffffffffffff16905061089e8282610bf8565b81600560006101000a81548173ffffffffffffffffffffffffffffffffffffffff021916908373ffffffffffffffffffffffffffffffffffffffff160217905550610a12565b600560068111156108f157fe5b8360068111156108fd57fe5b141561097857600660009054906101000a900473ffffffffffffffffffffffffffffffffffffffff1690506109328282610bf8565b81600660006101000a81548173ffffffffffffffffffffffffffffffffffffffff021916908373ffffffffffffffffffffffffffffffffffffffff160217905550610a11565b60068081111561098457fe5b83600681111561099057fe5b1415610a0b57600760009054906101000a900473ffffffffffffffffffffffffffffffffffffffff1690506109c58282610bf8565b81600760006101000a81548173ffffffffffffffffffffffffffffffffffffffff021916908373ffffffffffffffffffffffffffffffffffffffff160217905550610a10565b600080fd5b5b5b5b5b5b5b8173ffffffffffffffffffffffffffffffffffffffff168173ffffffffffffffffffffffffffffffffffffffff16846006811115610a5057fe5b7fea5852cbfaa20064a0ffec7659e5b7178c40ecc51d8788b6981bfa062bc6e78860405160405180910390a4505050565b6000809054906101000a900473ffffffffffffffffffffffffffffffffffffffff1673ffffffffffffffffffffffffffffffffffffffff163373ffffffffffffffffffffffffffffffffffffffff1614610ada57600080fd5b600073ffffffffffffffffffffffffffffffffffffffff168173ffffffffffffffffffffffffffffffffffffffff161415610b1457600080fd5b8073ffffffffffffffffffffffffffffffffffffffff166000809054906101000a900473ffffffffffffffffffffffffffffffffffffffff1673ffffffffffffffffffffffffffffffffffffffff167f8be0079c531659141344cd1fd0a4f28419497f9722a3daafe3b4186f6b6457e060405160405180910390a3806000806101000a81548173ffffffffffffffffffffffffffffffffffffffff021916908373ffffffffffffffffffffffffffffffffffffffff16021790555050565b600460009054906101000a900473ffffffffffffffffffffffffffffffffffffffff1681565b600073ffffffffffffffffffffffffffffffffffffffff168273ffffffffffffffffffffffffffffffffffffffff161415610c3257600080fd5b8073ffffffffffffffffffffffffffffffffffffffff168273ffffffffffffffffffffffffffffffffffffffff161415610c6b57600080fd5b505056fea265627a7a72315820f81ef0b32758c3dbadcb7f0159557d7520f149eb63576559f29fbcb1144cd92a64736f6c63430005100032",
  "source": "// SPDX-License-Identifier: MIT\npragma solidity >=0.4.21 <0.7.0;\n\n\n\nimport \"./Collateralizer.sol\";\nimport \"./DebtKernel.sol\";\nimport \"./DebtRegistry.sol\";\nimport \"./DebtToken.sol\";\nimport \"./RepaymentRouter.sol\";\nimport \"./TokenRegistry.sol\";\nimport \"./TokenTransferProxy.sol\";\n\n\ncontract ContractRegistry is Ownable {\n\n    event ContractAddressUpdated(\n        ContractType indexed contractType,\n        address indexed oldAddress,\n        address indexed newAddress\n    );\n\n    enum ContractType {\n        Collateralizer,\n        DebtKernel,\n        DebtRegistry,\n        DebtToken,\n        RepaymentRouter,\n        TokenRegistry,\n        TokenTransferProxy\n    }\n\n    Collateralizer public collateralizer;\n    DebtKernel public debtKernel;\n    DebtRegistry public  debtRegistry;\n    DebtToken public debtToken;\n    RepaymentRouter public repaymentRouter;\n    TokenRegistry public tokenRegistry;\n    TokenTransferProxy public tokenTransferProxy;\n\n    constructor(\n        address _collateralizer,\n        address _debtKernel,\n        address _debtRegistry,\n        address _debtToken,\n        address _repaymentRouter,\n        address _tokenRegistry,\n        address _tokenTransferProxy\n    )\n        public\n    {\n        collateralizer = Collateralizer(_collateralizer);\n        debtKernel = DebtKernel(_debtKernel);\n        debtRegistry = DebtRegistry(_debtRegistry);\n        debtToken = DebtToken(_debtToken);\n        repaymentRouter = RepaymentRouter(_repaymentRouter);\n        tokenRegistry = TokenRegistry(_tokenRegistry);\n        tokenTransferProxy = TokenTransferProxy(_tokenTransferProxy);\n    }\n\n    function updateAddress(\n        ContractType contractType,\n        address newAddress\n    )\n        public\n        onlyOwner\n    {\n        address oldAddress;\n\n        if (contractType == ContractType.Collateralizer) {\n            oldAddress = address(collateralizer);\n            validateNewAddress(newAddress, oldAddress);\n            collateralizer = Collateralizer(newAddress);\n        } else if (contractType == ContractType.DebtKernel) {\n            oldAddress = address(debtKernel);\n            validateNewAddress(newAddress, oldAddress);\n            debtKernel = DebtKernel(newAddress);\n        } else if (contractType == ContractType.DebtRegistry) {\n            oldAddress = address(debtRegistry);\n            validateNewAddress(newAddress, oldAddress);\n            debtRegistry = DebtRegistry(newAddress);\n        } else if (contractType == ContractType.DebtToken) {\n            oldAddress = address(debtToken);\n            validateNewAddress(newAddress, oldAddress);\n            debtToken = DebtToken(newAddress);\n        } else if (contractType == ContractType.RepaymentRouter) {\n            oldAddress = address(repaymentRouter);\n            validateNewAddress(newAddress, oldAddress);\n            repaymentRouter = RepaymentRouter(newAddress);\n        } else if (contractType == ContractType.TokenRegistry) {\n            oldAddress = address(tokenRegistry);\n            validateNewAddress(newAddress, oldAddress);\n            tokenRegistry = TokenRegistry(newAddress);\n        } else if (contractType == ContractType.TokenTransferProxy) {\n            oldAddress = address(tokenTransferProxy);\n            validateNewAddress(newAddress, oldAddress);\n            tokenTransferProxy = TokenTransferProxy(newAddress);\n        } else {\n            revert();\n        }\n\n        emit ContractAddressUpdated(contractType, oldAddress, newAddress);\n    }\n\n    function validateNewAddress(\n        address newAddress,\n        address oldAddress\n    )\n        internal\n        pure\n    {\n        require(newAddress != address(0)); // new address cannot be null address.\n        require(newAddress != oldAddress); // new address cannot be existing address.\n    }\n}\n",
  "sourcePath": "/home/niraj/Desktop/customcognito/contracts/ContractRegistry.sol",
  "compiler": {
    "name": "solc",
    "version": "0.5.16+commit.9c3226ce.Emscripten.clang"
  },
  "schemaVersion": "3.3.1",
  "updatedAt": "2020-11-09T08:10:46.639Z",
  "devdoc": {
    "methods": {
      "renounceOwnership()": {
        "details": "Allows the current owner to relinquish control of the contract."
      },
      "transferOwnership(address)": {
        "details": "Allows the current owner to transfer control of the contract to a newOwner.",
        "params": {
          "newOwner": "The address to transfer ownership to."
        }
      }
    }
  },
  "userdoc": {
    "methods": {}
  }
}