{
  "contractName": "DebtToken",
  "abi": [
    {
      "inputs": [
        {
          "internalType": "address",
          "name": "_registry",
          "type": "address"
        }
      ],
      "payable": false,
      "stateMutability": "nonpayable",
      "type": "constructor"
    },
    {
      "anonymous": false,
      "inputs": [
        {
          "indexed": true,
          "internalType": "address",
          "name": "owner",
          "type": "address"
        },
        {
          "indexed": true,
          "internalType": "address",
          "name": "approved",
          "type": "address"
        },
        {
          "indexed": true,
          "internalType": "uint256",
          "name": "tokenId",
          "type": "uint256"
        }
      ],
      "name": "Approval",
      "type": "event"
    },
    {
      "anonymous": false,
      "inputs": [
        {
          "indexed": true,
          "internalType": "address",
          "name": "owner",
          "type": "address"
        },
        {
          "indexed": true,
          "internalType": "address",
          "name": "operator",
          "type": "address"
        },
        {
          "indexed": false,
          "internalType": "bool",
          "name": "approved",
          "type": "bool"
        }
      ],
      "name": "ApprovalForAll",
      "type": "event"
    },
    {
      "anonymous": false,
      "inputs": [
        {
          "indexed": true,
          "internalType": "address",
          "name": "agent",
          "type": "address"
        },
        {
          "indexed": false,
          "internalType": "string",
          "name": "callingContext",
          "type": "string"
        }
      ],
      "name": "AuthorizationRevoked",
      "type": "event"
    },
    {
      "anonymous": false,
      "inputs": [
        {
          "indexed": true,
          "internalType": "address",
          "name": "agent",
          "type": "address"
        },
        {
          "indexed": false,
          "internalType": "string",
          "name": "callingContext",
          "type": "string"
        }
      ],
      "name": "Authorized",
      "type": "event"
    },
    {
      "anonymous": false,
      "inputs": [
        {
          "indexed": true,
          "internalType": "address",
          "name": "previousOwner",
          "type": "address"
        }
      ],
      "name": "OwnershipRenounced",
      "type": "event"
    },
    {
      "anonymous": false,
      "inputs": [
        {
          "indexed": true,
          "internalType": "address",
          "name": "previousOwner",
          "type": "address"
        },
        {
          "indexed": true,
          "internalType": "address",
          "name": "newOwner",
          "type": "address"
        }
      ],
      "name": "OwnershipTransferred",
      "type": "event"
    },
    {
      "anonymous": false,
      "inputs": [],
      "name": "Pause",
      "type": "event"
    },
    {
      "anonymous": false,
      "inputs": [
        {
          "indexed": true,
          "internalType": "address",
          "name": "from",
          "type": "address"
        },
        {
          "indexed": true,
          "internalType": "address",
          "name": "to",
          "type": "address"
        },
        {
          "indexed": true,
          "internalType": "uint256",
          "name": "tokenId",
          "type": "uint256"
        }
      ],
      "name": "Transfer",
      "type": "event"
    },
    {
      "anonymous": false,
      "inputs": [],
      "name": "Unpause",
      "type": "event"
    },
    {
      "constant": true,
      "inputs": [],
      "name": "CREATION_CONTEXT",
      "outputs": [
        {
          "internalType": "string",
          "name": "",
          "type": "string"
        }
      ],
      "payable": false,
      "stateMutability": "view",
      "type": "function"
    },
    {
      "constant": true,
      "inputs": [],
      "name": "URI_CONTEXT",
      "outputs": [
        {
          "internalType": "string",
          "name": "",
          "type": "string"
        }
      ],
      "payable": false,
      "stateMutability": "view",
      "type": "function"
    },
    {
      "constant": true,
      "inputs": [
        {
          "internalType": "address",
          "name": "owner",
          "type": "address"
        }
      ],
      "name": "balanceOf",
      "outputs": [
        {
          "internalType": "uint256",
          "name": "",
          "type": "uint256"
        }
      ],
      "payable": false,
      "stateMutability": "view",
      "type": "function"
    },
    {
      "constant": true,
      "inputs": [],
      "name": "baseURI",
      "outputs": [
        {
          "internalType": "string",
          "name": "",
          "type": "string"
        }
      ],
      "payable": false,
      "stateMutability": "view",
      "type": "function"
    },
    {
      "constant": true,
      "inputs": [
        {
          "internalType": "uint256",
          "name": "tokenId",
          "type": "uint256"
        }
      ],
      "name": "getApproved",
      "outputs": [
        {
          "internalType": "address",
          "name": "",
          "type": "address"
        }
      ],
      "payable": false,
      "stateMutability": "view",
      "type": "function"
    },
    {
      "constant": true,
      "inputs": [
        {
          "internalType": "address",
          "name": "owner",
          "type": "address"
        },
        {
          "internalType": "address",
          "name": "operator",
          "type": "address"
        }
      ],
      "name": "isApprovedForAll",
      "outputs": [
        {
          "internalType": "bool",
          "name": "",
          "type": "bool"
        }
      ],
      "payable": false,
      "stateMutability": "view",
      "type": "function"
    },
    {
      "constant": true,
      "inputs": [],
      "name": "name",
      "outputs": [
        {
          "internalType": "string",
          "name": "",
          "type": "string"
        }
      ],
      "payable": false,
      "stateMutability": "view",
      "type": "function"
    },
    {
      "constant": true,
      "inputs": [],
      "name": "owner",
      "outputs": [
        {
          "internalType": "address",
          "name": "",
          "type": "address"
        }
      ],
      "payable": false,
      "stateMutability": "view",
      "type": "function"
    },
    {
      "constant": true,
      "inputs": [
        {
          "internalType": "uint256",
          "name": "tokenId",
          "type": "uint256"
        }
      ],
      "name": "ownerOf",
      "outputs": [
        {
          "internalType": "address",
          "name": "",
          "type": "address"
        }
      ],
      "payable": false,
      "stateMutability": "view",
      "type": "function"
    },
    {
      "constant": false,
      "inputs": [],
      "name": "pause",
      "outputs": [],
      "payable": false,
      "stateMutability": "nonpayable",
      "type": "function"
    },
    {
      "constant": true,
      "inputs": [],
      "name": "paused",
      "outputs": [
        {
          "internalType": "bool",
          "name": "",
          "type": "bool"
        }
      ],
      "payable": false,
      "stateMutability": "view",
      "type": "function"
    },
    {
      "constant": true,
      "inputs": [],
      "name": "registry",
      "outputs": [
        {
          "internalType": "contract DebtRegistry",
          "name": "",
          "type": "address"
        }
      ],
      "payable": false,
      "stateMutability": "view",
      "type": "function"
    },
    {
      "constant": false,
      "inputs": [],
      "name": "renounceOwnership",
      "outputs": [],
      "payable": false,
      "stateMutability": "nonpayable",
      "type": "function"
    },
    {
      "constant": true,
      "inputs": [],
      "name": "symbol",
      "outputs": [
        {
          "internalType": "string",
          "name": "",
          "type": "string"
        }
      ],
      "payable": false,
      "stateMutability": "view",
      "type": "function"
    },
    {
      "constant": true,
      "inputs": [
        {
          "internalType": "uint256",
          "name": "index",
          "type": "uint256"
        }
      ],
      "name": "tokenByIndex",
      "outputs": [
        {
          "internalType": "uint256",
          "name": "",
          "type": "uint256"
        }
      ],
      "payable": false,
      "stateMutability": "view",
      "type": "function"
    },
    {
      "constant": true,
      "inputs": [
        {
          "internalType": "address",
          "name": "owner",
          "type": "address"
        },
        {
          "internalType": "uint256",
          "name": "index",
          "type": "uint256"
        }
      ],
      "name": "tokenOfOwnerByIndex",
      "outputs": [
        {
          "internalType": "uint256",
          "name": "",
          "type": "uint256"
        }
      ],
      "payable": false,
      "stateMutability": "view",
      "type": "function"
    },
    {
      "constant": true,
      "inputs": [
        {
          "internalType": "uint256",
          "name": "tokenId",
          "type": "uint256"
        }
      ],
      "name": "tokenURI",
      "outputs": [
        {
          "internalType": "string",
          "name": "",
          "type": "string"
        }
      ],
      "payable": false,
      "stateMutability": "view",
      "type": "function"
    },
    {
      "constant": true,
      "inputs": [],
      "name": "totalSupply",
      "outputs": [
        {
          "internalType": "uint256",
          "name": "",
          "type": "uint256"
        }
      ],
      "payable": false,
      "stateMutability": "view",
      "type": "function"
    },
    {
      "constant": false,
      "inputs": [
        {
          "internalType": "address",
          "name": "newOwner",
          "type": "address"
        }
      ],
      "name": "transferOwnership",
      "outputs": [],
      "payable": false,
      "stateMutability": "nonpayable",
      "type": "function"
    },
    {
      "constant": false,
      "inputs": [],
      "name": "unpause",
      "outputs": [],
      "payable": false,
      "stateMutability": "nonpayable",
      "type": "function"
    },
    {
      "constant": true,
      "inputs": [
        {
          "internalType": "bytes4",
          "name": "interfaceID",
          "type": "bytes4"
        }
      ],
      "name": "supportsInterface",
      "outputs": [
        {
          "internalType": "bool",
          "name": "_isSupported",
          "type": "bool"
        }
      ],
      "payable": false,
      "stateMutability": "view",
      "type": "function"
    },
    {
      "constant": false,
      "inputs": [
        {
          "internalType": "address",
          "name": "_version",
          "type": "address"
        },
        {
          "internalType": "address",
          "name": "_beneficiary",
          "type": "address"
        },
        {
          "internalType": "address",
          "name": "_debtor",
          "type": "address"
        },
        {
          "internalType": "address",
          "name": "_underwriter",
          "type": "address"
        },
        {
          "internalType": "uint256",
          "name": "_underwriterRiskRating",
          "type": "uint256"
        },
        {
          "internalType": "address",
          "name": "_termsContract",
          "type": "address"
        },
        {
          "internalType": "bytes32",
          "name": "_termsContractParameters",
          "type": "bytes32"
        },
        {
          "internalType": "uint256",
          "name": "_salt",
          "type": "uint256"
        }
      ],
      "name": "create",
      "outputs": [
        {
          "internalType": "uint256",
          "name": "_tokenId",
          "type": "uint256"
        }
      ],
      "payable": false,
      "stateMutability": "nonpayable",
      "type": "function"
    },
    {
      "constant": false,
      "inputs": [
        {
          "internalType": "address",
          "name": "_agent",
          "type": "address"
        }
      ],
      "name": "addAuthorizedMintAgent",
      "outputs": [],
      "payable": false,
      "stateMutability": "nonpayable",
      "type": "function"
    },
    {
      "constant": false,
      "inputs": [
        {
          "internalType": "address",
          "name": "_agent",
          "type": "address"
        }
      ],
      "name": "revokeMintAgentAuthorization",
      "outputs": [],
      "payable": false,
      "stateMutability": "nonpayable",
      "type": "function"
    },
    {
      "constant": true,
      "inputs": [],
      "name": "getAuthorizedMintAgents",
      "outputs": [
        {
          "internalType": "address[]",
          "name": "_agents",
          "type": "address[]"
        }
      ],
      "payable": false,
      "stateMutability": "view",
      "type": "function"
    },
    {
      "constant": false,
      "inputs": [
        {
          "internalType": "address",
          "name": "_agent",
          "type": "address"
        }
      ],
      "name": "addAuthorizedTokenURIAgent",
      "outputs": [],
      "payable": false,
      "stateMutability": "nonpayable",
      "type": "function"
    },
    {
      "constant": true,
      "inputs": [],
      "name": "getAuthorizedTokenURIAgents",
      "outputs": [
        {
          "internalType": "address[]",
          "name": "_agents",
          "type": "address[]"
        }
      ],
      "payable": false,
      "stateMutability": "view",
      "type": "function"
    },
    {
      "constant": false,
      "inputs": [
        {
          "internalType": "address",
          "name": "_agent",
          "type": "address"
        }
      ],
      "name": "revokeTokenURIAuthorization",
      "outputs": [],
      "payable": false,
      "stateMutability": "nonpayable",
      "type": "function"
    },
    {
      "constant": false,
      "inputs": [
        {
          "internalType": "address",
          "name": "_to",
          "type": "address"
        },
        {
          "internalType": "uint256",
          "name": "_tokenId",
          "type": "uint256"
        }
      ],
      "name": "approve",
      "outputs": [],
      "payable": false,
      "stateMutability": "nonpayable",
      "type": "function"
    },
    {
      "constant": false,
      "inputs": [
        {
          "internalType": "address",
          "name": "_to",
          "type": "address"
        },
        {
          "internalType": "bool",
          "name": "_approved",
          "type": "bool"
        }
      ],
      "name": "setApprovalForAll",
      "outputs": [],
      "payable": false,
      "stateMutability": "nonpayable",
      "type": "function"
    },
    {
      "constant": false,
      "inputs": [
        {
          "internalType": "address",
          "name": "_to",
          "type": "address"
        },
        {
          "internalType": "uint256",
          "name": "_tokenId",
          "type": "uint256"
        }
      ],
      "name": "transfer",
      "outputs": [],
      "payable": false,
      "stateMutability": "nonpayable",
      "type": "function"
    },
    {
      "constant": false,
      "inputs": [
        {
          "internalType": "address",
          "name": "_from",
          "type": "address"
        },
        {
          "internalType": "address",
          "name": "_to",
          "type": "address"
        },
        {
          "internalType": "uint256",
          "name": "_tokenId",
          "type": "uint256"
        }
      ],
      "name": "transferFrom",
      "outputs": [],
      "payable": false,
      "stateMutability": "nonpayable",
      "type": "function"
    },
    {
      "constant": false,
      "inputs": [
        {
          "internalType": "address",
          "name": "_from",
          "type": "address"
        },
        {
          "internalType": "address",
          "name": "_to",
          "type": "address"
        },
        {
          "internalType": "uint256",
          "name": "_tokenId",
          "type": "uint256"
        }
      ],
      "name": "safeTransferFrom",
      "outputs": [],
      "payable": false,
      "stateMutability": "nonpayable",
      "type": "function"
    },
    {
      "constant": false,
      "inputs": [
        {
          "internalType": "address",
          "name": "_from",
          "type": "address"
        },
        {
          "internalType": "address",
          "name": "_to",
          "type": "address"
        },
        {
          "internalType": "uint256",
          "name": "_tokenId",
          "type": "uint256"
        },
        {
          "internalType": "bytes",
          "name": "_data",
          "type": "bytes"
        }
      ],
      "name": "safeTransferFrom",
      "outputs": [],
      "payable": false,
      "stateMutability": "nonpayable",
      "type": "function"
    },
    {
      "constant": false,
      "inputs": [
        {
          "internalType": "uint256",
          "name": "_tokenId",
          "type": "uint256"
        },
        {
          "internalType": "string",
          "name": "_uri",
          "type": "string"
        }
      ],
      "name": "setTokenURI",
      "outputs": [],
      "payable": false,
      "stateMutability": "nonpayable",
      "type": "function"
    }
  ],
  "bytecode": "0x60806040526000600960146101000a81548160ff0219169083151502179055503480156200002c57600080fd5b506040516200466638038062004666833981810160405260208110156200005257600080fd5b81019080805190602001909291905050506040518060400160405280600981526020017f44656274546f6b656e00000000000000000000000000000000000000000000008152506040518060400160405280600381526020017f44445400000000000000000000000000000000000000000000000000000000008152508160059080519060200190620000e79291906200018c565b508060069080519060200190620001009291906200018c565b50505033600960006101000a81548173ffffffffffffffffffffffffffffffffffffffff021916908373ffffffffffffffffffffffffffffffffffffffff16021790555080600a60006101000a81548173ffffffffffffffffffffffffffffffffffffffff021916908373ffffffffffffffffffffffffffffffffffffffff160217905550506200023b565b828054600181600116156101000203166002900490600052602060002090601f016020900481019282601f10620001cf57805160ff191683800117855562000200565b8280016001018555821562000200579182015b82811115620001ff578251825591602001919060010190620001e2565b5b5090506200020f919062000213565b5090565b6200023891905b80821115620002345760008160009055506001016200021a565b5090565b90565b61441b806200024b6000396000f3fe608060405234801561001057600080fd5b50600436106102105760003560e01c80636352211e1161012557806399f10501116100ad578063b5c2f7ea1161007c578063b5c2f7ea14610ca2578063b88d4fde14610d25578063c87b56dd14610e2a578063e985e9c514610ed1578063f2fde38b14610f4d57610210565b806399f1050114610ac95780639c0d9c4314610bc0578063a22cb46514610c04578063a9059cbb14610c5457610210565b80637b103999116100f45780637b1039991461096457806381ac3fbc146109ae5780638456cb59146109f25780638da5cb5b146109fc57806395d89b4114610a4657610210565b80636352211e146108115780636c0360eb1461087f57806370a0823114610902578063715018a61461095a57610210565b80631fe23d7f116101a857806333d261771161017757806333d26177146106f15780633f4ba83a1461073557806342842e0e1461073f5780634f6ccce7146107ad5780635c975abb146107ef57610210565b80631fe23d7f1461053f57806321d37127146105c257806323b872dd146106215780632f745c591461068f57610210565b8063081812fc116101e4578063081812fc146103a0578063095ea7b31461040e578063162094c41461045c57806318160ddd1461052157610210565b8062b0aeae1461021557806301ffc9a7146102595780630343e122146102be57806306fdde031461031d575b600080fd5b6102576004803603602081101561022b57600080fd5b81019080803573ffffffffffffffffffffffffffffffffffffffff169060200190929190505050610f91565b005b6102a46004803603602081101561026f57600080fd5b8101908080357bffffffffffffffffffffffffffffffffffffffffffffffffffffffff19169060200190929190505050611039565b604051808215151515815260200191505060405180910390f35b6102c661106b565b6040518080602001828103825283818151815260200191508051906020019060200280838360005b838110156103095780820151818401526020810190506102ee565b505050509050019250505060405180910390f35b61032561107c565b6040518080602001828103825283818151815260200191508051906020019080838360005b8381101561036557808201518184015260208101905061034a565b50505050905090810190601f1680156103925780820380516001836020036101000a031916815260200191505b509250505060405180910390f35b6103cc600480360360208110156103b657600080fd5b810190808035906020019092919050505061111e565b604051808273ffffffffffffffffffffffffffffffffffffffff1673ffffffffffffffffffffffffffffffffffffffff16815260200191505060405180910390f35b61045a6004803603604081101561042457600080fd5b81019080803573ffffffffffffffffffffffffffffffffffffffff169060200190929190803590602001909291905050506111b9565b005b61051f6004803603604081101561047257600080fd5b81019080803590602001909291908035906020019064010000000081111561049957600080fd5b8201836020820111156104ab57600080fd5b803590602001918460018302840111640100000000831117156104cd57600080fd5b91908080601f016020809104026020016040519081016040528093929190818152602001838380828437600081840152601f19601f8201169050808301925050505050505091929192905050506111e1565b005b610529611226565b6040518082815260200191505060405180910390f35b610547611237565b6040518080602001828103825283818151815260200191508051906020019080838360005b8381101561058757808201518184015260208101905061056c565b50505050905090810190601f1680156105b45780820380516001836020036101000a031916815260200191505b509250505060405180910390f35b6105ca611270565b6040518080602001828103825283818151815260200191508051906020019060200280838360005b8381101561060d5780820151818401526020810190506105f2565b505050509050019250505060405180910390f35b61068d6004803603606081101561063757600080fd5b81019080803573ffffffffffffffffffffffffffffffffffffffff169060200190929190803573ffffffffffffffffffffffffffffffffffffffff16906020019092919080359060200190929190505050611281565b005b6106db600480360360408110156106a557600080fd5b81019080803573ffffffffffffffffffffffffffffffffffffffff169060200190929190803590602001909291905050506112b5565b6040518082815260200191505060405180910390f35b6107336004803603602081101561070757600080fd5b81019080803573ffffffffffffffffffffffffffffffffffffffff16906020019092919050505061130f565b005b61073d6113b7565b005b6107ab6004803603606081101561075557600080fd5b81019080803573ffffffffffffffffffffffffffffffffffffffff169060200190929190803573ffffffffffffffffffffffffffffffffffffffff16906020019092919080359060200190929190505050611473565b005b6107d9600480360360208110156107c357600080fd5b81019080803590602001909291905050506114a7565b6040518082815260200191505060405180910390f35b6107f76114ca565b604051808215151515815260200191505060405180910390f35b61083d6004803603602081101561082757600080fd5b81019080803590602001909291905050506114dd565b604051808273ffffffffffffffffffffffffffffffffffffffff1673ffffffffffffffffffffffffffffffffffffffff16815260200191505060405180910390f35b610887611514565b6040518080602001828103825283818151815260200191508051906020019080838360005b838110156108c75780820151818401526020810190506108ac565b50505050905090810190601f1680156108f45780820380516001836020036101000a031916815260200191505b509250505060405180910390f35b6109446004803603602081101561091857600080fd5b81019080803573ffffffffffffffffffffffffffffffffffffffff1690602001909291905050506115b6565b6040518082815260200191505060405180910390f35b61096261168a565b005b61096c61178d565b604051808273ffffffffffffffffffffffffffffffffffffffff1673ffffffffffffffffffffffffffffffffffffffff16815260200191505060405180910390f35b6109f0600480360360208110156109c457600080fd5b81019080803573ffffffffffffffffffffffffffffffffffffffff1690602001909291905050506117b3565b005b6109fa61185b565b005b610a04611918565b604051808273ffffffffffffffffffffffffffffffffffffffff1673ffffffffffffffffffffffffffffffffffffffff16815260200191505060405180910390f35b610a4e61193e565b6040518080602001828103825283818151815260200191508051906020019080838360005b83811015610a8e578082015181840152602081019050610a73565b50505050905090810190601f168015610abb5780820380516001836020036101000a031916815260200191505b509250505060405180910390f35b610baa6004803603610100811015610ae057600080fd5b81019080803573ffffffffffffffffffffffffffffffffffffffff169060200190929190803573ffffffffffffffffffffffffffffffffffffffff169060200190929190803573ffffffffffffffffffffffffffffffffffffffff169060200190929190803573ffffffffffffffffffffffffffffffffffffffff16906020019092919080359060200190929190803573ffffffffffffffffffffffffffffffffffffffff16906020019092919080359060200190929190803590602001909291905050506119e0565b6040518082815260200191505060405180910390f35b610c0260048036036020811015610bd657600080fd5b81019080803573ffffffffffffffffffffffffffffffffffffffff169060200190929190505050611c01565b005b610c5260048036036040811015610c1a57600080fd5b81019080803573ffffffffffffffffffffffffffffffffffffffff169060200190929190803515159060200190929190505050611ca9565b005b610ca060048036036040811015610c6a57600080fd5b81019080803573ffffffffffffffffffffffffffffffffffffffff16906020019092919080359060200190929190505050611cd1565b005b610caa611ce0565b6040518080602001828103825283818151815260200191508051906020019080838360005b83811015610cea578082015181840152602081019050610ccf565b50505050905090810190601f168015610d175780820380516001836020036101000a031916815260200191505b509250505060405180910390f35b610e2860048036036080811015610d3b57600080fd5b81019080803573ffffffffffffffffffffffffffffffffffffffff169060200190929190803573ffffffffffffffffffffffffffffffffffffffff1690602001909291908035906020019092919080359060200190640100000000811115610da257600080fd5b820183602082011115610db457600080fd5b80359060200191846001830284011164010000000083111715610dd657600080fd5b91908080601f016020809104026020016040519081016040528093929190818152602001838380828437600081840152601f19601f820116905080830192505050505050509192919290505050611d19565b005b610e5660048036036020811015610e4057600080fd5b8101908080359060200190929190505050611d4f565b6040518080602001828103825283818151815260200191508051906020019080838360005b83811015610e96578082015181840152602081019050610e7b565b50505050905090810190601f168015610ec35780820380516001836020036101000a031916815260200191505b509250505060405180910390f35b610f3360048036036040811015610ee757600080fd5b81019080803573ffffffffffffffffffffffffffffffffffffffff169060200190929190803573ffffffffffffffffffffffffffffffffffffffff169060200190929190505050612038565b604051808215151515815260200191505060405180910390f35b610f8f60048036036020811015610f6357600080fd5b81019080803573ffffffffffffffffffffffffffffffffffffffff1690602001909291905050506120cc565b005b600960009054906101000a900473ffffffffffffffffffffffffffffffffffffffff1673ffffffffffffffffffffffffffffffffffffffff163373ffffffffffffffffffffffffffffffffffffffff1614610feb57600080fd5b611036816040518060400160405280600e81526020017f646562742d746f6b656e2d757269000000000000000000000000000000000000815250600e6122209092919063ffffffff16565b50565b60006380ac58cd60e01b827bffffffffffffffffffffffffffffffffffffffffffffffffffffffff1916149050919050565b6060611077600b61250c565b905090565b606060058054600181600116156101000203166002900480601f0160208091040260200160405190810160405280929190818152602001828054600181600116156101000203166002900480156111145780601f106110e957610100808354040283529160200191611114565b820191906000526020600020905b8154815290600101906020018083116110f757829003601f168201915b5050505050905090565b60006111298261259e565b61117e576040517f08c379a000000000000000000000000000000000000000000000000000000000815260040180806020018281038252602c8152602001806142e5602c913960400191505060405180910390fd5b6003600083815260200190815260200160002060009054906101000a900473ffffffffffffffffffffffffffffffffffffffff169050919050565b600960149054906101000a900460ff16156111d357600080fd5b6111dd82826125bb565b5050565b600960149054906101000a900460ff16156111fb57600080fd5b61120f33600e6126ff90919063ffffffff16565b61121857600080fd5b6112228282612758565b5050565b600061123260016127e2565b905090565b6040518060400160405280601381526020017f646562742d746f6b656e2d6372656174696f6e0000000000000000000000000081525081565b606061127c600e61250c565b905090565b600960149054906101000a900460ff161561129b57600080fd5b6112a581836127f7565b6112b08383836129a3565b505050565b6000611307826000808673ffffffffffffffffffffffffffffffffffffffff1673ffffffffffffffffffffffffffffffffffffffff168152602001908152602001600020612a1990919063ffffffff16565b905092915050565b600960009054906101000a900473ffffffffffffffffffffffffffffffffffffffff1673ffffffffffffffffffffffffffffffffffffffff163373ffffffffffffffffffffffffffffffffffffffff161461136957600080fd5b6113b4816040518060400160405280600e81526020017f646562742d746f6b656e2d757269000000000000000000000000000000000000815250600e612a339092919063ffffffff16565b50565b600960009054906101000a900473ffffffffffffffffffffffffffffffffffffffff1673ffffffffffffffffffffffffffffffffffffffff163373ffffffffffffffffffffffffffffffffffffffff161461141157600080fd5b600960149054906101000a900460ff1661142a57600080fd5b6000600960146101000a81548160ff0219169083151502179055507f7805862f689e2f13df9f062ff482ad3ad112aca9e0847911ed832e158c525b3360405160405180910390a1565b600960149054906101000a900460ff161561148d57600080fd5b61149781836127f7565b6114a2838383612c10565b505050565b6000806114be836001612c3090919063ffffffff16565b50905080915050919050565b600960149054906101000a900460ff1681565b600061150d8260405180606001604052806029815260200161429a602991396001612c5f9092919063ffffffff16565b9050919050565b606060088054600181600116156101000203166002900480601f0160208091040260200160405190810160405280929190818152602001828054600181600116156101000203166002900480156115ac5780601f10611581576101008083540402835291602001916115ac565b820191906000526020600020905b81548152906001019060200180831161158f57829003601f168201915b5050505050905090565b60008073ffffffffffffffffffffffffffffffffffffffff168273ffffffffffffffffffffffffffffffffffffffff16141561163d576040517f08c379a000000000000000000000000000000000000000000000000000000000815260040180806020018281038252602a815260200180614270602a913960400191505060405180910390fd5b6116836000808473ffffffffffffffffffffffffffffffffffffffff1673ffffffffffffffffffffffffffffffffffffffff168152602001908152602001600020612c7e565b9050919050565b600960009054906101000a900473ffffffffffffffffffffffffffffffffffffffff1673ffffffffffffffffffffffffffffffffffffffff163373ffffffffffffffffffffffffffffffffffffffff16146116e457600080fd5b600960009054906101000a900473ffffffffffffffffffffffffffffffffffffffff1673ffffffffffffffffffffffffffffffffffffffff167ff8df31144d9c2f0f6b59d69b8b98abd5459d07f2742c4df920b25aae33c6482060405160405180910390a26000600960006101000a81548173ffffffffffffffffffffffffffffffffffffffff021916908373ffffffffffffffffffffffffffffffffffffffff160217905550565b600a60009054906101000a900473ffffffffffffffffffffffffffffffffffffffff1681565b600960009054906101000a900473ffffffffffffffffffffffffffffffffffffffff1673ffffffffffffffffffffffffffffffffffffffff163373ffffffffffffffffffffffffffffffffffffffff161461180d57600080fd5b611858816040518060400160405280601381526020017f646562742d746f6b656e2d6372656174696f6e00000000000000000000000000815250600b6122209092919063ffffffff16565b50565b600960009054906101000a900473ffffffffffffffffffffffffffffffffffffffff1673ffffffffffffffffffffffffffffffffffffffff163373ffffffffffffffffffffffffffffffffffffffff16146118b557600080fd5b600960149054906101000a900460ff16156118cf57600080fd5b6001600960146101000a81548160ff0219169083151502179055507f6985a02210a168e66602d3235cb6db0e70f92b3ba4d376a33c0f3d9434bff62560405160405180910390a1565b600960009054906101000a900473ffffffffffffffffffffffffffffffffffffffff1681565b606060068054600181600116156101000203166002900480601f0160208091040260200160405190810160405280929190818152602001828054600181600116156101000203166002900480156119d65780601f106119ab576101008083540402835291602001916119d6565b820191906000526020600020905b8154815290600101906020018083116119b957829003601f168201915b5050505050905090565b6000600960149054906101000a900460ff16156119fc57600080fd5b611a1033600b6126ff90919063ffffffff16565b611a1957600080fd5b6000600a60009054906101000a900473ffffffffffffffffffffffffffffffffffffffff1673ffffffffffffffffffffffffffffffffffffffff1663cf9df5eb8b8b8b8b8b8b8b8b6040518963ffffffff1660e01b8152600401808973ffffffffffffffffffffffffffffffffffffffff1673ffffffffffffffffffffffffffffffffffffffff1681526020018873ffffffffffffffffffffffffffffffffffffffff1673ffffffffffffffffffffffffffffffffffffffff1681526020018773ffffffffffffffffffffffffffffffffffffffff1673ffffffffffffffffffffffffffffffffffffffff1681526020018673ffffffffffffffffffffffffffffffffffffffff1673ffffffffffffffffffffffffffffffffffffffff1681526020018581526020018473ffffffffffffffffffffffffffffffffffffffff1673ffffffffffffffffffffffffffffffffffffffff16815260200183815260200182815260200198505050505050505050602060405180830381600087803b158015611ba457600080fd5b505af1158015611bb8573d6000803e3d6000fd5b505050506040513d6020811015611bce57600080fd5b81019080805190602001909291905050509050611bee898260001c612c93565b8060001c91505098975050505050505050565b600960009054906101000a900473ffffffffffffffffffffffffffffffffffffffff1673ffffffffffffffffffffffffffffffffffffffff163373ffffffffffffffffffffffffffffffffffffffff1614611c5b57600080fd5b611ca6816040518060400160405280601381526020017f646562742d746f6b656e2d6372656174696f6e00000000000000000000000000815250600b612a339092919063ffffffff16565b50565b600960149054906101000a900460ff1615611cc357600080fd5b611ccd8282612e86565b5050565b611cdc338383611473565b5050565b6040518060400160405280600e81526020017f646562742d746f6b656e2d75726900000000000000000000000000000000000081525081565b600960149054906101000a900460ff1615611d3357600080fd5b611d3d82846127f7565b611d498484848461303e565b50505050565b6060611d5a8261259e565b611daf576040517f08c379a000000000000000000000000000000000000000000000000000000000815260040180806020018281038252602f815260200180614366602f913960400191505060405180910390fd5b6060600760008481526020019081526020016000208054600181600116156101000203166002900480601f016020809104026020016040519081016040528092919081815260200182805460018160011615610100020316600290048015611e585780601f10611e2d57610100808354040283529160200191611e58565b820191906000526020600020905b815481529060010190602001808311611e3b57829003601f168201915b50505050509050600060088054600181600116156101000203166002900490501415611e875780915050612033565b600081511115611f60576008816040516020018083805460018160011615610100020316600290048015611ef25780601f10611ed0576101008083540402835291820191611ef2565b820191906000526020600020905b815481529060010190602001808311611ede575b505082805190602001908083835b60208310611f235780518252602082019150602081019050602083039250611f00565b6001836020036101000a03801982511681845116808217855250505050505090500192505050604051602081830303815290604052915050612033565b6008611f6b846130b6565b6040516020018083805460018160011615610100020316600290048015611fc95780601f10611fa7576101008083540402835291820191611fc9565b820191906000526020600020905b815481529060010190602001808311611fb5575b505082805190602001908083835b60208310611ffa5780518252602082019150602081019050602083039250611fd7565b6001836020036101000a038019825116818451168082178552505050505050905001925050506040516020818303038152906040529150505b919050565b6000600460008473ffffffffffffffffffffffffffffffffffffffff1673ffffffffffffffffffffffffffffffffffffffff16815260200190815260200160002060008373ffffffffffffffffffffffffffffffffffffffff1673ffffffffffffffffffffffffffffffffffffffff16815260200190815260200160002060009054906101000a900460ff16905092915050565b600960009054906101000a900473ffffffffffffffffffffffffffffffffffffffff1673ffffffffffffffffffffffffffffffffffffffff163373ffffffffffffffffffffffffffffffffffffffff161461212657600080fd5b600073ffffffffffffffffffffffffffffffffffffffff168173ffffffffffffffffffffffffffffffffffffffff16141561216057600080fd5b8073ffffffffffffffffffffffffffffffffffffffff16600960009054906101000a900473ffffffffffffffffffffffffffffffffffffffff1673ffffffffffffffffffffffffffffffffffffffff167f8be0079c531659141344cd1fd0a4f28419497f9722a3daafe3b4186f6b6457e060405160405180910390a380600960006101000a81548173ffffffffffffffffffffffffffffffffffffffff021916908373ffffffffffffffffffffffffffffffffffffffff16021790555050565b61222a83836126ff565b61223357600080fd5b60008360010160008473ffffffffffffffffffffffffffffffffffffffff1673ffffffffffffffffffffffffffffffffffffffff168152602001908152602001600020549050600060018560020180549050039050600085600201828154811061229957fe5b9060005260206000200160009054906101000a900473ffffffffffffffffffffffffffffffffffffffff1690508560000160008673ffffffffffffffffffffffffffffffffffffffff1673ffffffffffffffffffffffffffffffffffffffff16815260200190815260200160002060006101000a81549060ff02191690558086600201848154811061232757fe5b9060005260206000200160006101000a81548173ffffffffffffffffffffffffffffffffffffffff021916908373ffffffffffffffffffffffffffffffffffffffff160217905550828660010160008373ffffffffffffffffffffffffffffffffffffffff1673ffffffffffffffffffffffffffffffffffffffff168152602001908152602001600020819055508560010160008673ffffffffffffffffffffffffffffffffffffffff1673ffffffffffffffffffffffffffffffffffffffff1681526020019081526020016000206000905585600201828154811061240957fe5b9060005260206000200160006101000a81549073ffffffffffffffffffffffffffffffffffffffff021916905560018660020181818054905003915081612450919061409c565b508473ffffffffffffffffffffffffffffffffffffffff167f0814e4ee85854cea446b4a27a460e5ffb41516230dbc02f226c07907e432241c856040518080602001828103825283818151815260200191508051906020019080838360005b838110156124ca5780820151818401526020810190506124af565b50505050905090810190601f1680156124f75780820380516001836020036101000a031916815260200191505b509250505060405180910390a2505050505050565b60608160020180548060200260200160405190810160405280929190818152602001828054801561259257602002820191906000526020600020905b8160009054906101000a900473ffffffffffffffffffffffffffffffffffffffff1673ffffffffffffffffffffffffffffffffffffffff1681526020019060010190808311612548575b50505050509050919050565b60006125b48260016131e690919063ffffffff16565b9050919050565b60006125c6826114dd565b90508073ffffffffffffffffffffffffffffffffffffffff168373ffffffffffffffffffffffffffffffffffffffff16141561264d576040517f08c379a00000000000000000000000000000000000000000000000000000000081526004018080602001828103825260218152602001806143956021913960400191505060405180910390fd5b8073ffffffffffffffffffffffffffffffffffffffff1661266c613200565b73ffffffffffffffffffffffffffffffffffffffff16148061269b575061269a81612695613200565b612038565b5b6126f0576040517f08c379a00000000000000000000000000000000000000000000000000000000081526004018080602001828103825260388152602001806142386038913960400191505060405180910390fd5b6126fa8383613208565b505050565b60008260000160008373ffffffffffffffffffffffffffffffffffffffff1673ffffffffffffffffffffffffffffffffffffffff16815260200190815260200160002060009054906101000a900460ff16905092915050565b6127618261259e565b6127b6576040517f08c379a000000000000000000000000000000000000000000000000000000000815260040180806020018281038252602c815260200180614311602c913960400191505060405180910390fd5b806007600084815260200190815260200160002090805190602001906127dd9291906140c8565b505050565b60006127f0826000016132c1565b9050919050565b8073ffffffffffffffffffffffffffffffffffffffff16600a60009054906101000a900473ffffffffffffffffffffffffffffffffffffffff1673ffffffffffffffffffffffffffffffffffffffff1663ba20dda48460001b6040518263ffffffff1660e01b81526004018082815260200191505060206040518083038186803b15801561288457600080fd5b505afa158015612898573d6000803e3d6000fd5b505050506040513d60208110156128ae57600080fd5b810190808051906020019092919050505073ffffffffffffffffffffffffffffffffffffffff161461299f57600a60009054906101000a900473ffffffffffffffffffffffffffffffffffffffff1673ffffffffffffffffffffffffffffffffffffffff16635969549e8360001b836040518363ffffffff1660e01b8152600401808381526020018273ffffffffffffffffffffffffffffffffffffffff1673ffffffffffffffffffffffffffffffffffffffff16815260200192505050600060405180830381600087803b15801561298657600080fd5b505af115801561299a573d6000803e3d6000fd5b505050505b5050565b6129b46129ae613200565b826132d2565b612a09576040517f08c379a00000000000000000000000000000000000000000000000000000000081526004018080602001828103825260318152602001806143b66031913960400191505060405180910390fd5b612a148383836133c6565b505050565b6000612a288360000183613607565b60001c905092915050565b612a3d838361368a565b612a4657600080fd5b60018360000160008473ffffffffffffffffffffffffffffffffffffffff1673ffffffffffffffffffffffffffffffffffffffff16815260200190815260200160002060006101000a81548160ff021916908315150217905550826002018290806001815401808255809150509060018203906000526020600020016000909192909190916101000a81548173ffffffffffffffffffffffffffffffffffffffff021916908373ffffffffffffffffffffffffffffffffffffffff1602179055505060018360020180549050038360010160008473ffffffffffffffffffffffffffffffffffffffff1673ffffffffffffffffffffffffffffffffffffffff168152602001908152602001600020819055508173ffffffffffffffffffffffffffffffffffffffff167f571925c699f9072cec76b6c6c000571cc8d0bb5c47e5819202e2e9496c6508b5826040518080602001828103825283818151815260200191508051906020019080838360005b83811015612bd1578082015181840152602081019050612bb6565b50505050905090810190601f168015612bfe5780820380516001836020036101000a031916815260200191505b509250505060405180910390a2505050565b612c2b83838360405180602001604052806000815250611d19565b505050565b600080600080612c43866000018661369f565b915091508160001c8160001c8090509350935050509250929050565b6000612c72846000018460001b84613738565b60001c90509392505050565b6000612c8c8260000161382e565b9050919050565b600073ffffffffffffffffffffffffffffffffffffffff168273ffffffffffffffffffffffffffffffffffffffff161415612d36576040517f08c379a00000000000000000000000000000000000000000000000000000000081526004018080602001828103825260208152602001807f4552433732313a206d696e7420746f20746865207a65726f206164647265737381525060200191505060405180910390fd5b612d3f8161259e565b15612db2576040517f08c379a000000000000000000000000000000000000000000000000000000000815260040180806020018281038252601c8152602001807f4552433732313a20746f6b656e20616c7265616479206d696e7465640000000081525060200191505060405180910390fd5b612dbe6000838361383f565b612e0e816000808573ffffffffffffffffffffffffffffffffffffffff1673ffffffffffffffffffffffffffffffffffffffff16815260200190815260200160002061384490919063ffffffff16565b50612e258183600161385e9092919063ffffffff16565b50808273ffffffffffffffffffffffffffffffffffffffff16600073ffffffffffffffffffffffffffffffffffffffff167fddf252ad1be2c89b69c2b068fc378daa952ba7f163c4a11628f55a4df523b3ef60405160405180910390a45050565b612e8e613200565b73ffffffffffffffffffffffffffffffffffffffff168273ffffffffffffffffffffffffffffffffffffffff161415612f2f576040517f08c379a00000000000000000000000000000000000000000000000000000000081526004018080602001828103825260198152602001807f4552433732313a20617070726f766520746f2063616c6c65720000000000000081525060200191505060405180910390fd5b8060046000612f3c613200565b73ffffffffffffffffffffffffffffffffffffffff1673ffffffffffffffffffffffffffffffffffffffff16815260200190815260200160002060008473ffffffffffffffffffffffffffffffffffffffff1673ffffffffffffffffffffffffffffffffffffffff16815260200190815260200160002060006101000a81548160ff0219169083151502179055508173ffffffffffffffffffffffffffffffffffffffff16612fe9613200565b73ffffffffffffffffffffffffffffffffffffffff167f17307eab39ab6107e8899845ad3d59bd9653f200f220920489ca2b5937696c3183604051808215151515815260200191505060405180910390a35050565b61304f613049613200565b836132d2565b6130a4576040517f08c379a00000000000000000000000000000000000000000000000000000000081526004018080602001828103825260318152602001806143b66031913960400191505060405180910390fd5b6130b084848484613893565b50505050565b606060008214156130fe576040518060400160405280600181526020017f300000000000000000000000000000000000000000000000000000000000000081525090506131e1565b600082905060005b60008214613128578080600101915050600a828161312057fe5b049150613106565b6060816040519080825280601f01601f19166020018201604052801561315d5781602001600182028038833980820191505090505b50905060006001830390508593505b600084146131d957600a848161317e57fe5b0660300160f81b8282806001900393508151811061319857fe5b60200101907effffffffffffffffffffffffffffffffffffffffffffffffffffffffffffff1916908160001a905350600a84816131d157fe5b04935061316c565b819450505050505b919050565b60006131f8836000018360001b613905565b905092915050565b600033905090565b816003600083815260200190815260200160002060006101000a81548173ffffffffffffffffffffffffffffffffffffffff021916908373ffffffffffffffffffffffffffffffffffffffff160217905550808273ffffffffffffffffffffffffffffffffffffffff1661327b836114dd565b73ffffffffffffffffffffffffffffffffffffffff167f8c5be1e5ebec7d5bd14f71427d1e84f3dd0314c0f7b2291e5b200ac8c7c3b92560405160405180910390a45050565b600081600001805490509050919050565b60006132dd8261259e565b613332576040517f08c379a000000000000000000000000000000000000000000000000000000000815260040180806020018281038252602c81526020018061420c602c913960400191505060405180910390fd5b600061333d836114dd565b90508073ffffffffffffffffffffffffffffffffffffffff168473ffffffffffffffffffffffffffffffffffffffff1614806133ac57508373ffffffffffffffffffffffffffffffffffffffff166133948461111e565b73ffffffffffffffffffffffffffffffffffffffff16145b806133bd57506133bc8185612038565b5b91505092915050565b8273ffffffffffffffffffffffffffffffffffffffff166133e6826114dd565b73ffffffffffffffffffffffffffffffffffffffff1614613452576040517f08c379a000000000000000000000000000000000000000000000000000000000815260040180806020018281038252602981526020018061433d6029913960400191505060405180910390fd5b600073ffffffffffffffffffffffffffffffffffffffff168273ffffffffffffffffffffffffffffffffffffffff1614156134d8576040517f08c379a00000000000000000000000000000000000000000000000000000000081526004018080602001828103825260248152602001806141c26024913960400191505060405180910390fd5b6134e383838361383f565b6134ee600082613208565b61353e816000808673ffffffffffffffffffffffffffffffffffffffff1673ffffffffffffffffffffffffffffffffffffffff16815260200190815260200160002061392890919063ffffffff16565b5061358f816000808573ffffffffffffffffffffffffffffffffffffffff1673ffffffffffffffffffffffffffffffffffffffff16815260200190815260200160002061384490919063ffffffff16565b506135a68183600161385e9092919063ffffffff16565b50808273ffffffffffffffffffffffffffffffffffffffff168473ffffffffffffffffffffffffffffffffffffffff167fddf252ad1be2c89b69c2b068fc378daa952ba7f163c4a11628f55a4df523b3ef60405160405180910390a4505050565b600081836000018054905011613668576040517f08c379a000000000000000000000000000000000000000000000000000000000815260040180806020018281038252602281526020018061416e6022913960400191505060405180910390fd5b82600001828154811061367757fe5b9060005260206000200154905092915050565b600061369683836126ff565b15905092915050565b60008082846000018054905011613701576040517f08c379a00000000000000000000000000000000000000000000000000000000081526004018080602001828103825260228152602001806142c36022913960400191505060405180910390fd5b600084600001848154811061371257fe5b906000526020600020906002020190508060000154816001015492509250509250929050565b600080846001016000858152602001908152602001600020549050600081141583906137ff576040517f08c379a00000000000000000000000000000000000000000000000000000000081526004018080602001828103825283818151815260200191508051906020019080838360005b838110156137c45780820151818401526020810190506137a9565b50505050905090810190601f1680156137f15780820380516001836020036101000a031916815260200191505b509250505060405180910390fd5b5084600001600182038154811061381257fe5b9060005260206000209060020201600101549150509392505050565b600081600001805490509050919050565b505050565b6000613856836000018360001b613942565b905092915050565b600061388a846000018460001b8473ffffffffffffffffffffffffffffffffffffffff1660001b6139b5565b90509392505050565b61389e8484846133c6565b6138aa84848484613a94565b6138ff576040517f08c379a00000000000000000000000000000000000000000000000000000000081526004018080602001828103825260328152602001806141906032913960400191505060405180910390fd5b50505050565b600080836001016000848152602001908152602001600020541415905092915050565b600061393a836000018360001b613cf2565b905092915050565b600061394e8383613dda565b6139aa5782600001829080600181540180825580915050906001820390600052602060002001600090919290919091505550826000018054905083600101600084815260200190815260200160002081905550600190506139af565b600090505b92915050565b6000808460010160008581526020019081526020016000205490506000811415613a5f57846000016040518060400160405280868152602001858152509080600181540180825580915050906001820390600052602060002090600202016000909192909190915060008201518160000155602082015181600101555050508460000180549050856001016000868152602001908152602001600020819055506001915050613a8d565b82856000016001830381548110613a7257fe5b90600052602060002090600202016001018190555060009150505b9392505050565b6000613ab58473ffffffffffffffffffffffffffffffffffffffff16613dfd565b613ac25760019050613cea565b6060613c718573ffffffffffffffffffffffffffffffffffffffff1663150b7a02905060e01b613af0613200565b888787604051602401808573ffffffffffffffffffffffffffffffffffffffff1673ffffffffffffffffffffffffffffffffffffffff1681526020018473ffffffffffffffffffffffffffffffffffffffff1673ffffffffffffffffffffffffffffffffffffffff16815260200183815260200180602001828103825283818151815260200191508051906020019080838360005b83811015613ba0578082015181840152602081019050613b85565b50505050905090810190601f168015613bcd5780820380516001836020036101000a031916815260200191505b5095505050505050604051602081830303815290604052907bffffffffffffffffffffffffffffffffffffffffffffffffffffffff19166020820180517bffffffffffffffffffffffffffffffffffffffffffffffffffffffff8381831617835250505050604051806060016040528060328152602001614190603291398773ffffffffffffffffffffffffffffffffffffffff16613e109092919063ffffffff16565b90506000818060200190516020811015613c8a57600080fd5b8101908080519060200190929190505050905063150b7a0260e01b7bffffffffffffffffffffffffffffffffffffffffffffffffffffffff1916817bffffffffffffffffffffffffffffffffffffffffffffffffffffffff191614925050505b949350505050565b60008083600101600084815260200190815260200160002054905060008114613dce5760006001820390506000600186600001805490500390506000866000018281548110613d3d57fe5b9060005260206000200154905080876000018481548110613d5a57fe5b9060005260206000200181905550600183018760010160008381526020019081526020016000208190555086600001805480613d9257fe5b60019003818190600052602060002001600090559055866001016000878152602001908152602001600020600090556001945050505050613dd4565b60009150505b92915050565b600080836001016000848152602001908152602001600020541415905092915050565b600080823b905060008111915050919050565b6060613e1f8484600085613e28565b90509392505050565b606082471015613e83576040517f08c379a00000000000000000000000000000000000000000000000000000000081526004018080602001828103825260268152602001806141e66026913960400191505060405180910390fd5b613e8c85613dfd565b613efe576040517f08c379a000000000000000000000000000000000000000000000000000000000815260040180806020018281038252601d8152602001807f416464726573733a2063616c6c20746f206e6f6e2d636f6e747261637400000081525060200191505060405180910390fd5b600060608673ffffffffffffffffffffffffffffffffffffffff16866040518082805190602001908083835b60208310613f4d5780518252602082019150602081019050602083039250613f2a565b6001836020036101000a0380198251168184511680821785525050505050509050019150506000604051808303816000865af19150503d8060008114613faf576040519150601f19603f3d011682016040523d82523d6000602084013e613fb4565b606091505b5091509150613fc4828286613fd0565b92505050949350505050565b60608315613fe057829050614095565b600083511115613ff35782518084602001fd5b816040517f08c379a00000000000000000000000000000000000000000000000000000000081526004018080602001828103825283818151815260200191508051906020019080838360005b8381101561405a57808201518184015260208101905061403f565b50505050905090810190601f1680156140875780820380516001836020036101000a031916815260200191505b509250505060405180910390fd5b9392505050565b8154818355818111156140c3578183600052602060002091820191016140c29190614148565b5b505050565b828054600181600116156101000203166002900490600052602060002090601f016020900481019282601f1061410957805160ff1916838001178555614137565b82800160010185558215614137579182015b8281111561413657825182559160200191906001019061411b565b5b5090506141449190614148565b5090565b61416a91905b8082111561416657600081600090555060010161414e565b5090565b9056fe456e756d657261626c655365743a20696e646578206f7574206f6620626f756e64734552433732313a207472616e7366657220746f206e6f6e20455243373231526563656976657220696d706c656d656e7465724552433732313a207472616e7366657220746f20746865207a65726f2061646472657373416464726573733a20696e73756666696369656e742062616c616e636520666f722063616c6c4552433732313a206f70657261746f7220717565727920666f72206e6f6e6578697374656e7420746f6b656e4552433732313a20617070726f76652063616c6c6572206973206e6f74206f776e6572206e6f7220617070726f76656420666f7220616c6c4552433732313a2062616c616e636520717565727920666f7220746865207a65726f20616464726573734552433732313a206f776e657220717565727920666f72206e6f6e6578697374656e7420746f6b656e456e756d657261626c654d61703a20696e646578206f7574206f6620626f756e64734552433732313a20617070726f76656420717565727920666f72206e6f6e6578697374656e7420746f6b656e4552433732314d657461646174613a2055524920736574206f66206e6f6e6578697374656e7420746f6b656e4552433732313a207472616e73666572206f6620746f6b656e2074686174206973206e6f74206f776e4552433732314d657461646174613a2055524920717565727920666f72206e6f6e6578697374656e7420746f6b656e4552433732313a20617070726f76616c20746f2063757272656e74206f776e65724552433732313a207472616e736665722063616c6c6572206973206e6f74206f776e6572206e6f7220617070726f766564a265627a7a723158209d81e3790ff7e2ce9b1604e100100353e77a1229bed52ab88cd9f0d3ae32375064736f6c63430005100032",
  "source": "/*\n\n  Copyright 2017 Dharma Labs Inc.\n\n  Licensed under the Apache License, Version 2.0 (the \"License\");\n  you may not use this file except in compliance with the License.\n  You may obtain a copy of the License at\n\n    http://www.apache.org/licenses/LICENSE-2.0\n\n  Unless required by applicable law or agreed to in writing, software\n  distributed under the License is distributed on an \"AS IS\" BASIS,\n  WITHOUT WARRANTIES OR CONDITIONS OF ANY KIND, either express or implied.\n  See the License for the specific language governing permissions and\n  limitations under the License.\n\n*/\n\n// SPDX-License-Identifier: MIT\npragma solidity >=0.4.21 <0.7.0;\n\n// Internal dependencies.\nimport \"./DebtRegistry.sol\";\nimport \"../contracts/ERC165/IERC165.sol\";\nimport { PermissionsLib, PermissionEvents } from \"../contracts/libraries/PermissionsLib.sol\";\n\n// External dependencies.\nimport \"../contracts/lifecycle/Pausable.sol\";\nimport \"../contracts/ERC721/ERC721.sol\";\nimport \"./ERC20.sol\";\n\n\n/**\n * The DebtToken contract governs all business logic for making a debt agreement\n * transferable as an ERC721 non-fungible token.  Additionally, the contract\n * allows authorized contracts to trigger the minting of a debt agreement token\n * and, in turn, the insertion of a debt issuance into the DebtRegsitry.\n *\n * Author: Nadav Hollander -- Github: nadavhollander\n */\n\n \ncontract DebtToken is ERC721, Pausable, PermissionEvents {\n    using PermissionsLib for PermissionsLib.Permissions;\n\n    DebtRegistry public registry;\n\n    PermissionsLib.Permissions internal tokenCreationPermissions;\n    PermissionsLib.Permissions internal tokenURIPermissions;\n\n    string public constant CREATION_CONTEXT = \"debt-token-creation\";\n    string public constant URI_CONTEXT = \"debt-token-uri\";\n\n    /**\n     * Constructor that sets the address of the debt registry.\n     */\n    constructor(address _registry)\n        public\n        ERC721(\"DebtToken\", \"DDT\")\n    {\n        registry = DebtRegistry(_registry);\n    }\n\n    /**\n     * ERC165 interface.\n     * Returns true for ERC721, false otherwise\n     */\n    function supportsInterface(bytes4 interfaceID)\n        external\n        view\n        returns (bool _isSupported)\n    {\n        return interfaceID == 0x80ac58cd; // ERC721\n    }\n\n    /**\n     * Mints a unique debt token and inserts the associated issuance into\n     * the debt registry, if the calling address is authorized to do so.\n     */\n    function create(\n        address _version,\n        address _beneficiary,\n        address _debtor,\n        address _underwriter,\n        uint _underwriterRiskRating,\n        address _termsContract,\n        bytes32 _termsContractParameters,\n        uint _salt\n    )\n        public\n        whenNotPaused\n        returns (uint _tokenId)\n    {\n        require(tokenCreationPermissions.isAuthorized(msg.sender));\n\n        bytes32 entryHash = registry.insert(\n            _version,\n            _beneficiary,\n            _debtor,\n            _underwriter,\n            _underwriterRiskRating,\n            _termsContract,\n            _termsContractParameters,\n            _salt\n        );\n\n        super._mint(_beneficiary, uint(entryHash));\n\n        return uint(entryHash);\n    }\n\n    /**\n     * Adds an address to the list of agents authorized to mint debt tokens.\n     */\n    function addAuthorizedMintAgent(address _agent)\n        public\n        onlyOwner\n    {\n        tokenCreationPermissions.authorize(_agent, CREATION_CONTEXT);\n    }\n\n    /**\n     * Removes an address from the list of agents authorized to mint debt tokens\n     */\n    function revokeMintAgentAuthorization(address _agent)\n        public\n        onlyOwner\n    {\n        tokenCreationPermissions.revokeAuthorization(_agent, CREATION_CONTEXT);\n    }\n\n    /**\n     * Returns the list of agents authorized to mint debt tokens\n     */\n    function getAuthorizedMintAgents()\n        public\n        view\n        returns (address[] memory _agents)\n    {\n        return tokenCreationPermissions.getAuthorizedAgents();\n    }\n\n    /**\n     * Adds an address to the list of agents authorized to set token URIs.\n     */\n    function addAuthorizedTokenURIAgent(address _agent)\n        public\n        onlyOwner\n    {\n        tokenURIPermissions.authorize(_agent, URI_CONTEXT);\n    }\n\n    /**\n     * Returns the list of agents authorized to set token URIs.\n     */\n    function getAuthorizedTokenURIAgents()\n        public\n        view\n        returns (address[] memory _agents)\n    {\n        return tokenURIPermissions.getAuthorizedAgents();\n    }\n\n    /**\n     * Removes an address from the list of agents authorized to set token URIs.\n     */\n    function revokeTokenURIAuthorization(address _agent)\n        public\n        onlyOwner\n    {\n        tokenURIPermissions.revokeAuthorization(_agent, URI_CONTEXT);\n    }\n\n    /**\n     * We override approval method of the parent ERC721Token\n     * contract to allow its functionality to be frozen in the case of an emergency\n     */\n    function approve(address _to, uint _tokenId)\n        public\n        whenNotPaused\n    {\n        super.approve(_to, _tokenId);\n    }\n\n    /**\n     * We override setApprovalForAll method of the parent ERC721Token\n     * contract to allow its functionality to be frozen in the case of an emergency\n     */\n    function setApprovalForAll(address _to, bool _approved)\n        public\n        whenNotPaused\n    {\n        super.setApprovalForAll(_to, _approved);\n    }\n\n    /**\n     * Support deprecated ERC721 method\n     */\n    function transfer(address _to, uint _tokenId)\n        public\n    {\n        safeTransferFrom(msg.sender, _to, _tokenId);\n    }\n\n    /**\n     * We override transferFrom methods of the parent ERC721Token\n     * contract to allow its functionality to be frozen in the case of an emergency\n     */\n    function transferFrom(address _from, address _to, uint _tokenId)\n        public\n        whenNotPaused\n    {\n        _modifyBeneficiary(_tokenId, _to);\n        super.transferFrom(_from, _to, _tokenId);\n    }\n\n    /**\n     * We override safeTransferFrom methods of the parent ERC721Token\n     * contract to allow its functionality to be frozen in the case of an emergency\n     */\n    function safeTransferFrom(address _from, address _to, uint _tokenId)\n        public\n        whenNotPaused\n    {\n        _modifyBeneficiary(_tokenId, _to);\n        super.safeTransferFrom(_from, _to, _tokenId);\n    }\n\n    /**\n     * We override safeTransferFrom methods of the parent ERC721Token\n     * contract to allow its functionality to be frozen in the case of an emergency\n     */\n    function safeTransferFrom(address _from, address _to, uint _tokenId, bytes memory _data)\n        public\n        whenNotPaused\n    {\n        _modifyBeneficiary(_tokenId, _to);\n        super.safeTransferFrom(_from, _to, _tokenId, _data);\n    }\n\n    /**\n     * Allows senders with special permissions to set the token URI for a given debt token.\n     */\n    function setTokenURI(uint256 _tokenId, string memory _uri)\n        public\n        whenNotPaused\n    {\n        require(tokenURIPermissions.isAuthorized(msg.sender));\n        super._setTokenURI(_tokenId, _uri);\n    }\n\n    /**\n     * _modifyBeneficiary mutates the debt registry. This function should be\n     * called every time a token is transferred or minted\n     */\n    function _modifyBeneficiary(uint _tokenId, address _to)\n        internal\n    {\n        if (registry.getBeneficiary(bytes32(_tokenId)) != _to) {\n            registry.modifyBeneficiary(bytes32(_tokenId), _to);\n        }\n    }\n}\n",
  "sourcePath": "/home/niraj/Desktop/customcognito/contracts/DebtToken.sol",
  "compiler": {
    "name": "solc",
    "version": "0.5.16+commit.9c3226ce.Emscripten.clang"
  },
  "schemaVersion": "3.3.1",
  "updatedAt": "2020-11-09T08:10:46.803Z",
  "devdoc": {
    "methods": {
      "balanceOf(address)": {
        "details": "See {IERC721-balanceOf}."
      },
      "baseURI()": {
        "details": "Returns the base URI set via {_setBaseURI}. This will be automatically added as a prefix in {tokenURI} to each token's URI, or to the token ID if no specific URI is set for that token ID."
      },
      "getApproved(uint256)": {
        "details": "See {IERC721-getApproved}."
      },
      "isApprovedForAll(address,address)": {
        "details": "See {IERC721-isApprovedForAll}."
      },
      "name()": {
        "details": "See {IERC721Metadata-name}."
      },
      "ownerOf(uint256)": {
        "details": "See {IERC721-ownerOf}."
      },
      "pause()": {
        "details": "called by the owner to pause, triggers stopped state"
      },
      "renounceOwnership()": {
        "details": "Allows the current owner to relinquish control of the contract."
      },
      "symbol()": {
        "details": "See {IERC721Metadata-symbol}."
      },
      "tokenByIndex(uint256)": {
        "details": "See {IERC721Enumerable-tokenByIndex}."
      },
      "tokenOfOwnerByIndex(address,uint256)": {
        "details": "See {IERC721Enumerable-tokenOfOwnerByIndex}."
      },
      "tokenURI(uint256)": {
        "details": "See {IERC721Metadata-tokenURI}."
      },
      "totalSupply()": {
        "details": "See {IERC721Enumerable-totalSupply}."
      },
      "transferOwnership(address)": {
        "details": "Allows the current owner to transfer control of the contract to a newOwner.",
        "params": {
          "newOwner": "The address to transfer ownership to."
        }
      },
      "unpause()": {
        "details": "called by the owner to unpause, returns to normal state"
      }
    }
  },
  "userdoc": {
    "methods": {
      "addAuthorizedMintAgent(address)": {
        "notice": "Adds an address to the list of agents authorized to mint debt tokens."
      },
      "addAuthorizedTokenURIAgent(address)": {
        "notice": "Adds an address to the list of agents authorized to set token URIs."
      },
      "approve(address,uint256)": {
        "notice": "We override approval method of the parent ERC721Token contract to allow its functionality to be frozen in the case of an emergency"
      },
      "constructor": "Constructor that sets the address of the debt registry.",
      "create(address,address,address,address,uint256,address,bytes32,uint256)": {
        "notice": "Mints a unique debt token and inserts the associated issuance into the debt registry, if the calling address is authorized to do so."
      },
      "getAuthorizedMintAgents()": {
        "notice": "Returns the list of agents authorized to mint debt tokens"
      },
      "getAuthorizedTokenURIAgents()": {
        "notice": "Returns the list of agents authorized to set token URIs."
      },
      "revokeMintAgentAuthorization(address)": {
        "notice": "Removes an address from the list of agents authorized to mint debt tokens"
      },
      "revokeTokenURIAuthorization(address)": {
        "notice": "Removes an address from the list of agents authorized to set token URIs."
      },
      "safeTransferFrom(address,address,uint256)": {
        "notice": "We override safeTransferFrom methods of the parent ERC721Token contract to allow its functionality to be frozen in the case of an emergency"
      },
      "safeTransferFrom(address,address,uint256,bytes)": {
        "notice": "We override safeTransferFrom methods of the parent ERC721Token contract to allow its functionality to be frozen in the case of an emergency"
      },
      "setApprovalForAll(address,bool)": {
        "notice": "We override setApprovalForAll method of the parent ERC721Token contract to allow its functionality to be frozen in the case of an emergency"
      },
      "setTokenURI(uint256,string)": {
        "notice": "Allows senders with special permissions to set the token URI for a given debt token."
      },
      "supportsInterface(bytes4)": {
        "notice": "ERC165 interface. Returns true for ERC721, false otherwise"
      },
      "transfer(address,uint256)": {
        "notice": "Support deprecated ERC721 method"
      },
      "transferFrom(address,address,uint256)": {
        "notice": "We override transferFrom methods of the parent ERC721Token contract to allow its functionality to be frozen in the case of an emergency"
      }
    },
    "notice": "The DebtToken contract governs all business logic for making a debt agreement transferable as an ERC721 non-fungible token.  Additionally, the contract allows authorized contracts to trigger the minting of a debt agreement token and, in turn, the insertion of a debt issuance into the DebtRegsitry. * Author: Nadav Hollander -- Github: nadavhollander"
  }
}