{
  "contractName": "DharmaMultiSigWallet",
  "abi": [
    {
      "inputs": [
        {
          "internalType": "address[]",
          "name": "_owners",
          "type": "address[]"
        },
        {
          "internalType": "uint256",
          "name": "_required",
          "type": "uint256"
        },
        {
          "internalType": "uint256",
          "name": "_timelockInSeconds",
          "type": "uint256"
        }
      ],
      "payable": false,
      "stateMutability": "nonpayable",
      "type": "constructor"
    },
    {
      "anonymous": false,
      "inputs": [
        {
          "indexed": true,
          "internalType": "address",
          "name": "sender",
          "type": "address"
        },
        {
          "indexed": true,
          "internalType": "uint256",
          "name": "transactionId",
          "type": "uint256"
        }
      ],
      "name": "Confirmation",
      "type": "event"
    },
    {
      "anonymous": false,
      "inputs": [
        {
          "indexed": true,
          "internalType": "uint256",
          "name": "transactionId",
          "type": "uint256"
        },
        {
          "indexed": false,
          "internalType": "uint256",
          "name": "confirmationTime",
          "type": "uint256"
        }
      ],
      "name": "ConfirmationTimeSet",
      "type": "event"
    },
    {
      "anonymous": false,
      "inputs": [
        {
          "indexed": true,
          "internalType": "address",
          "name": "sender",
          "type": "address"
        },
        {
          "indexed": false,
          "internalType": "uint256",
          "name": "value",
          "type": "uint256"
        }
      ],
      "name": "Deposit",
      "type": "event"
    },
    {
      "anonymous": false,
      "inputs": [
        {
          "indexed": true,
          "internalType": "uint256",
          "name": "transactionId",
          "type": "uint256"
        }
      ],
      "name": "Execution",
      "type": "event"
    },
    {
      "anonymous": false,
      "inputs": [
        {
          "indexed": true,
          "internalType": "uint256",
          "name": "transactionId",
          "type": "uint256"
        }
      ],
      "name": "ExecutionFailure",
      "type": "event"
    },
    {
      "anonymous": false,
      "inputs": [
        {
          "indexed": true,
          "internalType": "address",
          "name": "owner",
          "type": "address"
        }
      ],
      "name": "OwnerAddition",
      "type": "event"
    },
    {
      "anonymous": false,
      "inputs": [
        {
          "indexed": true,
          "internalType": "address",
          "name": "owner",
          "type": "address"
        }
      ],
      "name": "OwnerRemoval",
      "type": "event"
    },
    {
      "anonymous": false,
      "inputs": [
        {
          "indexed": false,
          "internalType": "uint256",
          "name": "required",
          "type": "uint256"
        }
      ],
      "name": "RequirementChange",
      "type": "event"
    },
    {
      "anonymous": false,
      "inputs": [
        {
          "indexed": true,
          "internalType": "address",
          "name": "sender",
          "type": "address"
        },
        {
          "indexed": true,
          "internalType": "uint256",
          "name": "transactionId",
          "type": "uint256"
        }
      ],
      "name": "Revocation",
      "type": "event"
    },
    {
      "anonymous": false,
      "inputs": [
        {
          "indexed": true,
          "internalType": "uint256",
          "name": "transactionId",
          "type": "uint256"
        }
      ],
      "name": "Submission",
      "type": "event"
    },
    {
      "anonymous": false,
      "inputs": [
        {
          "indexed": false,
          "internalType": "uint256",
          "name": "timelockInSeconds",
          "type": "uint256"
        }
      ],
      "name": "TimeLockChange",
      "type": "event"
    },
    {
      "payable": true,
      "stateMutability": "payable",
      "type": "fallback"
    },
    {
      "constant": true,
      "inputs": [],
      "name": "MAX_OWNER_COUNT",
      "outputs": [
        {
          "internalType": "uint256",
          "name": "",
          "type": "uint256"
        }
      ],
      "payable": false,
      "stateMutability": "view",
      "type": "function"
    },
    {
      "constant": false,
      "inputs": [
        {
          "internalType": "address",
          "name": "owner",
          "type": "address"
        }
      ],
      "name": "addOwner",
      "outputs": [],
      "payable": false,
      "stateMutability": "nonpayable",
      "type": "function"
    },
    {
      "constant": false,
      "inputs": [
        {
          "internalType": "uint256",
          "name": "_required",
          "type": "uint256"
        }
      ],
      "name": "changeRequirement",
      "outputs": [],
      "payable": false,
      "stateMutability": "nonpayable",
      "type": "function"
    },
    {
      "constant": true,
      "inputs": [
        {
          "internalType": "uint256",
          "name": "",
          "type": "uint256"
        },
        {
          "internalType": "address",
          "name": "",
          "type": "address"
        }
      ],
      "name": "confirmations",
      "outputs": [
        {
          "internalType": "bool",
          "name": "",
          "type": "bool"
        }
      ],
      "payable": false,
      "stateMutability": "view",
      "type": "function"
    },
    {
      "constant": true,
      "inputs": [
        {
          "internalType": "uint256",
          "name": "transactionId",
          "type": "uint256"
        }
      ],
      "name": "getConfirmationCount",
      "outputs": [
        {
          "internalType": "uint256",
          "name": "count",
          "type": "uint256"
        }
      ],
      "payable": false,
      "stateMutability": "view",
      "type": "function"
    },
    {
      "constant": true,
      "inputs": [
        {
          "internalType": "uint256",
          "name": "transactionId",
          "type": "uint256"
        }
      ],
      "name": "getConfirmations",
      "outputs": [
        {
          "internalType": "address[]",
          "name": "_confirmations",
          "type": "address[]"
        }
      ],
      "payable": false,
      "stateMutability": "view",
      "type": "function"
    },
    {
      "constant": true,
      "inputs": [],
      "name": "getOwners",
      "outputs": [
        {
          "internalType": "address[]",
          "name": "",
          "type": "address[]"
        }
      ],
      "payable": false,
      "stateMutability": "view",
      "type": "function"
    },
    {
      "constant": true,
      "inputs": [
        {
          "internalType": "bool",
          "name": "pending",
          "type": "bool"
        },
        {
          "internalType": "bool",
          "name": "executed",
          "type": "bool"
        }
      ],
      "name": "getTransactionCount",
      "outputs": [
        {
          "internalType": "uint256",
          "name": "count",
          "type": "uint256"
        }
      ],
      "payable": false,
      "stateMutability": "view",
      "type": "function"
    },
    {
      "constant": true,
      "inputs": [
        {
          "internalType": "uint256",
          "name": "from",
          "type": "uint256"
        },
        {
          "internalType": "uint256",
          "name": "to",
          "type": "uint256"
        },
        {
          "internalType": "bool",
          "name": "pending",
          "type": "bool"
        },
        {
          "internalType": "bool",
          "name": "executed",
          "type": "bool"
        }
      ],
      "name": "getTransactionIds",
      "outputs": [
        {
          "internalType": "uint256[]",
          "name": "_transactionIds",
          "type": "uint256[]"
        }
      ],
      "payable": false,
      "stateMutability": "view",
      "type": "function"
    },
    {
      "constant": true,
      "inputs": [
        {
          "internalType": "uint256",
          "name": "transactionId",
          "type": "uint256"
        }
      ],
      "name": "isConfirmed",
      "outputs": [
        {
          "internalType": "bool",
          "name": "",
          "type": "bool"
        }
      ],
      "payable": false,
      "stateMutability": "view",
      "type": "function"
    },
    {
      "constant": true,
      "inputs": [
        {
          "internalType": "address",
          "name": "",
          "type": "address"
        }
      ],
      "name": "isOwner",
      "outputs": [
        {
          "internalType": "bool",
          "name": "",
          "type": "bool"
        }
      ],
      "payable": false,
      "stateMutability": "view",
      "type": "function"
    },
    {
      "constant": true,
      "inputs": [
        {
          "internalType": "uint256",
          "name": "",
          "type": "uint256"
        }
      ],
      "name": "owners",
      "outputs": [
        {
          "internalType": "address",
          "name": "",
          "type": "address"
        }
      ],
      "payable": false,
      "stateMutability": "view",
      "type": "function"
    },
    {
      "constant": false,
      "inputs": [
        {
          "internalType": "address",
          "name": "owner",
          "type": "address"
        }
      ],
      "name": "removeOwner",
      "outputs": [],
      "payable": false,
      "stateMutability": "nonpayable",
      "type": "function"
    },
    {
      "constant": false,
      "inputs": [
        {
          "internalType": "address",
          "name": "owner",
          "type": "address"
        },
        {
          "internalType": "address",
          "name": "newOwner",
          "type": "address"
        }
      ],
      "name": "replaceOwner",
      "outputs": [],
      "payable": false,
      "stateMutability": "nonpayable",
      "type": "function"
    },
    {
      "constant": true,
      "inputs": [],
      "name": "required",
      "outputs": [
        {
          "internalType": "uint256",
          "name": "",
          "type": "uint256"
        }
      ],
      "payable": false,
      "stateMutability": "view",
      "type": "function"
    },
    {
      "constant": false,
      "inputs": [
        {
          "internalType": "address",
          "name": "destination",
          "type": "address"
        },
        {
          "internalType": "uint256",
          "name": "value",
          "type": "uint256"
        },
        {
          "internalType": "bytes",
          "name": "data",
          "type": "bytes"
        }
      ],
      "name": "submitTransaction",
      "outputs": [
        {
          "internalType": "uint256",
          "name": "transactionId",
          "type": "uint256"
        }
      ],
      "payable": false,
      "stateMutability": "nonpayable",
      "type": "function"
    },
    {
      "constant": true,
      "inputs": [],
      "name": "timelockInSeconds",
      "outputs": [
        {
          "internalType": "uint256",
          "name": "",
          "type": "uint256"
        }
      ],
      "payable": false,
      "stateMutability": "view",
      "type": "function"
    },
    {
      "constant": true,
      "inputs": [
        {
          "internalType": "uint256",
          "name": "",
          "type": "uint256"
        }
      ],
      "name": "transactionConfirmedBlockTimestamp",
      "outputs": [
        {
          "internalType": "uint256",
          "name": "",
          "type": "uint256"
        }
      ],
      "payable": false,
      "stateMutability": "view",
      "type": "function"
    },
    {
      "constant": true,
      "inputs": [],
      "name": "transactionCount",
      "outputs": [
        {
          "internalType": "uint256",
          "name": "",
          "type": "uint256"
        }
      ],
      "payable": false,
      "stateMutability": "view",
      "type": "function"
    },
    {
      "constant": true,
      "inputs": [
        {
          "internalType": "uint256",
          "name": "",
          "type": "uint256"
        }
      ],
      "name": "transactions",
      "outputs": [
        {
          "internalType": "address",
          "name": "destination",
          "type": "address"
        },
        {
          "internalType": "uint256",
          "name": "value",
          "type": "uint256"
        },
        {
          "internalType": "bytes",
          "name": "data",
          "type": "bytes"
        },
        {
          "internalType": "bool",
          "name": "executed",
          "type": "bool"
        }
      ],
      "payable": false,
      "stateMutability": "view",
      "type": "function"
    },
    {
      "constant": false,
      "inputs": [
        {
          "internalType": "uint256",
          "name": "_timelockInSeconds",
          "type": "uint256"
        }
      ],
      "name": "changeTimeLock",
      "outputs": [],
      "payable": false,
      "stateMutability": "nonpayable",
      "type": "function"
    },
    {
      "constant": false,
      "inputs": [
        {
          "internalType": "uint256",
          "name": "transactionId",
          "type": "uint256"
        }
      ],
      "name": "confirmTransaction",
      "outputs": [],
      "payable": false,
      "stateMutability": "nonpayable",
      "type": "function"
    },
    {
      "constant": false,
      "inputs": [
        {
          "internalType": "uint256",
          "name": "transactionId",
          "type": "uint256"
        }
      ],
      "name": "revokeConfirmation",
      "outputs": [],
      "payable": false,
      "stateMutability": "nonpayable",
      "type": "function"
    },
    {
      "constant": false,
      "inputs": [
        {
          "internalType": "uint256",
          "name": "transactionId",
          "type": "uint256"
        }
      ],
      "name": "executeTransaction",
      "outputs": [],
      "payable": false,
      "stateMutability": "nonpayable",
      "type": "function"
    },
    {
      "constant": false,
      "inputs": [
        {
          "internalType": "uint256",
          "name": "transactionId",
          "type": "uint256"
        }
      ],
      "name": "executePauseTransactionImmediately",
      "outputs": [],
      "payable": false,
      "stateMutability": "nonpayable",
      "type": "function"
    }
  ],
  "bytecode": "0x60806040523480156200001157600080fd5b5060405162002a8538038062002a85833981810160405260608110156200003757600080fd5b81019080805160405193929190846401000000008211156200005857600080fd5b838201915060208201858111156200006f57600080fd5b82518660208202830111640100000000821117156200008d57600080fd5b8083526020830192505050908051906020019060200280838360005b83811015620000c6578082015181840152602081019050620000a9565b505050509050016040526020018051906020019092919080519060200190929190505050828281518160328211158015620001015750818111155b80156200010f575060008114155b80156200011d575060008214155b6200012757600080fd5b60008090505b84518110156200026b57600260008683815181106200014857fe5b602002602001015173ffffffffffffffffffffffffffffffffffffffff1673ffffffffffffffffffffffffffffffffffffffff16815260200190815260200160002060009054906101000a900460ff16158015620001e75750600073ffffffffffffffffffffffffffffffffffffffff16858281518110620001c657fe5b602002602001015173ffffffffffffffffffffffffffffffffffffffff1614155b620001f157600080fd5b6001600260008784815181106200020457fe5b602002602001015173ffffffffffffffffffffffffffffffffffffffff1673ffffffffffffffffffffffffffffffffffffffff16815260200190815260200160002060006101000a81548160ff02191690831515021790555080806001019150506200012d565b50836003908051906020019062000284929190620002a0565b5082600481905550505050508060068190555050505062000375565b8280548282559060005260206000209081019282156200031c579160200282015b828111156200031b5782518260006101000a81548173ffffffffffffffffffffffffffffffffffffffff021916908373ffffffffffffffffffffffffffffffffffffffff16021790555091602001919060010190620002c1565b5b5090506200032b91906200032f565b5090565b6200037291905b808211156200036e57600081816101000a81549073ffffffffffffffffffffffffffffffffffffffff02191690555060010162000336565b5090565b90565b61270080620003856000396000f3fe6080604052600436106101665760003560e01c80638b51d13f116100d1578063ba51a6df1161008a578063d74f8edd11610064578063d74f8edd14610a31578063dc8452cd14610a5c578063e20056e614610a87578063ee22610b14610af857610166565b8063ba51a6df146108b5578063c01a8c84146108f0578063c64274741461092b57610166565b80638b51d13f146105945780639ace38c2146105e3578063a0e67e2b146106dc578063a8abe69a14610748578063b5dc40c3146107fa578063b77bf6001461088a57610166565b80633411c81c116101235780633411c81c146103ba578063547415251461042d5780637065cb481461048a578063733e1b68146104db578063784547a7146105065780637ad28c511461055957610166565b8063025e7c27146101c0578063173825d91461023b57806319b83a7b1461028c57806320ea8d86146102db578063215ff46f146103165780632f54bf6e14610351575b60003411156101be573373ffffffffffffffffffffffffffffffffffffffff167fe1fffcc4923d04b559f4d29a8bfc6cda04eb5b0d3c460751c2402c5c5cc9109c346040518082815260200191505060405180910390a25b005b3480156101cc57600080fd5b506101f9600480360360208110156101e357600080fd5b8101908080359060200190929190505050610b33565b604051808273ffffffffffffffffffffffffffffffffffffffff1673ffffffffffffffffffffffffffffffffffffffff16815260200191505060405180910390f35b34801561024757600080fd5b5061028a6004803603602081101561025e57600080fd5b81019080803573ffffffffffffffffffffffffffffffffffffffff169060200190929190505050610b6f565b005b34801561029857600080fd5b506102c5600480360360208110156102af57600080fd5b8101908080359060200190929190505050610dfd565b6040518082815260200191505060405180910390f35b3480156102e757600080fd5b50610314600480360360208110156102fe57600080fd5b8101908080359060200190929190505050610e15565b005b34801561032257600080fd5b5061034f6004803603602081101561033957600080fd5b8101908080359060200190929190505050610fcc565b005b34801561035d57600080fd5b506103a06004803603602081101561037457600080fd5b81019080803573ffffffffffffffffffffffffffffffffffffffff1690602001909291905050506110e2565b604051808215151515815260200191505060405180910390f35b3480156103c657600080fd5b50610413600480360360408110156103dd57600080fd5b8101908080359060200190929190803573ffffffffffffffffffffffffffffffffffffffff169060200190929190505050611102565b604051808215151515815260200191505060405180910390f35b34801561043957600080fd5b506104746004803603604081101561045057600080fd5b81019080803515159060200190929190803515159060200190929190505050611131565b6040518082815260200191505060405180910390f35b34801561049657600080fd5b506104d9600480360360208110156104ad57600080fd5b81019080803573ffffffffffffffffffffffffffffffffffffffff1690602001909291905050506111c3565b005b3480156104e757600080fd5b506104f06113d6565b6040518082815260200191505060405180910390f35b34801561051257600080fd5b5061053f6004803603602081101561052957600080fd5b81019080803590602001909291905050506113dc565b604051808215151515815260200191505060405180910390f35b34801561056557600080fd5b506105926004803603602081101561057c57600080fd5b81019080803590602001909291905050506114c1565b005b3480156105a057600080fd5b506105cd600480360360208110156105b757600080fd5b810190808035906020019092919050505061153a565b6040518082815260200191505060405180910390f35b3480156105ef57600080fd5b5061061c6004803603602081101561060657600080fd5b8101908080359060200190929190505050611603565b604051808573ffffffffffffffffffffffffffffffffffffffff1673ffffffffffffffffffffffffffffffffffffffff1681526020018481526020018060200183151515158152602001828103825284818151815260200191508051906020019080838360005b8381101561069e578082015181840152602081019050610683565b50505050905090810190601f1680156106cb5780820380516001836020036101000a031916815260200191505b509550505050505060405180910390f35b3480156106e857600080fd5b506106f16116f8565b6040518080602001828103825283818151815260200191508051906020019060200280838360005b83811015610734578082015181840152602081019050610719565b505050509050019250505060405180910390f35b34801561075457600080fd5b506107a36004803603608081101561076b57600080fd5b810190808035906020019092919080359060200190929190803515159060200190929190803515159060200190929190505050611786565b6040518080602001828103825283818151815260200191508051906020019060200280838360005b838110156107e65780820151818401526020810190506107cb565b505050509050019250505060405180910390f35b34801561080657600080fd5b506108336004803603602081101561081d57600080fd5b81019080803590602001909291905050506118f8565b6040518080602001828103825283818151815260200191508051906020019060200280838360005b8381101561087657808201518184015260208101905061085b565b505050509050019250505060405180910390f35b34801561089657600080fd5b5061089f611b24565b6040518082815260200191505060405180910390f35b3480156108c157600080fd5b506108ee600480360360208110156108d857600080fd5b8101908080359060200190929190505050611b2a565b005b3480156108fc57600080fd5b506109296004803603602081101561091357600080fd5b8101908080359060200190929190505050611be0565b005b34801561093757600080fd5b50610a1b6004803603606081101561094e57600080fd5b81019080803573ffffffffffffffffffffffffffffffffffffffff169060200190929190803590602001909291908035906020019064010000000081111561099557600080fd5b8201836020820111156109a757600080fd5b803590602001918460018302840111640100000000831117156109c957600080fd5b91908080601f016020809104026020016040519081016040528093929190818152602001838380828437600081840152601f19601f820116905080830192505050505050509192919290505050611df2565b6040518082815260200191505060405180910390f35b348015610a3d57600080fd5b50610a46611e11565b6040518082815260200191505060405180910390f35b348015610a6857600080fd5b50610a71611e16565b6040518082815260200191505060405180910390f35b348015610a9357600080fd5b50610af660048036036040811015610aaa57600080fd5b81019080803573ffffffffffffffffffffffffffffffffffffffff169060200190929190803573ffffffffffffffffffffffffffffffffffffffff169060200190929190505050611e1c565b005b348015610b0457600080fd5b50610b3160048036036020811015610b1b57600080fd5b8101908080359060200190929190505050612126565b005b60038181548110610b4057fe5b906000526020600020016000915054906101000a900473ffffffffffffffffffffffffffffffffffffffff1681565b3073ffffffffffffffffffffffffffffffffffffffff163373ffffffffffffffffffffffffffffffffffffffff1614610ba757600080fd5b80600260008273ffffffffffffffffffffffffffffffffffffffff1673ffffffffffffffffffffffffffffffffffffffff16815260200190815260200160002060009054906101000a900460ff16610bfe57600080fd5b6000600260008473ffffffffffffffffffffffffffffffffffffffff1673ffffffffffffffffffffffffffffffffffffffff16815260200190815260200160002060006101000a81548160ff02191690831515021790555060008090505b600160038054905003811015610d7e578273ffffffffffffffffffffffffffffffffffffffff1660038281548110610c9057fe5b9060005260206000200160009054906101000a900473ffffffffffffffffffffffffffffffffffffffff1673ffffffffffffffffffffffffffffffffffffffff161415610d7157600360016003805490500381548110610cec57fe5b9060005260206000200160009054906101000a900473ffffffffffffffffffffffffffffffffffffffff1660038281548110610d2457fe5b9060005260206000200160006101000a81548173ffffffffffffffffffffffffffffffffffffffff021916908373ffffffffffffffffffffffffffffffffffffffff160217905550610d7e565b8080600101915050610c5c565b506001600381818054905003915081610d9791906125fa565b506003805490506004541115610db657610db5600380549050611b2a565b5b8173ffffffffffffffffffffffffffffffffffffffff167f8001553a916ef2f495d26a907cc54d96ed840d7bda71e73194bf5a9df7a76b9060405160405180910390a25050565b60076020528060005260406000206000915090505481565b33600260008273ffffffffffffffffffffffffffffffffffffffff1673ffffffffffffffffffffffffffffffffffffffff16815260200190815260200160002060009054906101000a900460ff16610e6c57600080fd5b81336001600083815260200190815260200160002060008273ffffffffffffffffffffffffffffffffffffffff1673ffffffffffffffffffffffffffffffffffffffff16815260200190815260200160002060009054906101000a900460ff16610ed557600080fd5b8360008082815260200190815260200160002060030160009054906101000a900460ff1615610f0357600080fd5b84610f0d816113dc565b15610f1757600080fd5b60006001600088815260200190815260200160002060003373ffffffffffffffffffffffffffffffffffffffff1673ffffffffffffffffffffffffffffffffffffffff16815260200190815260200160002060006101000a81548160ff021916908315150217905550853373ffffffffffffffffffffffffffffffffffffffff167ff6a317157440607f36269043eb55f1287a5a19ba2216afeab88cd46cbcfb88e960405160405180910390a3505050505050565b8060008082815260200190815260200160002060030160009054906101000a900460ff1615610ffa57600080fd5b81611004816113dc565b61100d57600080fd5b82600080600083815260200190815260200160002090506110c9816002018054600181600116156101000203166002900480601f0160208091040260200160405190810160405280929190818152602001828054600181600116156101000203166002900480156110bf5780601f10611094576101008083540402835291602001916110bf565b820191906000526020600020905b8154815290600101906020018083116110a257829003601f168201915b505050505061219b565b6110d257600080fd5b6110db85612279565b5050505050565b60026020528060005260406000206000915054906101000a900460ff1681565b60016020528160005260406000206020528060005260406000206000915091509054906101000a900460ff1681565b600080600090505b6005548110156111bc57838015611170575060008082815260200190815260200160002060030160009054906101000a900460ff16155b806111a357508280156111a2575060008082815260200190815260200160002060030160009054906101000a900460ff165b5b156111af576001820191505b8080600101915050611139565b5092915050565b3073ffffffffffffffffffffffffffffffffffffffff163373ffffffffffffffffffffffffffffffffffffffff16146111fb57600080fd5b80600260008273ffffffffffffffffffffffffffffffffffffffff1673ffffffffffffffffffffffffffffffffffffffff16815260200190815260200160002060009054906101000a900460ff161561125357600080fd5b81600073ffffffffffffffffffffffffffffffffffffffff168173ffffffffffffffffffffffffffffffffffffffff16141561128e57600080fd5b600160038054905001600454603282111580156112ab5750818111155b80156112b8575060008114155b80156112c5575060008214155b6112ce57600080fd5b6001600260008773ffffffffffffffffffffffffffffffffffffffff1673ffffffffffffffffffffffffffffffffffffffff16815260200190815260200160002060006101000a81548160ff02191690831515021790555060038590806001815401808255809150509060018203906000526020600020016000909192909190916101000a81548173ffffffffffffffffffffffffffffffffffffffff021916908373ffffffffffffffffffffffffffffffffffffffff160217905550508473ffffffffffffffffffffffffffffffffffffffff167ff39e6e1eb0edcf53c221607b54b00cd28f3196fed0a24994dc308b8f611b682d60405160405180910390a25050505050565b60065481565b6000806000905060008090505b6003805490508110156114b9576001600085815260200190815260200160002060006003838154811061141857fe5b9060005260206000200160009054906101000a900473ffffffffffffffffffffffffffffffffffffffff1673ffffffffffffffffffffffffffffffffffffffff1673ffffffffffffffffffffffffffffffffffffffff16815260200190815260200160002060009054906101000a900460ff1615611497576001820191505b6004548214156114ac576001925050506114bc565b80806001019150506113e9565b50505b919050565b3073ffffffffffffffffffffffffffffffffffffffff163373ffffffffffffffffffffffffffffffffffffffff16146114f957600080fd5b806006819055507fd1c9101a34feff75cccef14a28785a0279cb0b49c1f321f21f5f422e746b4377816040518082815260200191505060405180910390a150565b600080600090505b6003805490508110156115fd576001600084815260200190815260200160002060006003838154811061157157fe5b9060005260206000200160009054906101000a900473ffffffffffffffffffffffffffffffffffffffff1673ffffffffffffffffffffffffffffffffffffffff1673ffffffffffffffffffffffffffffffffffffffff16815260200190815260200160002060009054906101000a900460ff16156115f0576001820191505b8080600101915050611542565b50919050565b60006020528060005260406000206000915090508060000160009054906101000a900473ffffffffffffffffffffffffffffffffffffffff1690806001015490806002018054600181600116156101000203166002900480601f0160208091040260200160405190810160405280929190818152602001828054600181600116156101000203166002900480156116db5780601f106116b0576101008083540402835291602001916116db565b820191906000526020600020905b8154815290600101906020018083116116be57829003601f168201915b5050505050908060030160009054906101000a900460ff16905084565b6060600380548060200260200160405190810160405280929190818152602001828054801561177c57602002820191906000526020600020905b8160009054906101000a900473ffffffffffffffffffffffffffffffffffffffff1673ffffffffffffffffffffffffffffffffffffffff1681526020019060010190808311611732575b5050505050905090565b60608385111561179557600080fd5b60606005546040519080825280602002602001820160405280156117c85781602001602082028038833980820191505090505b509050600080905060008090505b6005548110156118725785801561180d575060008082815260200190815260200160002060030160009054906101000a900460ff16155b80611840575084801561183f575060008082815260200190815260200160002060030160009054906101000a900460ff165b5b15611865578083838151811061185257fe5b6020026020010181815250506001820191505b80806001019150506117d6565b8787036040519080825280602002602001820160405280156118a35781602001602082028038833980820191505090505b5093508790505b868110156118ed578281815181106118be57fe5b602002602001015184898303815181106118d457fe5b60200260200101818152505080806001019150506118aa565b505050949350505050565b60608060038054905060405190808252806020026020018201604052801561192f5781602001602082028038833980820191505090505b509050600080905060008090505b600380549050811015611a76576001600086815260200190815260200160002060006003838154811061196c57fe5b9060005260206000200160009054906101000a900473ffffffffffffffffffffffffffffffffffffffff1673ffffffffffffffffffffffffffffffffffffffff1673ffffffffffffffffffffffffffffffffffffffff16815260200190815260200160002060009054906101000a900460ff1615611a6957600381815481106119f157fe5b9060005260206000200160009054906101000a900473ffffffffffffffffffffffffffffffffffffffff16838381518110611a2857fe5b602002602001019073ffffffffffffffffffffffffffffffffffffffff16908173ffffffffffffffffffffffffffffffffffffffff16815250506001820191505b808060010191505061193d565b81604051908082528060200260200182016040528015611aa55781602001602082028038833980820191505090505b509350600090505b81811015611b1c57828181518110611ac157fe5b6020026020010151848281518110611ad557fe5b602002602001019073ffffffffffffffffffffffffffffffffffffffff16908173ffffffffffffffffffffffffffffffffffffffff16815250508080600101915050611aad565b505050919050565b60055481565b3073ffffffffffffffffffffffffffffffffffffffff163373ffffffffffffffffffffffffffffffffffffffff1614611b6257600080fd5b6003805490508160328211158015611b7a5750818111155b8015611b87575060008114155b8015611b94575060008214155b611b9d57600080fd5b826004819055507fa3f1ee9126a074d9326c682f561767f710e927faa811f7a99829d49dc421797a836040518082815260200191505060405180910390a1505050565b33600260008273ffffffffffffffffffffffffffffffffffffffff1673ffffffffffffffffffffffffffffffffffffffff16815260200190815260200160002060009054906101000a900460ff16611c3757600080fd5b81600073ffffffffffffffffffffffffffffffffffffffff1660008083815260200190815260200160002060000160009054906101000a900473ffffffffffffffffffffffffffffffffffffffff1673ffffffffffffffffffffffffffffffffffffffff161415611ca757600080fd5b82336001600083815260200190815260200160002060008273ffffffffffffffffffffffffffffffffffffffff1673ffffffffffffffffffffffffffffffffffffffff16815260200190815260200160002060009054906101000a900460ff1615611d1157600080fd5b84611d1b816113dc565b15611d2557600080fd5b600180600088815260200190815260200160002060003373ffffffffffffffffffffffffffffffffffffffff1673ffffffffffffffffffffffffffffffffffffffff16815260200190815260200160002060006101000a81548160ff021916908315150217905550853373ffffffffffffffffffffffffffffffffffffffff167f4a504a94899432a9846e1aa406dceb1bcfd538bb839071d49d1e5e23f5be30ef60405160405180910390a3611dda866113dc565b15611dea57611de9864261241a565b5b505050505050565b6000611dff84848461246e565b9050611e0a81611be0565b9392505050565b603281565b60045481565b3073ffffffffffffffffffffffffffffffffffffffff163373ffffffffffffffffffffffffffffffffffffffff1614611e5457600080fd5b81600260008273ffffffffffffffffffffffffffffffffffffffff1673ffffffffffffffffffffffffffffffffffffffff16815260200190815260200160002060009054906101000a900460ff16611eab57600080fd5b81600260008273ffffffffffffffffffffffffffffffffffffffff1673ffffffffffffffffffffffffffffffffffffffff16815260200190815260200160002060009054906101000a900460ff1615611f0357600080fd5b60008090505b600380549050811015611fe9578473ffffffffffffffffffffffffffffffffffffffff1660038281548110611f3a57fe5b9060005260206000200160009054906101000a900473ffffffffffffffffffffffffffffffffffffffff1673ffffffffffffffffffffffffffffffffffffffff161415611fdc578360038281548110611f8f57fe5b9060005260206000200160006101000a81548173ffffffffffffffffffffffffffffffffffffffff021916908373ffffffffffffffffffffffffffffffffffffffff160217905550611fe9565b8080600101915050611f09565b506000600260008673ffffffffffffffffffffffffffffffffffffffff1673ffffffffffffffffffffffffffffffffffffffff16815260200190815260200160002060006101000a81548160ff0219169083151502179055506001600260008573ffffffffffffffffffffffffffffffffffffffff1673ffffffffffffffffffffffffffffffffffffffff16815260200190815260200160002060006101000a81548160ff0219169083151502179055508373ffffffffffffffffffffffffffffffffffffffff167f8001553a916ef2f495d26a907cc54d96ed840d7bda71e73194bf5a9df7a76b9060405160405180910390a28273ffffffffffffffffffffffffffffffffffffffff167ff39e6e1eb0edcf53c221607b54b00cd28f3196fed0a24994dc308b8f611b682d60405160405180910390a250505050565b8060008082815260200190815260200160002060030160009054906101000a900460ff161561215457600080fd5b8161215e816113dc565b61216757600080fd5b8260065460076000838152602001908152602001600020540142101561218c57600080fd5b61219584612279565b50505050565b60008060405180807f706175736528290000000000000000000000000000000000000000000000000081525060070190506040518091039020905060008090505b600481101561226d578181600481106121f157fe5b1a60f81b7effffffffffffffffffffffffffffffffffffffffffffffffffffffffffffff191684828151811061222357fe5b602001015160f81c60f81b7effffffffffffffffffffffffffffffffffffffffffffffffffffffffffffff19161461226057600092505050612274565b80806001019150506121dc565b5060019150505b919050565b6000806000838152602001908152602001600020905060018160030160006101000a81548160ff0219169083151502179055506123948160000160009054906101000a900473ffffffffffffffffffffffffffffffffffffffff16826001015483600201805460018160011615610100020316600290049050846002018054600181600116156101000203166002900480601f01602080910402602001604051908101604052809291908181526020018280546001816001161561010002031660029004801561238a5780601f1061235f5761010080835404028352916020019161238a565b820191906000526020600020905b81548152906001019060200180831161236d57829003601f168201915b50505050506125d3565b156123cb57817f33e13ecb54c3076d8e8bb8c2881800a4d972b792045ffae98fdf46df365fed7560405160405180910390a2612416565b817f526441bb6c1aba3c9a4a6ca1d6545da9c2333c8c48343ef398eb858d72b7923660405160405180910390a260008160030160006101000a81548160ff0219169083151502179055505b5050565b806007600084815260200190815260200160002081905550817f0b237afe65f1514fd7ea3f923ea4fe792bdd07000a912b6cd1602a8e7f573c8d826040518082815260200191505060405180910390a25050565b600083600073ffffffffffffffffffffffffffffffffffffffff168173ffffffffffffffffffffffffffffffffffffffff1614156124ab57600080fd5b600554915060405180608001604052808673ffffffffffffffffffffffffffffffffffffffff1681526020018581526020018481526020016000151581525060008084815260200190815260200160002060008201518160000160006101000a81548173ffffffffffffffffffffffffffffffffffffffff021916908373ffffffffffffffffffffffffffffffffffffffff160217905550602082015181600101556040820151816002019080519060200190612569929190612626565b5060608201518160030160006101000a81548160ff0219169083151502179055509050506001600560008282540192505081905550817fc0ba8fe4b176c1714197d43b9cc6bcf797a4a7461c5fe8d0ef6e184ae7601e5160405160405180910390a2509392505050565b6000806040516020840160008287838a8c6187965a03f19250505080915050949350505050565b8154818355818111156126215781836000526020600020918201910161262091906126a6565b5b505050565b828054600181600116156101000203166002900490600052602060002090601f016020900481019282601f1061266757805160ff1916838001178555612695565b82800160010185558215612695579182015b82811115612694578251825591602001919060010190612679565b5b5090506126a291906126a6565b5090565b6126c891905b808211156126c45760008160009055506001016126ac565b5090565b9056fea265627a7a72315820784d3591532caaf963f4dfdf350a186fa9124eab457a682c18437c391c47664964736f6c63430005100032",
  "source": "/*\n\n  Copyright 2018 Dharma Labs Inc.\n\n  Licensed under the Apache License, Version 2.0 (the \"License\");\n  you may not use this file except in compliance with the License.\n  You may obtain a copy of the License at\n\n    http://www.apache.org/licenses/LICENSE-2.0\n\n  Unless required by applicable law or agreed to in writing, software\n  distributed under the License is distributed on an \"AS IS\" BASIS,\n  WITHOUT WARRANTIES OR CONDITIONS OF ANY KIND, either express or implied.\n  See the License for the specific language governing permissions and\n  limitations under the License.\n\n*/\n\n// SPDX-License-Identifier: MIT\npragma solidity >=0.4.21 <0.7.0;\n\nimport \"./MultiSigWallet.sol\";\n\n\ncontract DharmaMultiSigWallet is MultiSigWallet {\n\n    event ConfirmationTimeSet(uint indexed transactionId, uint confirmationTime);\n    event TimeLockChange(uint timelockInSeconds);\n\n    uint public timelockInSeconds;\n\n    mapping (uint => uint) public transactionConfirmedBlockTimestamp;\n\n    modifier sufficientlyConfirmed(uint transactionId) {\n        require(isConfirmed(transactionId));\n        _;\n    }\n\n    modifier insufficientlyConfirmed(uint transactionId) {\n        require(!isConfirmed(transactionId));\n        _;\n    }\n\n    modifier pastTimeLock(uint transactionId) {\n        require(block.timestamp >= transactionConfirmedBlockTimestamp[transactionId] + timelockInSeconds);\n        _;\n    }\n\n    modifier validPauseTransaction(uint transactionId) {\n        Transaction storage txn = transactions[transactionId];\n\n        require(_isPauseFunctionTransaction(txn.data));\n        _;\n    }\n\n    constructor (\n        address[] memory _owners,\n        uint _required,\n        uint _timelockInSeconds\n    )\n        public\n        MultiSigWallet(_owners, _required)\n    {\n        timelockInSeconds = _timelockInSeconds;\n    }\n\n    ////////////////////////\n    // EXTERNAL FUNCTIONS //\n    ////////////////////////\n\n    /**\n     * Changes the duration of the time lock for transactions.  Can only be called by the wallet.\n     */\n    function changeTimeLock(uint _timelockInSeconds)\n        public\n        onlyWallet\n    {\n        timelockInSeconds = _timelockInSeconds;\n      emit  TimeLockChange(_timelockInSeconds);\n    }\n\n    /**\n     * Allows an owner to confirm a transaction if the transaction has\n     * not yet received a sufficient threshold of confirmations.\n     */\n    function confirmTransaction(uint transactionId)\n        public\n        ownerExists(msg.sender)\n        transactionExists(transactionId)\n        notConfirmed(transactionId, msg.sender)\n        insufficientlyConfirmed(transactionId)\n    {\n        confirmations[transactionId][msg.sender] = true;\n      emit  Confirmation(msg.sender, transactionId);\n\n        // If the transaction is now sufficiently confirmed, we record\n        // the timestamp in order to kick off the timelock period\n        if (isConfirmed(transactionId)) {\n            _setConfirmationTime(transactionId, block.timestamp);\n        }\n    }\n\n    /**\n     * Allows an owner to revoke a confirmation they've submitted\n     * previously for the transaction if the transaction has not\n     * already been sufficiently confirmed (and entered the timelock\n     * period).\n     */\n    function revokeConfirmation(uint transactionId)\n        public\n        ownerExists(msg.sender)\n        confirmed(transactionId, msg.sender)\n        notExecuted(transactionId)\n        insufficientlyConfirmed(transactionId)\n    {\n        confirmations[transactionId][msg.sender] = false;\n      emit  Revocation(msg.sender, transactionId);\n    }\n\n    /**\n     * Allows anyone to execute a transaction if it has been\n     * confirmed and the timelock has passed.\n     */\n    function executeTransaction(uint transactionId)\n        public\n        notExecuted(transactionId)\n        sufficientlyConfirmed(transactionId)\n        pastTimeLock(transactionId)\n    {\n        _executeTransaction(transactionId);\n    }\n\n    /**\n     * In case of an emergency, allows anyone to execute a transaction if it has\n     * been confirmed and matches the \"pause\" function signature WITHOUT waiting\n     * for the timelock to pass.\n     */\n    function executePauseTransactionImmediately(uint transactionId)\n        public\n        notExecuted(transactionId)\n        sufficientlyConfirmed(transactionId)\n        validPauseTransaction(transactionId)\n    {\n        _executeTransaction(transactionId);\n    }\n\n    ////////////////////////\n    // INTERNAL FUNCTIONS //\n    ////////////////////////\n\n    /**\n     * Internal helper function that attempts to execute a confirmed transaction.\n     */\n    function _executeTransaction(uint transactionId)\n        internal\n    {\n        Transaction storage txn = transactions[transactionId];\n        txn.executed = true;\n        if (external_call(txn.destination, txn.value, txn.data.length, txn.data))\n          emit  Execution(transactionId);\n        else {\n         emit   ExecutionFailure(transactionId);\n            txn.executed = false;\n        }\n    }\n\n    /**\n     * Internal function that records the time at which\n     * a transaction reached the minimal threshold of\n     * confirmations.\n     */\n    function _setConfirmationTime(uint transactionId, uint confirmationTime)\n        internal\n    {\n        transactionConfirmedBlockTimestamp[transactionId] = confirmationTime;\n        emit ConfirmationTimeSet(transactionId, confirmationTime);\n    }\n\n    /**\n     * Returns true if the first four bytes of the given data matches\n     * the function selector Method ID for the \"pause\" method --\n     * for more information, see the Ethereum wiki's contract ABI specification:\n     * https://github.com/ethereum/wiki/wiki/Ethereum-Contract-ABI\n     */\n    function _isPauseFunctionTransaction(bytes memory data)\n        internal\n        pure\n        returns (bool)\n    {\n        bytes4 pauseFunctionSignature = bytes4(keccak256(\"pause()\"));\n        for (uint i = 0; i < 4; i++) {\n            if (data[i] != pauseFunctionSignature[i]) {\n                return false;\n            }\n        }\n\n        return true;\n    }\n}\n",
  "sourcePath": "/home/niraj/Desktop/customcognito/contracts/wallet/DharmaMultiSigWallet.sol",
  "compiler": {
    "name": "solc",
    "version": "0.5.16+commit.9c3226ce.Emscripten.clang"
  },
  "schemaVersion": "3.3.1",
  "updatedAt": "2020-11-03T03:30:37.720Z",
  "devdoc": {
    "methods": {
      "addOwner(address)": {
        "details": "Allows to add a new owner. Transaction has to be sent by wallet.",
        "params": {
          "owner": "Address of new owner."
        }
      },
      "changeRequirement(uint256)": {
        "details": "Allows to change the number of required confirmations. Transaction has to be sent by wallet.",
        "params": {
          "_required": "Number of required confirmations."
        }
      },
      "getConfirmationCount(uint256)": {
        "details": "Returns number of confirmations of a transaction.",
        "params": {
          "transactionId": "Transaction ID."
        },
        "return": "Number of confirmations."
      },
      "getConfirmations(uint256)": {
        "details": "Returns array with owner addresses, which confirmed transaction.",
        "params": {
          "transactionId": "Transaction ID."
        },
        "return": "Returns array of owner addresses."
      },
      "getOwners()": {
        "details": "Returns list of owners.",
        "return": "List of owner addresses."
      },
      "getTransactionCount(bool,bool)": {
        "details": "Returns total number of transactions after filers are applied.",
        "params": {
          "executed": "Include executed transactions.",
          "pending": "Include pending transactions."
        },
        "return": "Total number of transactions after filters are applied."
      },
      "getTransactionIds(uint256,uint256,bool,bool)": {
        "details": "Returns list of transaction IDs in defined range.",
        "params": {
          "executed": "Include executed transactions.",
          "from": "Index start position of transaction array.",
          "pending": "Include pending transactions.",
          "to": "Index end position of transaction array."
        },
        "return": "Returns array of transaction IDs."
      },
      "isConfirmed(uint256)": {
        "details": "Returns the confirmation status of a transaction.",
        "params": {
          "transactionId": "Transaction ID."
        },
        "return": "Confirmation status."
      },
      "removeOwner(address)": {
        "details": "Allows to remove an owner. Transaction has to be sent by wallet.",
        "params": {
          "owner": "Address of owner."
        }
      },
      "replaceOwner(address,address)": {
        "details": "Allows to replace an owner with a new owner. Transaction has to be sent by wallet.",
        "params": {
          "newOwner": "Address of new owner.",
          "owner": "Address of owner to be replaced."
        }
      },
      "submitTransaction(address,uint256,bytes)": {
        "details": "Allows an owner to submit and confirm a transaction.",
        "params": {
          "data": "Transaction data payload.",
          "destination": "Transaction target address.",
          "value": "Transaction ether value."
        },
        "return": "Returns transaction ID."
      }
    }
  },
  "userdoc": {
    "methods": {
      "changeTimeLock(uint256)": {
        "notice": "Changes the duration of the time lock for transactions.  Can only be called by the wallet."
      },
      "confirmTransaction(uint256)": {
        "notice": "Allows an owner to confirm a transaction if the transaction has not yet received a sufficient threshold of confirmations."
      },
      "executePauseTransactionImmediately(uint256)": {
        "notice": "In case of an emergency, allows anyone to execute a transaction if it has been confirmed and matches the \"pause\" function signature WITHOUT waiting for the timelock to pass."
      },
      "executeTransaction(uint256)": {
        "notice": "Allows anyone to execute a transaction if it has been confirmed and the timelock has passed."
      },
      "revokeConfirmation(uint256)": {
        "notice": "Allows an owner to revoke a confirmation they've submitted previously for the transaction if the transaction has not already been sufficiently confirmed (and entered the timelock period)."
      }
    }
  }
}