{
  "contractName": "ERC721Collateralizer",
  "abi": [
    {
      "inputs": [
        {
          "internalType": "address",
          "name": "_contractRegistry",
          "type": "address"
        },
        {
          "internalType": "address",
          "name": "_tokenRegistry",
          "type": "address"
        },
        {
          "internalType": "address",
          "name": "_cryptoKittiesContract",
          "type": "address"
        }
      ],
      "payable": false,
      "stateMutability": "nonpayable",
      "type": "constructor"
    },
    {
      "anonymous": false,
      "inputs": [
        {
          "indexed": true,
          "internalType": "address",
          "name": "agent",
          "type": "address"
        },
        {
          "indexed": false,
          "internalType": "string",
          "name": "callingContext",
          "type": "string"
        }
      ],
      "name": "AuthorizationRevoked",
      "type": "event"
    },
    {
      "anonymous": false,
      "inputs": [
        {
          "indexed": true,
          "internalType": "address",
          "name": "agent",
          "type": "address"
        },
        {
          "indexed": false,
          "internalType": "string",
          "name": "callingContext",
          "type": "string"
        }
      ],
      "name": "Authorized",
      "type": "event"
    },
    {
      "anonymous": false,
      "inputs": [
        {
          "indexed": true,
          "internalType": "bytes32",
          "name": "agreementID",
          "type": "bytes32"
        },
        {
          "indexed": true,
          "internalType": "address",
          "name": "erc721Contract",
          "type": "address"
        },
        {
          "indexed": false,
          "internalType": "uint256",
          "name": "tokenID",
          "type": "uint256"
        }
      ],
      "name": "CollateralLocked",
      "type": "event"
    },
    {
      "anonymous": false,
      "inputs": [
        {
          "indexed": true,
          "internalType": "bytes32",
          "name": "agreementID",
          "type": "bytes32"
        },
        {
          "indexed": true,
          "internalType": "address",
          "name": "debtor",
          "type": "address"
        },
        {
          "indexed": false,
          "internalType": "address",
          "name": "erc721Contract",
          "type": "address"
        },
        {
          "indexed": false,
          "internalType": "uint256",
          "name": "tokenID",
          "type": "uint256"
        }
      ],
      "name": "CollateralReturned",
      "type": "event"
    },
    {
      "anonymous": false,
      "inputs": [
        {
          "indexed": true,
          "internalType": "bytes32",
          "name": "agreementID",
          "type": "bytes32"
        },
        {
          "indexed": true,
          "internalType": "address",
          "name": "beneficiary",
          "type": "address"
        },
        {
          "indexed": false,
          "internalType": "address",
          "name": "erc721Contract",
          "type": "address"
        },
        {
          "indexed": false,
          "internalType": "uint256",
          "name": "tokenID",
          "type": "uint256"
        }
      ],
      "name": "CollateralSeized",
      "type": "event"
    },
    {
      "anonymous": false,
      "inputs": [
        {
          "indexed": true,
          "internalType": "address",
          "name": "previousOwner",
          "type": "address"
        }
      ],
      "name": "OwnershipRenounced",
      "type": "event"
    },
    {
      "anonymous": false,
      "inputs": [
        {
          "indexed": true,
          "internalType": "address",
          "name": "previousOwner",
          "type": "address"
        },
        {
          "indexed": true,
          "internalType": "address",
          "name": "newOwner",
          "type": "address"
        }
      ],
      "name": "OwnershipTransferred",
      "type": "event"
    },
    {
      "anonymous": false,
      "inputs": [],
      "name": "Pause",
      "type": "event"
    },
    {
      "anonymous": false,
      "inputs": [],
      "name": "Unpause",
      "type": "event"
    },
    {
      "constant": true,
      "inputs": [],
      "name": "CONTEXT",
      "outputs": [
        {
          "internalType": "string",
          "name": "",
          "type": "string"
        }
      ],
      "payable": false,
      "stateMutability": "view",
      "type": "function"
    },
    {
      "constant": true,
      "inputs": [],
      "name": "SECONDS_IN_DAY",
      "outputs": [
        {
          "internalType": "uint256",
          "name": "",
          "type": "uint256"
        }
      ],
      "payable": false,
      "stateMutability": "view",
      "type": "function"
    },
    {
      "constant": true,
      "inputs": [
        {
          "internalType": "bytes32",
          "name": "",
          "type": "bytes32"
        }
      ],
      "name": "agreementToDebtor",
      "outputs": [
        {
          "internalType": "address",
          "name": "",
          "type": "address"
        }
      ],
      "payable": false,
      "stateMutability": "view",
      "type": "function"
    },
    {
      "constant": true,
      "inputs": [],
      "name": "cryptoKittiesContract",
      "outputs": [
        {
          "internalType": "address",
          "name": "",
          "type": "address"
        }
      ],
      "payable": false,
      "stateMutability": "view",
      "type": "function"
    },
    {
      "constant": true,
      "inputs": [],
      "name": "debtRegistry",
      "outputs": [
        {
          "internalType": "contract DebtRegistry",
          "name": "",
          "type": "address"
        }
      ],
      "payable": false,
      "stateMutability": "view",
      "type": "function"
    },
    {
      "constant": true,
      "inputs": [],
      "name": "owner",
      "outputs": [
        {
          "internalType": "address",
          "name": "",
          "type": "address"
        }
      ],
      "payable": false,
      "stateMutability": "view",
      "type": "function"
    },
    {
      "constant": false,
      "inputs": [],
      "name": "pause",
      "outputs": [],
      "payable": false,
      "stateMutability": "nonpayable",
      "type": "function"
    },
    {
      "constant": true,
      "inputs": [],
      "name": "paused",
      "outputs": [
        {
          "internalType": "bool",
          "name": "",
          "type": "bool"
        }
      ],
      "payable": false,
      "stateMutability": "view",
      "type": "function"
    },
    {
      "constant": false,
      "inputs": [],
      "name": "renounceOwnership",
      "outputs": [],
      "payable": false,
      "stateMutability": "nonpayable",
      "type": "function"
    },
    {
      "constant": true,
      "inputs": [],
      "name": "tokenRegistry",
      "outputs": [
        {
          "internalType": "contract ERC721TokenRegistry",
          "name": "",
          "type": "address"
        }
      ],
      "payable": false,
      "stateMutability": "view",
      "type": "function"
    },
    {
      "constant": false,
      "inputs": [
        {
          "internalType": "address",
          "name": "newOwner",
          "type": "address"
        }
      ],
      "name": "transferOwnership",
      "outputs": [],
      "payable": false,
      "stateMutability": "nonpayable",
      "type": "function"
    },
    {
      "constant": false,
      "inputs": [],
      "name": "unpause",
      "outputs": [],
      "payable": false,
      "stateMutability": "nonpayable",
      "type": "function"
    },
    {
      "constant": false,
      "inputs": [
        {
          "internalType": "bytes32",
          "name": "agreementId",
          "type": "bytes32"
        },
        {
          "internalType": "address",
          "name": "debtor",
          "type": "address"
        }
      ],
      "name": "collateralize",
      "outputs": [
        {
          "internalType": "bool",
          "name": "_success",
          "type": "bool"
        }
      ],
      "payable": false,
      "stateMutability": "nonpayable",
      "type": "function"
    },
    {
      "constant": false,
      "inputs": [
        {
          "internalType": "bytes32",
          "name": "agreementId",
          "type": "bytes32"
        }
      ],
      "name": "returnCollateral",
      "outputs": [],
      "payable": false,
      "stateMutability": "nonpayable",
      "type": "function"
    },
    {
      "constant": false,
      "inputs": [
        {
          "internalType": "bytes32",
          "name": "agreementId",
          "type": "bytes32"
        }
      ],
      "name": "seizeCollateral",
      "outputs": [],
      "payable": false,
      "stateMutability": "nonpayable",
      "type": "function"
    },
    {
      "constant": false,
      "inputs": [
        {
          "internalType": "address",
          "name": "agent",
          "type": "address"
        }
      ],
      "name": "addAuthorizedCollateralizeAgent",
      "outputs": [],
      "payable": false,
      "stateMutability": "nonpayable",
      "type": "function"
    },
    {
      "constant": false,
      "inputs": [
        {
          "internalType": "address",
          "name": "agent",
          "type": "address"
        }
      ],
      "name": "revokeCollateralizeAuthorization",
      "outputs": [],
      "payable": false,
      "stateMutability": "nonpayable",
      "type": "function"
    },
    {
      "constant": true,
      "inputs": [],
      "name": "getAuthorizedCollateralizeAgents",
      "outputs": [
        {
          "internalType": "address[]",
          "name": "",
          "type": "address[]"
        }
      ],
      "payable": false,
      "stateMutability": "view",
      "type": "function"
    },
    {
      "constant": true,
      "inputs": [
        {
          "internalType": "bytes32",
          "name": "parameters",
          "type": "bytes32"
        }
      ],
      "name": "unpackCollateralParametersFromBytes",
      "outputs": [
        {
          "internalType": "bool",
          "name": "",
          "type": "bool"
        },
        {
          "internalType": "uint256",
          "name": "",
          "type": "uint256"
        },
        {
          "internalType": "uint256",
          "name": "",
          "type": "uint256"
        }
      ],
      "payable": false,
      "stateMutability": "pure",
      "type": "function"
    },
    {
      "constant": true,
      "inputs": [
        {
          "internalType": "bytes32",
          "name": "agreementId",
          "type": "bytes32"
        }
      ],
      "name": "retrieveCollateralParameters",
      "outputs": [
        {
          "internalType": "address",
          "name": "_collateralTokenAddress",
          "type": "address"
        },
        {
          "internalType": "uint256",
          "name": "_collateralTokenID",
          "type": "uint256"
        },
        {
          "internalType": "contract TermsContract",
          "name": "_termsContract",
          "type": "address"
        }
      ],
      "payable": false,
      "stateMutability": "view",
      "type": "function"
    }
  ],
  "bytecode": "0x608060405260008060146101000a81548160ff02191690831515021790555034801561002a57600080fd5b5060405162002728380380620027288339818101604052606081101561004f57600080fd5b81019080805190602001909291908051906020019092919080519060200190929190505050336000806101000a81548173ffffffffffffffffffffffffffffffffffffffff021916908373ffffffffffffffffffffffffffffffffffffffff16021790555060008390508073ffffffffffffffffffffffffffffffffffffffff16632f866f736040518163ffffffff1660e01b815260040160206040518083038186803b1580156100ff57600080fd5b505afa158015610113573d6000803e3d6000fd5b505050506040513d602081101561012957600080fd5b8101908080519060200190929190505050600160006101000a81548173ffffffffffffffffffffffffffffffffffffffff021916908373ffffffffffffffffffffffffffffffffffffffff16021790555082600260006101000a81548173ffffffffffffffffffffffffffffffffffffffff021916908373ffffffffffffffffffffffffffffffffffffffff16021790555081600360006101000a81548173ffffffffffffffffffffffffffffffffffffffff021916908373ffffffffffffffffffffffffffffffffffffffff1602179055505050505061251880620002106000396000f3fe608060405234801561001057600080fd5b506004361061012c5760003560e01c8063715018a6116100ad578063ae72c6ef11610071578063ae72c6ef14610528578063ca0626471461056c578063ed8e52bd146105c0578063f2fde38b146105ee578063f466f42e146106325761012c565b8063715018a61461043c5780638456cb59146104465780638da5cb5b146104505780639ae1c1f31461049a5780639d23c4c7146104de5761012c565b80635c975abb116100f45780635c975abb146102de57806361a52a3614610300578063649404bd1461031e578063656e903b146103845780636f16f14a146103f25761012c565b80632e667c4e146101315780632f866f73146101b4578063399f120f146101fe5780633f4ba83a146102a657806344c4ea95146102b0575b600080fd5b610139610691565b6040518080602001828103825283818151815260200191508051906020019080838360005b8381101561017957808201518184015260208101905061015e565b50505050905090810190601f1680156101a65780820380516001836020036101000a031916815260200191505b509250505060405180910390f35b6101bc6106ca565b604051808273ffffffffffffffffffffffffffffffffffffffff1673ffffffffffffffffffffffffffffffffffffffff16815260200191505060405180910390f35b61022a6004803603602081101561021457600080fd5b81019080803590602001909291905050506106f0565b604051808473ffffffffffffffffffffffffffffffffffffffff1673ffffffffffffffffffffffffffffffffffffffff1681526020018381526020018273ffffffffffffffffffffffffffffffffffffffff1673ffffffffffffffffffffffffffffffffffffffff168152602001935050505060405180910390f35b6102ae61093e565b005b6102dc600480360360208110156102c657600080fd5b81019080803590602001909291905050506109f8565b005b6102e6610fd6565b604051808215151515815260200191505060405180910390f35b610308610fe9565b6040518082815260200191505060405180910390f35b61036a6004803603604081101561033457600080fd5b8101908080359060200190929190803573ffffffffffffffffffffffffffffffffffffffff169060200190929190505050610ff0565b604051808215151515815260200191505060405180910390f35b6103b06004803603602081101561039a57600080fd5b810190808035906020019092919050505061136e565b604051808273ffffffffffffffffffffffffffffffffffffffff1673ffffffffffffffffffffffffffffffffffffffff16815260200191505060405180910390f35b6103fa6113a1565b604051808273ffffffffffffffffffffffffffffffffffffffff1673ffffffffffffffffffffffffffffffffffffffff16815260200191505060405180910390f35b6104446113c7565b005b61044e6114c7565b005b610458611583565b604051808273ffffffffffffffffffffffffffffffffffffffff1673ffffffffffffffffffffffffffffffffffffffff16815260200191505060405180910390f35b6104dc600480360360208110156104b057600080fd5b81019080803573ffffffffffffffffffffffffffffffffffffffff1690602001909291905050506115a8565b005b6104e661164f565b604051808273ffffffffffffffffffffffffffffffffffffffff1673ffffffffffffffffffffffffffffffffffffffff16815260200191505060405180910390f35b61056a6004803603602081101561053e57600080fd5b81019080803573ffffffffffffffffffffffffffffffffffffffff169060200190929190505050611675565b005b6105986004803603602081101561058257600080fd5b810190808035906020019092919050505061171c565b6040518084151515158152602001838152602001828152602001935050505060405180910390f35b6105ec600480360360208110156105d657600080fd5b810190808035906020019092919050505061179b565b005b6106306004803603602081101561060457600080fd5b81019080803573ffffffffffffffffffffffffffffffffffffffff169060200190929190505050611d67565b005b61063a611eb8565b6040518080602001828103825283818151815260200191508051906020019060200280838360005b8381101561067d578082015181840152602081019050610662565b505050509050019250505060405180910390f35b6040518060400160405280601481526020017f455243373231436f6c6c61746572616c697a657200000000000000000000000081525081565b600160009054906101000a900473ffffffffffffffffffffffffffffffffffffffff1681565b6000806000806000600160009054906101000a900473ffffffffffffffffffffffffffffffffffffffff1673ffffffffffffffffffffffffffffffffffffffff16636be39bda876040518263ffffffff1660e01b815260040180828152602001915050604080518083038186803b15801561076a57600080fd5b505afa15801561077e573d6000803e3d6000fd5b505050506040513d604081101561079457600080fd5b81019080805190602001909291908051906020019092919050505080925081935050506000806000806107c68561171c565b8094508195508296505050506000600260009054906101000a900473ffffffffffffffffffffffffffffffffffffffff1673ffffffffffffffffffffffffffffffffffffffff16635715c5b7856040518263ffffffff1660e01b81526004018082815260200191505060206040518083038186803b15801561084757600080fd5b505afa15801561085b573d6000803e3d6000fd5b505050506040513d602081101561087157600080fd5b8101908080519060200190929190505050905060008190508515610922578073ffffffffffffffffffffffffffffffffffffffff16634f6ccce7856040518263ffffffff1660e01b81526004018082815260200191505060206040518083038186803b1580156108e057600080fd5b505afa1580156108f4573d6000803e3d6000fd5b505050506040513d602081101561090a57600080fd5b81019080805190602001909291905050509250610926565b8392505b8183899a509a509a5050505050505050509193909250565b6000809054906101000a900473ffffffffffffffffffffffffffffffffffffffff1673ffffffffffffffffffffffffffffffffffffffff163373ffffffffffffffffffffffffffffffffffffffff161461099757600080fd5b600060149054906101000a900460ff166109b057600080fd5b60008060146101000a81548160ff0219169083151502179055507f7805862f689e2f13df9f062ff482ad3ad112aca9e0847911ed832e158c525b3360405160405180910390a1565b600060149054906101000a900460ff1615610a1257600080fd5b6000806000610a20846106f0565b809350819450829550505050600073ffffffffffffffffffffffffffffffffffffffff166004600086815260200190815260200160002060009054906101000a900473ffffffffffffffffffffffffffffffffffffffff1673ffffffffffffffffffffffffffffffffffffffff161415610a9957600080fd5b60006004600086815260200190815260200160002060009054906101000a900473ffffffffffffffffffffffffffffffffffffffff1690506004600086815260200190815260200160002060006101000a81549073ffffffffffffffffffffffffffffffffffffffff02191690558173ffffffffffffffffffffffffffffffffffffffff166303a896a1866040518263ffffffff1660e01b81526004018082815260200191505060206040518083038186803b158015610b5857600080fd5b505afa158015610b6c573d6000803e3d6000fd5b505050506040513d6020811015610b8257600080fd5b81019080805190602001909291905050508273ffffffffffffffffffffffffffffffffffffffff166399114d84878573ffffffffffffffffffffffffffffffffffffffff16632762dd8c8a6040518263ffffffff1660e01b81526004018082815260200191505060206040518083038186803b158015610c0157600080fd5b505afa158015610c15573d6000803e3d6000fd5b505050506040513d6020811015610c2b57600080fd5b81019080805190602001909291905050506040518363ffffffff1660e01b8152600401808381526020018281526020019250505060206040518083038186803b158015610c7757600080fd5b505afa158015610c8b573d6000803e3d6000fd5b505050506040513d6020811015610ca157600080fd5b81019080805190602001909291905050501115610cbd57600080fd5b60008490508473ffffffffffffffffffffffffffffffffffffffff16600360009054906101000a900473ffffffffffffffffffffffffffffffffffffffff1673ffffffffffffffffffffffffffffffffffffffff161415610db8578073ffffffffffffffffffffffffffffffffffffffff1663095ea7b330866040518363ffffffff1660e01b8152600401808373ffffffffffffffffffffffffffffffffffffffff1673ffffffffffffffffffffffffffffffffffffffff16815260200182815260200192505050600060405180830381600087803b158015610d9f57600080fd5b505af1158015610db3573d6000803e3d6000fd5b505050505b8073ffffffffffffffffffffffffffffffffffffffff166323b872dd3084876040518463ffffffff1660e01b8152600401808473ffffffffffffffffffffffffffffffffffffffff1673ffffffffffffffffffffffffffffffffffffffff1681526020018373ffffffffffffffffffffffffffffffffffffffff1673ffffffffffffffffffffffffffffffffffffffff1681526020018281526020019350505050600060405180830381600087803b158015610e7357600080fd5b505af1158015610e87573d6000803e3d6000fd5b505050508173ffffffffffffffffffffffffffffffffffffffff168173ffffffffffffffffffffffffffffffffffffffff16636352211e866040518263ffffffff1660e01b81526004018082815260200191505060206040518083038186803b158015610ef357600080fd5b505afa158015610f07573d6000803e3d6000fd5b505050506040513d6020811015610f1d57600080fd5b810190808051906020019092919050505073ffffffffffffffffffffffffffffffffffffffff1614610f4b57fe5b8173ffffffffffffffffffffffffffffffffffffffff16867f2621540e2b91ca10330d6a7cbd6fb8cab2396f91c4935ad76b1183770819fa1f8787604051808373ffffffffffffffffffffffffffffffffffffffff1673ffffffffffffffffffffffffffffffffffffffff1681526020018281526020019250505060405180910390a3505050505050565b600060149054906101000a900460ff1681565b6201518081565b6000611006336005611ec990919063ffffffff16565b61100f57600080fd5b600060149054906101000a900460ff161561102957600080fd5b6000806000611037866106f0565b8093508194508295505050503373ffffffffffffffffffffffffffffffffffffffff168173ffffffffffffffffffffffffffffffffffffffff161461107b57600080fd5b600073ffffffffffffffffffffffffffffffffffffffff168373ffffffffffffffffffffffffffffffffffffffff1614156110b557600080fd5b600073ffffffffffffffffffffffffffffffffffffffff166004600088815260200190815260200160002060009054906101000a900473ffffffffffffffffffffffffffffffffffffffff1673ffffffffffffffffffffffffffffffffffffffff161461112157600080fd5b846004600088815260200190815260200160002060006101000a81548173ffffffffffffffffffffffffffffffffffffffff021916908373ffffffffffffffffffffffffffffffffffffffff160217905550600083905060003090508173ffffffffffffffffffffffffffffffffffffffff166323b872dd8883876040518463ffffffff1660e01b8152600401808473ffffffffffffffffffffffffffffffffffffffff1673ffffffffffffffffffffffffffffffffffffffff1681526020018373ffffffffffffffffffffffffffffffffffffffff1673ffffffffffffffffffffffffffffffffffffffff1681526020018281526020019350505050600060405180830381600087803b15801561123857600080fd5b505af115801561124c573d6000803e3d6000fd5b505050508073ffffffffffffffffffffffffffffffffffffffff168273ffffffffffffffffffffffffffffffffffffffff16636352211e866040518263ffffffff1660e01b81526004018082815260200191505060206040518083038186803b1580156112b857600080fd5b505afa1580156112cc573d6000803e3d6000fd5b505050506040513d60208110156112e257600080fd5b810190808051906020019092919050505073ffffffffffffffffffffffffffffffffffffffff161461131057fe5b8473ffffffffffffffffffffffffffffffffffffffff16887f38f12634ebefbe7f6767652aae05e220f95e0ca8ef8353c9c9c5ae439a592aec866040518082815260200191505060405180910390a360019550505050505092915050565b60046020528060005260406000206000915054906101000a900473ffffffffffffffffffffffffffffffffffffffff1681565b600360009054906101000a900473ffffffffffffffffffffffffffffffffffffffff1681565b6000809054906101000a900473ffffffffffffffffffffffffffffffffffffffff1673ffffffffffffffffffffffffffffffffffffffff163373ffffffffffffffffffffffffffffffffffffffff161461142057600080fd5b6000809054906101000a900473ffffffffffffffffffffffffffffffffffffffff1673ffffffffffffffffffffffffffffffffffffffff167ff8df31144d9c2f0f6b59d69b8b98abd5459d07f2742c4df920b25aae33c6482060405160405180910390a260008060006101000a81548173ffffffffffffffffffffffffffffffffffffffff021916908373ffffffffffffffffffffffffffffffffffffffff160217905550565b6000809054906101000a900473ffffffffffffffffffffffffffffffffffffffff1673ffffffffffffffffffffffffffffffffffffffff163373ffffffffffffffffffffffffffffffffffffffff161461152057600080fd5b600060149054906101000a900460ff161561153a57600080fd5b6001600060146101000a81548160ff0219169083151502179055507f6985a02210a168e66602d3235cb6db0e70f92b3ba4d376a33c0f3d9434bff62560405160405180910390a1565b6000809054906101000a900473ffffffffffffffffffffffffffffffffffffffff1681565b6000809054906101000a900473ffffffffffffffffffffffffffffffffffffffff1673ffffffffffffffffffffffffffffffffffffffff163373ffffffffffffffffffffffffffffffffffffffff161461160157600080fd5b61164c816040518060400160405280601481526020017f455243373231436f6c6c61746572616c697a65720000000000000000000000008152506005611f229092919063ffffffff16565b50565b600260009054906101000a900473ffffffffffffffffffffffffffffffffffffffff1681565b6000809054906101000a900473ffffffffffffffffffffffffffffffffffffffff1673ffffffffffffffffffffffffffffffffffffffff163373ffffffffffffffffffffffffffffffffffffffff16146116ce57600080fd5b611719816040518060400160405280601481526020017f455243373231436f6c6c61746572616c697a6572000000000000000000000000815250600561220e9092919063ffffffff16565b50565b600080600080600160001b8516905060006d0ffffffffffff00000000000000060001b861690506000670ffffffffffffff060001b8716905060006710000000000000008360001c8161176b57fe5b049050600060108360001c8161177d57fe5b04905060018560001c14828297509750975050505050509193909250565b600060149054906101000a900460ff16156117b557600080fd5b60008060006117c3846106f0565b809350819450829550505050600073ffffffffffffffffffffffffffffffffffffffff166004600086815260200190815260200160002060009054906101000a900473ffffffffffffffffffffffffffffffffffffffff1673ffffffffffffffffffffffffffffffffffffffff16141561183c57600080fd5b6004600085815260200190815260200160002060006101000a81549073ffffffffffffffffffffffffffffffffffffffff02191690558073ffffffffffffffffffffffffffffffffffffffff166303a896a1856040518263ffffffff1660e01b81526004018082815260200191505060206040518083038186803b1580156118c357600080fd5b505afa1580156118d7573d6000803e3d6000fd5b505050506040513d60208110156118ed57600080fd5b81019080805190602001909291905050508173ffffffffffffffffffffffffffffffffffffffff166399114d8486426040518363ffffffff1660e01b8152600401808381526020018281526020019250505060206040518083038186803b15801561195757600080fd5b505afa15801561196b573d6000803e3d6000fd5b505050506040513d602081101561198157600080fd5b81019080805190602001909291905050501161199c57600080fd5b6000600160009054906101000a900473ffffffffffffffffffffffffffffffffffffffff1673ffffffffffffffffffffffffffffffffffffffff1663ba20dda4866040518263ffffffff1660e01b81526004018082815260200191505060206040518083038186803b158015611a1157600080fd5b505afa158015611a25573d6000803e3d6000fd5b505050506040513d6020811015611a3b57600080fd5b8101908080519060200190929190505050905060008490508473ffffffffffffffffffffffffffffffffffffffff16600360009054906101000a900473ffffffffffffffffffffffffffffffffffffffff1673ffffffffffffffffffffffffffffffffffffffff161415611b49578073ffffffffffffffffffffffffffffffffffffffff1663095ea7b330866040518363ffffffff1660e01b8152600401808373ffffffffffffffffffffffffffffffffffffffff1673ffffffffffffffffffffffffffffffffffffffff16815260200182815260200192505050600060405180830381600087803b158015611b3057600080fd5b505af1158015611b44573d6000803e3d6000fd5b505050505b8073ffffffffffffffffffffffffffffffffffffffff166323b872dd3084876040518463ffffffff1660e01b8152600401808473ffffffffffffffffffffffffffffffffffffffff1673ffffffffffffffffffffffffffffffffffffffff1681526020018373ffffffffffffffffffffffffffffffffffffffff1673ffffffffffffffffffffffffffffffffffffffff1681526020018281526020019350505050600060405180830381600087803b158015611c0457600080fd5b505af1158015611c18573d6000803e3d6000fd5b505050508173ffffffffffffffffffffffffffffffffffffffff168173ffffffffffffffffffffffffffffffffffffffff16636352211e866040518263ffffffff1660e01b81526004018082815260200191505060206040518083038186803b158015611c8457600080fd5b505afa158015611c98573d6000803e3d6000fd5b505050506040513d6020811015611cae57600080fd5b810190808051906020019092919050505073ffffffffffffffffffffffffffffffffffffffff1614611cdc57fe5b8173ffffffffffffffffffffffffffffffffffffffff16867f50d195a4b80a950617a8e0e18ac9dd4c0236ac72d5e12355d881443823870d398787604051808373ffffffffffffffffffffffffffffffffffffffff1673ffffffffffffffffffffffffffffffffffffffff1681526020018281526020019250505060405180910390a3505050505050565b6000809054906101000a900473ffffffffffffffffffffffffffffffffffffffff1673ffffffffffffffffffffffffffffffffffffffff163373ffffffffffffffffffffffffffffffffffffffff1614611dc057600080fd5b600073ffffffffffffffffffffffffffffffffffffffff168173ffffffffffffffffffffffffffffffffffffffff161415611dfa57600080fd5b8073ffffffffffffffffffffffffffffffffffffffff166000809054906101000a900473ffffffffffffffffffffffffffffffffffffffff1673ffffffffffffffffffffffffffffffffffffffff167f8be0079c531659141344cd1fd0a4f28419497f9722a3daafe3b4186f6b6457e060405160405180910390a3806000806101000a81548173ffffffffffffffffffffffffffffffffffffffff021916908373ffffffffffffffffffffffffffffffffffffffff16021790555050565b6060611ec460056123eb565b905090565b60008260000160008373ffffffffffffffffffffffffffffffffffffffff1673ffffffffffffffffffffffffffffffffffffffff16815260200190815260200160002060009054906101000a900460ff16905092915050565b611f2c8383611ec9565b611f3557600080fd5b60008360010160008473ffffffffffffffffffffffffffffffffffffffff1673ffffffffffffffffffffffffffffffffffffffff1681526020019081526020016000205490506000600185600201805490500390506000856002018281548110611f9b57fe5b9060005260206000200160009054906101000a900473ffffffffffffffffffffffffffffffffffffffff1690508560000160008673ffffffffffffffffffffffffffffffffffffffff1673ffffffffffffffffffffffffffffffffffffffff16815260200190815260200160002060006101000a81549060ff02191690558086600201848154811061202957fe5b9060005260206000200160006101000a81548173ffffffffffffffffffffffffffffffffffffffff021916908373ffffffffffffffffffffffffffffffffffffffff160217905550828660010160008373ffffffffffffffffffffffffffffffffffffffff1673ffffffffffffffffffffffffffffffffffffffff168152602001908152602001600020819055508560010160008673ffffffffffffffffffffffffffffffffffffffff1673ffffffffffffffffffffffffffffffffffffffff1681526020019081526020016000206000905585600201828154811061210b57fe5b9060005260206000200160006101000a81549073ffffffffffffffffffffffffffffffffffffffff0219169055600186600201818180549050039150816121529190612492565b508473ffffffffffffffffffffffffffffffffffffffff167f0814e4ee85854cea446b4a27a460e5ffb41516230dbc02f226c07907e432241c856040518080602001828103825283818151815260200191508051906020019080838360005b838110156121cc5780820151818401526020810190506121b1565b50505050905090810190601f1680156121f95780820380516001836020036101000a031916815260200191505b509250505060405180910390a2505050505050565b612218838361247d565b61222157600080fd5b60018360000160008473ffffffffffffffffffffffffffffffffffffffff1673ffffffffffffffffffffffffffffffffffffffff16815260200190815260200160002060006101000a81548160ff021916908315150217905550826002018290806001815401808255809150509060018203906000526020600020016000909192909190916101000a81548173ffffffffffffffffffffffffffffffffffffffff021916908373ffffffffffffffffffffffffffffffffffffffff1602179055505060018360020180549050038360010160008473ffffffffffffffffffffffffffffffffffffffff1673ffffffffffffffffffffffffffffffffffffffff168152602001908152602001600020819055508173ffffffffffffffffffffffffffffffffffffffff167f571925c699f9072cec76b6c6c000571cc8d0bb5c47e5819202e2e9496c6508b5826040518080602001828103825283818151815260200191508051906020019080838360005b838110156123ac578082015181840152602081019050612391565b50505050905090810190601f1680156123d95780820380516001836020036101000a031916815260200191505b509250505060405180910390a2505050565b60608160020180548060200260200160405190810160405280929190818152602001828054801561247157602002820191906000526020600020905b8160009054906101000a900473ffffffffffffffffffffffffffffffffffffffff1673ffffffffffffffffffffffffffffffffffffffff1681526020019060010190808311612427575b50505050509050919050565b60006124898383611ec9565b15905092915050565b8154818355818111156124b9578183600052602060002091820191016124b891906124be565b5b505050565b6124e091905b808211156124dc5760008160009055506001016124c4565b5090565b9056fea265627a7a723158208af1d48e7586546352d92d946085be0b313a50154a0306a911af88d21be6a4cf64736f6c63430005100032",
  "source": "/*\n\n  Copyright 2017 Dharma Labs Inc.\n\n  Licensed under the Apache License, Version 2.0 (the \"License\");\n  you may not use this file except in compliance with the License.\n  You may obtain a copy of the License at\n\n    http://www.apache.org/licenses/LICENSE-2.0\n\n  Unless required by applicable law or agreed to in writing, software\n  distributed under the License is distributed on an \"AS IS\" BASIS,\n  WITHOUT WARRANTIES OR CONDITIONS OF ANY KIND, either express or implied.\n  See the License for the specific language governing permissions and\n  limitations under the License.\n\n*/\n// SPDX-License-Identifier: MIT\npragma solidity >=0.4.21 <0.7.0;\n\nimport \"./SafeMath.sol\";\nimport \"../contracts/ERC721/ERC721.sol\";\n\nimport \"./TermsContract.sol\";\nimport \"./DebtRegistry.sol\";\nimport \"./ContractRegistry.sol\";\nimport \"./ERC721TokenRegistry.sol\";\n\nimport {PermissionsLib, PermissionEvents} from \"../contracts/libraries/PermissionsLib.sol\";\n\n\n/**\n  * Contains functionality for collateralizing NFTs, including a `collateralize` method for\n  * transferring a debtor's asset to this contract, as well as methods for returning\n  * or seizing collateral depending on the state of the underlying debt agreement.\n  *\n  * NOTE: The `collateralize` method in this contract can only be called by a trusted TermsContract,\n  * specified by the contract's owner.\n  */\ncontract ERC721Collateralizer is Pausable, PermissionEvents {\n    using PermissionsLib for PermissionsLib.Permissions;\n    using SafeMath for uint;\n\n    DebtRegistry public debtRegistry;\n    ERC721TokenRegistry public tokenRegistry;\n\n    // We store the address of the CryptoKitties contract, in order to work around a minor issue\n    // relating to transfers, since its contract does not comply with the ERC721 standard.\n    address public cryptoKittiesContract;\n\n    // Debtor here refers to the owner of the asset that is being collateralized.\n    mapping(bytes32 => address) public agreementToDebtor;\n\n    PermissionsLib.Permissions internal collateralizationPermissions;\n\n    uint public constant SECONDS_IN_DAY = 24 * 60 * 60;\n\n    string public constant CONTEXT = \"ERC721Collateralizer\";\n\n    event CollateralLocked(\n        bytes32 indexed agreementID,\n        // The address of the ERC721 contract for the token.\n        address indexed erc721Contract,\n        // The id of the token associated with the ERC721 contract.\n        uint256 tokenID\n    );\n\n    event CollateralReturned(\n        bytes32 indexed agreementID,\n        address indexed debtor,\n        address erc721Contract,\n        uint256 tokenID\n    );\n\n    event CollateralSeized(\n        bytes32 indexed agreementID,\n        address indexed beneficiary,\n        address erc721Contract,\n        uint256 tokenID\n    );\n\n    modifier onlyAuthorizedToCollateralize() {\n        require(collateralizationPermissions.isAuthorized(msg.sender));\n        _;\n    }\n\n    constructor(\n        address _contractRegistry,\n        address _tokenRegistry,\n        address _cryptoKittiesContract\n    ) public {\n        ContractRegistry contractRegistry = ContractRegistry(_contractRegistry);\n\n        // Get the DebtRegistry contract from the ContractRegistry.\n        debtRegistry = contractRegistry.debtRegistry();\n        // Instantiate a special token registry for ERC721s.\n        tokenRegistry = ERC721TokenRegistry(_tokenRegistry);\n        // Keep track of the CryptoKitties contract, for specific workarounds.\n        cryptoKittiesContract = _cryptoKittiesContract;\n    }\n\n    /**\n     * Transfers collateral from the debtor to the current contract, as custodian.\n     *\n     * @param agreementId bytes32 The debt agreement's ID\n     * @param debtor address The owner of the asset being collateralized\n     */\n    function collateralize(\n        bytes32 agreementId,\n        address debtor\n    )\n        public\n        onlyAuthorizedToCollateralize\n        whenNotPaused\n        returns (bool _success)\n    {\n        // The address of the ERC721 contract.\n        address collateralTokenAddress;\n        // The token id, associating the collateral token and the given ERC721 contract.\n        uint256 collateralTokenID;\n        // The terms contract according to which this asset is being collateralized.\n        TermsContract termsContract;\n\n        // Fetch all relevant collateralization parameters\n        (\n            collateralTokenAddress,\n            collateralTokenID,\n            termsContract\n        ) = retrieveCollateralParameters(agreementId);\n\n        require(address(termsContract) == msg.sender);\n        require(collateralTokenAddress != address(0));\n\n        /*\n            Ensure that the agreement has not already been collateralized.\n\n            If the agreement has already been collateralized, this check will fail\n            because any valid collateralization must have some sort of valid\n            address associated with it as a debtor.  Given that it is impossible\n            to send transactions from address 0x0, this check will only fail\n            when the agreement is already collateralized.\n        */\n        require(agreementToDebtor[agreementId] == address(0));\n\n        // Store debtor in mapping, effectively demarcating that the agreement is now collateralized.\n        agreementToDebtor[agreementId] = debtor;\n\n        ERC721 erc721token = ERC721(collateralTokenAddress);\n        address custodian = address(this);\n\n        // Transfer the collateral asset to this contract.\n        erc721token.transferFrom(debtor, custodian, collateralTokenID);\n\n        // Ensure that this contract is in fact the owner of the collateral.\n        assert(erc721token.ownerOf(collateralTokenID) == custodian);\n\n        // Emit an event that collateral has been secured.\n        emit CollateralLocked(agreementId, collateralTokenAddress, collateralTokenID);\n\n        return true;\n    }\n\n    /**\n     * Returns collateral to the debt agreement's debtor if and only if the debt agreement's\n     * term has lapsed and the total expected repayment value has been repaid.\n     *\n     * @param agreementId bytes32 The debt agreement's ID\n     */\n    function returnCollateral(\n        bytes32 agreementId\n    )\n        public\n        whenNotPaused\n    {\n        // The address of the ERC721 contract.\n        address collateralTokenAddress;\n        // The token id, associating the collateral token and the given ERC721 contract.\n        uint256 collateralTokenID;\n        // The terms contract according to which this asset is being collateralized.\n        TermsContract termsContract;\n\n        // Fetch all relevant collateralization parameters.\n        (\n            collateralTokenAddress,\n            collateralTokenID,\n            termsContract\n        ) = retrieveCollateralParameters(agreementId);\n\n        // Withdrawal can only occur if the collateral has yet to be withdrawn.\n        // When we withdraw collateral, we reset the collateral agreement\n        // in a gas-efficient manner by resetting the address of the debtor to 0.\n        require(agreementToDebtor[agreementId] != address(0));\n\n        // Determine debtor of the collateral.\n        address debtor = agreementToDebtor[agreementId];\n\n        // Mark agreement's collateral as withdrawn by setting the agreement's debtor to 0x0.\n        delete agreementToDebtor[agreementId];\n\n        // Ensure that the debt is not in a state of default.\n        require(\n            termsContract.getExpectedRepaymentValue(\n                agreementId,\n                termsContract.getTermEndTimestamp(agreementId)\n            ) <= termsContract.getValueRepaidToDate(agreementId)\n        );\n\n        // Instantiate an instance of the token, in order to initiate a transfer.\n        ERC721 erc721token = ERC721(collateralTokenAddress);\n\n        // Apply a hack for CryptoKitties, granting transfer approval to this contract itself.\n        if (cryptoKittiesContract == collateralTokenAddress) {\n            erc721token.approve(address(this), collateralTokenID);\n        }\n\n        // Transfer the collateral this contract was holding in escrow back to the debtor.\n        erc721token.transferFrom(address(this), debtor, collateralTokenID);\n\n        // Ensure that transfer has succeeded.\n        assert(erc721token.ownerOf(collateralTokenID) == debtor);\n\n        // Log the return event.\n        emit CollateralReturned(\n            agreementId,\n            debtor,\n            collateralTokenAddress,\n            collateralTokenID\n        );\n    }\n\n    /**\n     * Seizes the collateral from the given debt agreement and\n     * transfers it to the debt agreement's current beneficiary\n     * (i.e. the person who \"owns\" the debt).\n     *\n     * @param agreementId bytes32 The debt agreement's ID\n     */\n    function seizeCollateral(\n        bytes32 agreementId\n    )\n        public\n        whenNotPaused\n    {\n\n        // The address of the ERC721 contract.\n        address collateralTokenAddress;\n        // The token id, associating the collateral token and the given ERC721 contract.\n        uint256 collateralTokenID;\n        // The terms contract according to which this asset is being collateralized.\n        TermsContract termsContract;\n\n        // Fetch all relevant collateralization parameters.\n        (\n            collateralTokenAddress,\n            collateralTokenID,\n            termsContract\n        ) = retrieveCollateralParameters(agreementId);\n\n        // Seizure can only occur if the collateral has yet to be withdrawn.\n        // When we withdraw collateral, we reset the collateral agreement\n        // in a gas-efficient manner by resetting the address of the debtor to 0.\n        require(agreementToDebtor[agreementId] != address(0));\n\n        // Mark agreement's collateral as withdrawn by setting the agreement's debtor to 0x0.\n        delete agreementToDebtor[agreementId];\n\n        // Ensure debt is in a state of default.\n        require(\n            termsContract.getExpectedRepaymentValue(\n                agreementId,\n                block.timestamp\n            ) > termsContract.getValueRepaidToDate(agreementId)\n        );\n\n        // Determine beneficiary of the collateral to be seized.\n        address beneficiary = debtRegistry.getBeneficiary(agreementId);\n\n        // Instantiate an instance of the token, in order to initiate a transfer.\n        ERC721 erc721token = ERC721(collateralTokenAddress);\n\n        // Apply a hack for CryptoKitties, granting transfer approval to this contract itself.\n        if (cryptoKittiesContract == collateralTokenAddress) {\n            erc721token.approve(address(this), collateralTokenID);\n        }\n\n        // Transfer the collateral this contract was holding in escrow to beneficiary.\n        erc721token.transferFrom(address(this), beneficiary, collateralTokenID);\n\n        // Ensure that transfer has succeeded.\n        assert(erc721token.ownerOf(collateralTokenID) == beneficiary);\n\n        // Log the seizure event.\n        emit CollateralSeized(\n            agreementId,\n            beneficiary,\n            collateralTokenAddress,\n            collateralTokenID\n        );\n    }\n\n    /**\n     * Adds an address to the list of agents authorized\n     * to invoke the `collateralize` function.\n     */\n    function addAuthorizedCollateralizeAgent(address agent)\n        public\n        onlyOwner\n    {\n        collateralizationPermissions.authorize(agent, CONTEXT);\n    }\n\n    /**\n     * Removes an address from the list of agents authorized\n     * to invoke the `collateralize` function.\n     */\n    function revokeCollateralizeAuthorization(address agent)\n        public\n        onlyOwner\n    {\n        collateralizationPermissions.revokeAuthorization(agent, CONTEXT);\n    }\n\n    /**\n    * Returns the list of agents authorized to invoke the 'collateralize' function.\n    */\n    function getAuthorizedCollateralizeAgents()\n        public\n        view\n        returns (address[] memory)\n    {\n        return collateralizationPermissions.getAuthorizedAgents();\n    }\n\n    /**\n     * Unpacks collateralization-specific parameters from their tightly-packed\n     * representation in a terms contract parameter string.\n     */\n    function unpackCollateralParametersFromBytes(bytes32 parameters)\n        public\n        pure\n        returns (bool, uint, uint)\n    {\n        // We use use a flag, 0 or 1, to specify whether the given collateral token's contract\n        // implements the Enumerable extension. If so, we can refer to a token by its index instead\n        // of its ID to conserve space.\n        bytes32 isEnumerable =\n            parameters & 0x0000000000000000000000000000000000000000000000000000000000000001;\n        // Here we get the index of the ERC721 contract within the ERC721TokenRegistry.\n        // In its raw form it will be \"shifted\" 15 characters to the left (I.E. it has 15 \"0\"s after\n        // the actual value), so we still need to unshift it.\n        bytes32 collateralContractIndexShifted =\n            parameters & 0x0000000000000000000000000000000000000ffffffffffff000000000000000;\n        // We get the id or index of the ERC721 token associated with the ERC721 contract.\n        // To retrieve this token reference, we take only the value of the specific\n        // parameters that encode it, and then shift that value 1 place to the right - thereby\n        // ignoring all other parameters.\n        bytes32 tokenRefShifted =\n            parameters & 0x0000000000000000000000000000000000000000000000000ffffffffffffff0;\n\n        // Shift the contract index value 15 places to the right.\n        uint collateralContractIndex = uint(collateralContractIndexShifted) / 2 ** 60;\n        // Shift the token ref 1 space to the right.\n        uint tokenRef = uint(tokenRefShifted) / 2 ** 4;\n\n        return (\n            // Since we want to return a boolean, we return whether or not the flag is equal to 1.\n            uint(isEnumerable) == 1,\n            collateralContractIndex,\n            tokenRef\n        );\n    }\n\n    /**\n     * Unpacks the terms contract parameters, and uses those parameters to retrieve specific\n     * values that are pertinent to this collateralizer contract -- such as the address of the\n     * collateral token and the token's ID, which are not encoded in the terms contract parameters.\n     */\n    function retrieveCollateralParameters(bytes32 agreementId)\n        public\n        view\n        returns (\n            address _collateralTokenAddress,\n            uint256 _collateralTokenID,\n            TermsContract _termsContract\n        )\n    {\n        address termsContractAddress;\n        bytes32 termsContractParameters;\n\n        // Pull the terms contract and associated parameters for the agreement.\n        (termsContractAddress, termsContractParameters) = debtRegistry.getTerms(agreementId);\n\n        bool isEnumerable;\n        uint collateralContractIndex;\n        uint256 collateralTokenRef;\n        uint collateralTokenID;\n\n        // Unpack terms contract parameters in order to get collateralization-specific params.\n        (\n            isEnumerable,\n            collateralContractIndex,\n            collateralTokenRef\n        ) = unpackCollateralParametersFromBytes(termsContractParameters);\n\n        // Resolve address of ERC721 contract associated with this agreement in token registry.\n        address collateralTokenAddress = tokenRegistry.getTokenAddressByIndex(collateralContractIndex);\n        ERC721 erc721token = ERC721(collateralTokenAddress);\n\n        // If the contract implements the Enumerable extension, then we can use the token reference\n        // parameters as an index to the token. Otherwise, we assume that the token reference parameter\n        // refers to the token id itself.\n        if (isEnumerable) {\n            collateralTokenID = erc721token.tokenByIndex(collateralTokenRef);\n        } else {\n            collateralTokenID = collateralTokenRef;\n        }\n\n        return (\n            collateralTokenAddress,\n            collateralTokenID,\n            TermsContract(termsContractAddress)\n        );\n    }\n}\n",
  "sourcePath": "/home/niraj/Desktop/customcognito/contracts/ERC721Collateralizer.sol",
  "compiler": {
    "name": "solc",
    "version": "0.5.16+commit.9c3226ce.Emscripten.clang"
  },
  "schemaVersion": "3.3.1",
  "updatedAt": "2020-11-04T11:37:24.963Z",
  "devdoc": {
    "methods": {
      "collateralize(bytes32,address)": {
        "params": {
          "agreementId": "bytes32 The debt agreement's ID",
          "debtor": "address The owner of the asset being collateralized"
        }
      },
      "pause()": {
        "details": "called by the owner to pause, triggers stopped state"
      },
      "renounceOwnership()": {
        "details": "Allows the current owner to relinquish control of the contract."
      },
      "returnCollateral(bytes32)": {
        "params": {
          "agreementId": "bytes32 The debt agreement's ID"
        }
      },
      "seizeCollateral(bytes32)": {
        "params": {
          "agreementId": "bytes32 The debt agreement's ID"
        }
      },
      "transferOwnership(address)": {
        "details": "Allows the current owner to transfer control of the contract to a newOwner.",
        "params": {
          "newOwner": "The address to transfer ownership to."
        }
      },
      "unpause()": {
        "details": "called by the owner to unpause, returns to normal state"
      }
    }
  },
  "userdoc": {
    "methods": {
      "addAuthorizedCollateralizeAgent(address)": {
        "notice": "Adds an address to the list of agents authorized to invoke the `collateralize` function."
      },
      "collateralize(bytes32,address)": {
        "notice": "Transfers collateral from the debtor to the current contract, as custodian."
      },
      "getAuthorizedCollateralizeAgents()": {
        "notice": "Returns the list of agents authorized to invoke the 'collateralize' function."
      },
      "retrieveCollateralParameters(bytes32)": {
        "notice": "Unpacks the terms contract parameters, and uses those parameters to retrieve specific values that are pertinent to this collateralizer contract -- such as the address of the collateral token and the token's ID, which are not encoded in the terms contract parameters."
      },
      "returnCollateral(bytes32)": {
        "notice": "Returns collateral to the debt agreement's debtor if and only if the debt agreement's term has lapsed and the total expected repayment value has been repaid."
      },
      "revokeCollateralizeAuthorization(address)": {
        "notice": "Removes an address from the list of agents authorized to invoke the `collateralize` function."
      },
      "seizeCollateral(bytes32)": {
        "notice": "Seizes the collateral from the given debt agreement and transfers it to the debt agreement's current beneficiary (i.e. the person who \"owns\" the debt)."
      },
      "unpackCollateralParametersFromBytes(bytes32)": {
        "notice": "Unpacks collateralization-specific parameters from their tightly-packed representation in a terms contract parameter string."
      }
    },
    "notice": "Contains functionality for collateralizing NFTs, including a `collateralize` method for transferring a debtor's asset to this contract, as well as methods for returning or seizing collateral depending on the state of the underlying debt agreement.  * NOTE: The `collateralize` method in this contract can only be called by a trusted TermsContract, specified by the contract's owner."
  }
}