{
  "contractName": "ERC721TokenRegistry",
  "abi": [
    {
      "constant": true,
      "inputs": [],
      "name": "owner",
      "outputs": [
        {
          "internalType": "address",
          "name": "",
          "type": "address"
        }
      ],
      "payable": false,
      "stateMutability": "view",
      "type": "function"
    },
    {
      "constant": true,
      "inputs": [
        {
          "internalType": "bytes32",
          "name": "",
          "type": "bytes32"
        }
      ],
      "name": "symbolHashToTokenAttributes",
      "outputs": [
        {
          "internalType": "address",
          "name": "tokenAddress",
          "type": "address"
        },
        {
          "internalType": "uint256",
          "name": "tokenIndex",
          "type": "uint256"
        },
        {
          "internalType": "string",
          "name": "name",
          "type": "string"
        }
      ],
      "payable": false,
      "stateMutability": "view",
      "type": "function"
    },
    {
      "constant": true,
      "inputs": [
        {
          "internalType": "uint256",
          "name": "",
          "type": "uint256"
        }
      ],
      "name": "tokenSymbolList",
      "outputs": [
        {
          "internalType": "string",
          "name": "",
          "type": "string"
        }
      ],
      "payable": false,
      "stateMutability": "view",
      "type": "function"
    },
    {
      "constant": true,
      "inputs": [],
      "name": "tokenSymbolListLength",
      "outputs": [
        {
          "internalType": "uint32",
          "name": "",
          "type": "uint32"
        }
      ],
      "payable": false,
      "stateMutability": "view",
      "type": "function"
    },
    {
      "constant": false,
      "inputs": [
        {
          "internalType": "address",
          "name": "newOwner",
          "type": "address"
        }
      ],
      "name": "transferOwnership",
      "outputs": [],
      "payable": false,
      "stateMutability": "nonpayable",
      "type": "function"
    },
    {
      "constant": false,
      "inputs": [
        {
          "internalType": "string",
          "name": "_symbol",
          "type": "string"
        },
        {
          "internalType": "address",
          "name": "_tokenAddress",
          "type": "address"
        },
        {
          "internalType": "string",
          "name": "_tokenName",
          "type": "string"
        }
      ],
      "name": "setTokenAttributes",
      "outputs": [],
      "payable": false,
      "stateMutability": "nonpayable",
      "type": "function"
    },
    {
      "constant": true,
      "inputs": [
        {
          "internalType": "string",
          "name": "_symbol",
          "type": "string"
        }
      ],
      "name": "getTokenAddressBySymbol",
      "outputs": [
        {
          "internalType": "address",
          "name": "",
          "type": "address"
        }
      ],
      "payable": false,
      "stateMutability": "view",
      "type": "function"
    },
    {
      "constant": true,
      "inputs": [
        {
          "internalType": "uint256",
          "name": "_index",
          "type": "uint256"
        }
      ],
      "name": "getTokenAddressByIndex",
      "outputs": [
        {
          "internalType": "address",
          "name": "",
          "type": "address"
        }
      ],
      "payable": false,
      "stateMutability": "view",
      "type": "function"
    },
    {
      "constant": true,
      "inputs": [
        {
          "internalType": "string",
          "name": "_symbol",
          "type": "string"
        }
      ],
      "name": "getTokenIndexBySymbol",
      "outputs": [
        {
          "internalType": "uint256",
          "name": "",
          "type": "uint256"
        }
      ],
      "payable": false,
      "stateMutability": "view",
      "type": "function"
    },
    {
      "constant": true,
      "inputs": [
        {
          "internalType": "uint256",
          "name": "_index",
          "type": "uint256"
        }
      ],
      "name": "getTokenSymbolByIndex",
      "outputs": [
        {
          "internalType": "string",
          "name": "",
          "type": "string"
        }
      ],
      "payable": false,
      "stateMutability": "view",
      "type": "function"
    },
    {
      "constant": true,
      "inputs": [
        {
          "internalType": "string",
          "name": "_symbol",
          "type": "string"
        }
      ],
      "name": "getTokenNameBySymbol",
      "outputs": [
        {
          "internalType": "string",
          "name": "",
          "type": "string"
        }
      ],
      "payable": false,
      "stateMutability": "view",
      "type": "function"
    },
    {
      "constant": true,
      "inputs": [
        {
          "internalType": "uint256",
          "name": "_index",
          "type": "uint256"
        }
      ],
      "name": "getTokenNameByIndex",
      "outputs": [
        {
          "internalType": "string",
          "name": "",
          "type": "string"
        }
      ],
      "payable": false,
      "stateMutability": "view",
      "type": "function"
    },
    {
      "constant": true,
      "inputs": [
        {
          "internalType": "string",
          "name": "_symbol",
          "type": "string"
        }
      ],
      "name": "getTokenAttributesBySymbol",
      "outputs": [
        {
          "internalType": "address",
          "name": "",
          "type": "address"
        },
        {
          "internalType": "uint256",
          "name": "",
          "type": "uint256"
        },
        {
          "internalType": "string",
          "name": "",
          "type": "string"
        }
      ],
      "payable": false,
      "stateMutability": "view",
      "type": "function"
    },
    {
      "constant": true,
      "inputs": [
        {
          "internalType": "uint256",
          "name": "_index",
          "type": "uint256"
        }
      ],
      "name": "getTokenAttributesByIndex",
      "outputs": [
        {
          "internalType": "address",
          "name": "",
          "type": "address"
        },
        {
          "internalType": "string",
          "name": "",
          "type": "string"
        },
        {
          "internalType": "string",
          "name": "",
          "type": "string"
        }
      ],
      "payable": false,
      "stateMutability": "view",
      "type": "function"
    }
  ],
  "bytecode": "0x6080604052336000806101000a81548173ffffffffffffffffffffffffffffffffffffffff021916908373ffffffffffffffffffffffffffffffffffffffff160217905550611bcd806100536000396000f3fe608060405234801561001057600080fd5b50600436106100ea5760003560e01c80638da5cb5b1161008c578063c0d0b6ff11610066578063c0d0b6ff14610988578063c51ccb4014610afa578063f2fde38b14610b24578063fa7f369714610b68576100ea565b80638da5cb5b1461076357806395f121bf146107ad578063bd7b564d14610854576100ea565b80633dbe284a116100c85780633dbe284a146103ff5780635715c5b7146104e05780636e7cbb0d1461054e5780638052348b146105f5576100ea565b80631e71f8d1146100ef5780632e1e1bb3146102355780633550b6d914610304575b600080fd5b61011b6004803603602081101561010557600080fd5b8101908080359060200190929190505050610c0f565b604051808473ffffffffffffffffffffffffffffffffffffffff1673ffffffffffffffffffffffffffffffffffffffff1681526020018060200180602001838103835285818151815260200191508051906020019080838360005b83811015610191578082015181840152602081019050610176565b50505050905090810190601f1680156101be5780820380516001836020036101000a031916815260200191505b50838103825284818151815260200191508051906020019080838360005b838110156101f75780820151818401526020810190506101dc565b50505050905090810190601f1680156102245780820380516001836020036101000a031916815260200191505b509550505050505060405180910390f35b6102ee6004803603602081101561024b57600080fd5b810190808035906020019064010000000081111561026857600080fd5b82018360208201111561027a57600080fd5b8035906020019184600183028401116401000000008311171561029c57600080fd5b91908080601f016020809104026020016040519081016040528093929190818152602001838380828437600081840152601f19601f820116905080830192505050505050509192919290505050610d9e565b6040518082815260200191505060405180910390f35b6103bd6004803603602081101561031a57600080fd5b810190808035906020019064010000000081111561033757600080fd5b82018360208201111561034957600080fd5b8035906020019184600183028401116401000000008311171561036b57600080fd5b91908080601f016020809104026020016040519081016040528093929190818152602001838380828437600081840152601f19601f820116905080830192505050505050509192919290505050610e54565b604051808273ffffffffffffffffffffffffffffffffffffffff1673ffffffffffffffffffffffffffffffffffffffff16815260200191505060405180910390f35b61042b6004803603602081101561041557600080fd5b8101908080359060200190929190505050610f2a565b604051808473ffffffffffffffffffffffffffffffffffffffff1673ffffffffffffffffffffffffffffffffffffffff16815260200183815260200180602001828103825283818151815260200191508051906020019080838360005b838110156104a3578082015181840152602081019050610488565b50505050905090810190601f1680156104d05780820380516001836020036101000a031916815260200191505b5094505050505060405180910390f35b61050c600480360360208110156104f657600080fd5b810190808035906020019092919050505061100c565b604051808273ffffffffffffffffffffffffffffffffffffffff1673ffffffffffffffffffffffffffffffffffffffff16815260200191505060405180910390f35b61057a6004803603602081101561056457600080fd5b81019080803590602001909291905050506110cc565b6040518080602001828103825283818151815260200191508051906020019080838360005b838110156105ba57808201518184015260208101905061059f565b50505050905090810190601f1680156105e75780820380516001836020036101000a031916815260200191505b509250505060405180910390f35b6106ae6004803603602081101561060b57600080fd5b810190808035906020019064010000000081111561062857600080fd5b82018360208201111561063a57600080fd5b8035906020019184600183028401116401000000008311171561065c57600080fd5b91908080601f016020809104026020016040519081016040528093929190818152602001838380828437600081840152601f19601f82011690508083019250505050505050919291929050505061117f565b604051808473ffffffffffffffffffffffffffffffffffffffff1673ffffffffffffffffffffffffffffffffffffffff16815260200183815260200180602001828103825283818151815260200191508051906020019080838360005b8381101561072657808201518184015260208101905061070b565b50505050905090810190601f1680156107535780820380516001836020036101000a031916815260200191505b5094505050505060405180910390f35b61076b611304565b604051808273ffffffffffffffffffffffffffffffffffffffff1673ffffffffffffffffffffffffffffffffffffffff16815260200191505060405180910390f35b6107d9600480360360208110156107c357600080fd5b8101908080359060200190929190505050611329565b6040518080602001828103825283818151815260200191508051906020019080838360005b838110156108195780820151818401526020810190506107fe565b50505050905090810190601f1680156108465780820380516001836020036101000a031916815260200191505b509250505060405180910390f35b61090d6004803603602081101561086a57600080fd5b810190808035906020019064010000000081111561088757600080fd5b82018360208201111561089957600080fd5b803590602001918460018302840111640100000000831117156108bb57600080fd5b91908080601f016020809104026020016040519081016040528093929190818152602001838380828437600081840152601f19601f8201169050808301925050505050505091929192905050506113dc565b6040518080602001828103825283818151815260200191508051906020019080838360005b8381101561094d578082015181840152602081019050610932565b50505050905090810190601f16801561097a5780820380516001836020036101000a031916815260200191505b509250505060405180910390f35b610af86004803603606081101561099e57600080fd5b81019080803590602001906401000000008111156109bb57600080fd5b8201836020820111156109cd57600080fd5b803590602001918460018302840111640100000000831117156109ef57600080fd5b91908080601f016020809104026020016040519081016040528093929190818152602001838380828437600081840152601f19601f820116905080830192505050505050509192919290803573ffffffffffffffffffffffffffffffffffffffff16906020019092919080359060200190640100000000811115610a7257600080fd5b820183602082011115610a8457600080fd5b80359060200191846001830284011164010000000083111715610aa657600080fd5b91908080601f016020809104026020016040519081016040528093929190818152602001838380828437600081840152601f19601f82011690508083019250505050505050919291929050505061152b565b005b610b0261192f565b604051808263ffffffff1663ffffffff16815260200191505060405180910390f35b610b6660048036036020811015610b3a57600080fd5b81019080803573ffffffffffffffffffffffffffffffffffffffff169060200190929190505050611949565b005b610b9460048036036020811015610b7e57600080fd5b8101908080359060200190929190505050611a17565b6040518080602001828103825283818151815260200191508051906020019080838360005b83811015610bd4578082015181840152602081019050610bb9565b50505050905090810190601f168015610c015780820380516001836020036101000a031916815260200191505b509250505060405180910390f35b60006060806060610c1f856110cc565b90506000816040516020018080602001828103825283818151815260200191508051906020019080838360005b83811015610c67578082015181840152602081019050610c4c565b50505050905090810190601f168015610c945780820380516001836020036101000a031916815260200191505b509250505060405160208183030381529060405280519060200120905060006001600083815260200190815260200160002090508060000160009054906101000a900473ffffffffffffffffffffffffffffffffffffffff168382600201808054600181600116156101000203166002900480601f016020809104026020016040519081016040528092919081815260200182805460018160011615610100020316600290048015610d875780601f10610d5c57610100808354040283529160200191610d87565b820191906000526020600020905b815481529060010190602001808311610d6a57829003601f168201915b505050505090509550955095505050509193909250565b600080826040516020018080602001828103825283818151815260200191508051906020019080838360005b83811015610de5578082015181840152602081019050610dca565b50505050905090810190601f168015610e125780820380516001836020036101000a031916815260200191505b50925050506040516020818303038152906040528051906020012090506000600160008381526020019081526020016000209050806001015492505050919050565b600080826040516020018080602001828103825283818151815260200191508051906020019080838360005b83811015610e9b578082015181840152602081019050610e80565b50505050905090810190601f168015610ec85780820380516001836020036101000a031916815260200191505b509250505060405160208183030381529060405280519060200120905060006001600083815260200190815260200160002090508060000160009054906101000a900473ffffffffffffffffffffffffffffffffffffffff1692505050919050565b60016020528060005260406000206000915090508060000160009054906101000a900473ffffffffffffffffffffffffffffffffffffffff1690806001015490806002018054600181600116156101000203166002900480601f0160208091040260200160405190810160405280929190818152602001828054600181600116156101000203166002900480156110025780601f10610fd757610100808354040283529160200191611002565b820191906000526020600020905b815481529060010190602001808311610fe557829003601f168201915b5050505050905083565b60008060028363ffffffff811061101f57fe5b0190506110c4818054600181600116156101000203166002900480601f0160208091040260200160405190810160405280929190818152602001828054600181600116156101000203166002900480156110ba5780601f1061108f576101008083540402835291602001916110ba565b820191906000526020600020905b81548152906001019060200180831161109d57829003601f168201915b5050505050610e54565b915050919050565b606060028263ffffffff81106110de57fe5b018054600181600116156101000203166002900480601f0160208091040260200160405190810160405280929190818152602001828054600181600116156101000203166002900480156111735780601f1061114857610100808354040283529160200191611173565b820191906000526020600020905b81548152906001019060200180831161115657829003601f168201915b50505050509050919050565b60008060606000846040516020018080602001828103825283818151815260200191508051906020019080838360005b838110156111ca5780820151818401526020810190506111af565b50505050905090810190601f1680156111f75780820380516001836020036101000a031916815260200191505b509250505060405160208183030381529060405280519060200120905060006001600083815260200190815260200160002090508060000160009054906101000a900473ffffffffffffffffffffffffffffffffffffffff16816001015482600201808054600181600116156101000203166002900480601f0160208091040260200160405190810160405280929190818152602001828054600181600116156101000203166002900480156112ee5780601f106112c3576101008083540402835291602001916112ee565b820191906000526020600020905b8154815290600101906020018083116112d157829003601f168201915b5050505050905094509450945050509193909250565b6000809054906101000a900473ffffffffffffffffffffffffffffffffffffffff1681565b60028163ffffffff811061133957fe5b016000915090508054600181600116156101000203166002900480601f0160208091040260200160405190810160405280929190818152602001828054600181600116156101000203166002900480156113d45780601f106113a9576101008083540402835291602001916113d4565b820191906000526020600020905b8154815290600101906020018083116113b757829003601f168201915b505050505081565b60606000826040516020018080602001828103825283818151815260200191508051906020019080838360005b83811015611424578082015181840152602081019050611409565b50505050905090810190601f1680156114515780820380516001836020036101000a031916815260200191505b50925050506040516020818303038152906040528051906020012090506000600160008381526020019081526020016000209050806002018054600181600116156101000203166002900480601f01602080910402602001604051908101604052809291908181526020018280546001816001161561010002031660029004801561151d5780601f106114f25761010080835404028352916020019161151d565b820191906000526020600020905b81548152906001019060200180831161150057829003601f168201915b505050505092505050919050565b6000809054906101000a900473ffffffffffffffffffffffffffffffffffffffff1673ffffffffffffffffffffffffffffffffffffffff163373ffffffffffffffffffffffffffffffffffffffff16141561192a576000836040516020018080602001828103825283818151815260200191508051906020019080838360005b838110156115c65780820151818401526020810190506115ab565b50505050905090810190601f1680156115f35780820380516001836020036101000a031916815260200191505b5092505050604051602081830303815290604052805190602001209050611618611a3c565b600160008381526020019081526020016000206040518060600160405290816000820160009054906101000a900473ffffffffffffffffffffffffffffffffffffffff1673ffffffffffffffffffffffffffffffffffffffff1673ffffffffffffffffffffffffffffffffffffffff16815260200160018201548152602001600282018054600181600116156101000203166002900480601f01602080910402602001604051908101604052809291908181526020018280546001816001161561010002031660029004801561172f5780601f106117045761010080835404028352916020019161172f565b820191906000526020600020905b81548152906001019060200180831161171257829003601f168201915b5050505050815250509050600073ffffffffffffffffffffffffffffffffffffffff16816000015173ffffffffffffffffffffffffffffffffffffffff1614156118605783816000019073ffffffffffffffffffffffffffffffffffffffff16908173ffffffffffffffffffffffffffffffffffffffff168152505082816040018190525064010000000160009054906101000a900463ffffffff1663ffffffff1681602001818152505084600264010000000160009054906101000a900463ffffffff1663ffffffff1663ffffffff811061180757fe5b01908051906020019061181b929190611a73565b50640100000001600081819054906101000a900463ffffffff168092919060010191906101000a81548163ffffffff021916908363ffffffff160217905550506118a2565b83816000019073ffffffffffffffffffffffffffffffffffffffff16908173ffffffffffffffffffffffffffffffffffffffff16815250508281604001819052505b806001600084815260200190815260200160002060008201518160000160006101000a81548173ffffffffffffffffffffffffffffffffffffffff021916908373ffffffffffffffffffffffffffffffffffffffff160217905550602082015181600101556040820151816002019080519060200190611923929190611af3565b5090505050505b505050565b64010000000160009054906101000a900463ffffffff1681565b6000809054906101000a900473ffffffffffffffffffffffffffffffffffffffff1673ffffffffffffffffffffffffffffffffffffffff163373ffffffffffffffffffffffffffffffffffffffff161415611a1457600073ffffffffffffffffffffffffffffffffffffffff168173ffffffffffffffffffffffffffffffffffffffff1614611a1357806000806101000a81548173ffffffffffffffffffffffffffffffffffffffff021916908373ffffffffffffffffffffffffffffffffffffffff1602179055505b5b50565b606080611a23836110cc565b90506060611a30826113dc565b90508092505050919050565b6040518060600160405280600073ffffffffffffffffffffffffffffffffffffffff16815260200160008152602001606081525090565b828054600181600116156101000203166002900490600052602060002090601f016020900481019282601f10611ab457805160ff1916838001178555611ae2565b82800160010185558215611ae2579182015b82811115611ae1578251825591602001919060010190611ac6565b5b509050611aef9190611b73565b5090565b828054600181600116156101000203166002900490600052602060002090601f016020900481019282601f10611b3457805160ff1916838001178555611b62565b82800160010185558215611b62579182015b82811115611b61578251825591602001919060010190611b46565b5b509050611b6f9190611b73565b5090565b611b9591905b80821115611b91576000816000905550600101611b79565b5090565b9056fea265627a7a723158203dd4e9d3b3fbcc6fd631a0a6b083e4d780ceb36dde8ac7998578bf40b630190e64736f6c63430005100032",
  "source": "// SPDX-License-Identifier: MIT\npragma solidity >=0.4.21 <0.7.0;\n\nimport \"./Ownable.sol\";\n\n\n/**\n * The ERC721TokenRegistry is a basic registry mapping token symbols\n * to their known, deployed addresses on the current blockchain.\n *\n * Note that the TokenRegistry does *not* mediate any of the\n * core protocol's business logic, but, rather, is a helpful\n * utility for Terms Contracts to use in encoding, decoding, and\n * resolving the addresses of currently deployed tokens.\n *\n * At this point in time, administration of the Token Registry is\n * under Dharma Labs' control.  With more sophisticated decentralized\n * governance mechanisms, we intend to shift ownership of this utility\n * contract to the Dharma community.\n */\ncontract ERC721TokenRegistry is Ownable {\n    mapping (bytes32 => TokenAttributes) public symbolHashToTokenAttributes;\n    // Solidity prevents us from declaring a dynamically sized string array (since a string is\n    // itself an array, and 2D arrays are not supported), and so here we specify the maximum\n    // size of the tokenSymbolList.\n    string[4294967295] public tokenSymbolList;\n    uint32 public tokenSymbolListLength;\n\n    struct TokenAttributes {\n        // The ERC721 contract address.\n        address tokenAddress;\n        // The index in `tokenSymbolList` where the token's symbol can be found.\n        uint tokenIndex;\n        // The name of the given token, e.g. \"CryptoKitties\"\n        string name;\n    }\n\n    /**\n     * Maps the given symbol to the given token attributes.\n     */\n    function setTokenAttributes(\n        string memory _symbol,\n        address _tokenAddress,\n        string memory _tokenName\n    )\n        public onlyOwner\n    {\n        bytes32 symbolHash = keccak256(abi.encode(_symbol));\n\n        // Attempt to retrieve the token's attributes from the registry.\n        TokenAttributes memory attributes = symbolHashToTokenAttributes[symbolHash];\n\n        if (attributes.tokenAddress == address(0)) {\n            // The token has not yet been added to the registry.\n            attributes.tokenAddress = _tokenAddress;\n            attributes.name = _tokenName;\n            attributes.tokenIndex = tokenSymbolListLength;\n\n            tokenSymbolList[tokenSymbolListLength] = _symbol;\n            tokenSymbolListLength++;\n        } else {\n            // The token has already been added to the registry; update attributes.\n            attributes.tokenAddress = _tokenAddress;\n            attributes.name = _tokenName;\n        }\n\n        // Update this contract's storage.\n        symbolHashToTokenAttributes[symbolHash] = attributes;\n    }\n\n    /**\n     * Given a symbol, resolves the current address of the token the symbol is mapped to.\n     */\n    function getTokenAddressBySymbol(string memory _symbol) public view returns (address) {\n        bytes32 symbolHash = keccak256(abi.encode(_symbol));\n\n        TokenAttributes storage attributes = symbolHashToTokenAttributes[symbolHash];\n\n        return attributes.tokenAddress;\n    }\n\n    /**\n     * Given the known index of a token within the registry's symbol list,\n     * returns the address of the token mapped to the symbol at that index.\n     */\n    function getTokenAddressByIndex(uint _index) public view returns (address) {\n        string storage symbol = tokenSymbolList[_index];\n\n        return getTokenAddressBySymbol(symbol);\n    }\n\n    /**\n     * Given a symbol, resolves the index of the token the symbol is mapped to within the registry's\n     * symbol list.\n     */\n    function getTokenIndexBySymbol(string memory _symbol) public view returns (uint) {\n        bytes32 symbolHash = keccak256(abi.encode(_symbol));\n\n        TokenAttributes storage attributes = symbolHashToTokenAttributes[symbolHash];\n\n        return attributes.tokenIndex;\n    }\n\n    /**\n     * Given an index, resolves the symbol of the token at that index in the registry's\n     * token symbol list.\n     */\n    function getTokenSymbolByIndex(uint _index) public view returns (string memory) {\n        return tokenSymbolList[_index];\n    }\n\n    /**\n     * Given a symbol, returns the name of the token the symbol is mapped to within the registry's\n     * symbol list.\n     */\n    function getTokenNameBySymbol(string memory _symbol) public view returns (string memory) {\n        bytes32 symbolHash = keccak256(abi.encode(_symbol));\n\n        TokenAttributes storage attributes = symbolHashToTokenAttributes[symbolHash];\n\n        return attributes.name;\n    }\n\n    /**\n     * Given the index for a token in the registry, returns the name of the token as provided in\n     * the associated TokensAttribute struct.\n     *\n     * Example:\n     *   getTokenNameByIndex(1);\n     *   => \"CryptoKitties\"\n     */\n    function getTokenNameByIndex(uint _index) public view returns (string memory) {\n        string memory symbol = getTokenSymbolByIndex(_index);\n\n        string memory tokenName = getTokenNameBySymbol(symbol);\n\n        return tokenName;\n    }\n\n    /**\n     * Given the symbol for a token in the registry, returns a tuple containing the token's address,\n     * the token's index in the registry, and the token's name.\n     *\n     * Example:\n     *   getTokenAttributesBySymbol(\"CK\");\n     *   => [\"0x06012c8cf97BEaD5deAe237070F9587f8E7A266d\", 1, \"CryptoKitties\"]\n     */\n    function getTokenAttributesBySymbol(string memory _symbol)\n        public\n        view\n        returns (\n            address,\n            uint,\n            string memory\n        )\n    {\n        bytes32 symbolHash = keccak256(abi.encode(_symbol));\n\n        TokenAttributes storage attributes = symbolHashToTokenAttributes[symbolHash];\n\n        return (\n            attributes.tokenAddress,\n            attributes.tokenIndex,\n            attributes.name\n        );\n    }\n\n    /**\n     * Given the index for a token in the registry, returns a tuple containing the token's address,\n     * the token's symbol, and the token's name.\n     *\n     * Example:\n     *   getTokenAttributesByIndex(1);\n     *   => [\"0x06012c8cf97BEaD5deAe237070F9587f8E7A266d\", \"CK\", \"CryptoKitties\"]\n     */\n    function getTokenAttributesByIndex(uint _index)\n        public\n        view\n        returns (\n            address,\n            string memory,\n            string memory\n        )\n    {\n        string memory symbol = getTokenSymbolByIndex(_index);\n\n        bytes32 symbolHash = keccak256(abi.encode(symbol));\n\n        TokenAttributes storage attributes = symbolHashToTokenAttributes[symbolHash];\n\n        return (\n            attributes.tokenAddress,\n            symbol,\n            attributes.name\n        );\n    }\n}\n",
  "sourcePath": "/home/niraj/Desktop/customcognito/contracts/ERC721TokenRegistry.sol",
  "compiler": {
    "name": "solc",
    "version": "0.5.16+commit.9c3226ce.Emscripten.clang"
  },
  "schemaVersion": "3.3.1",
  "updatedAt": "2020-11-02T12:32:43.890Z",
  "devdoc": {
    "methods": {}
  },
  "userdoc": {
    "methods": {
      "getTokenAddressByIndex(uint256)": {
        "notice": "Given the known index of a token within the registry's symbol list, returns the address of the token mapped to the symbol at that index."
      },
      "getTokenAddressBySymbol(string)": {
        "notice": "Given a symbol, resolves the current address of the token the symbol is mapped to."
      },
      "getTokenAttributesByIndex(uint256)": {
        "notice": "Given the index for a token in the registry, returns a tuple containing the token's address, the token's symbol, and the token's name.     * Example:  getTokenAttributesByIndex(1);  => [\"0x06012c8cf97BEaD5deAe237070F9587f8E7A266d\", \"CK\", \"CryptoKitties\"]"
      },
      "getTokenAttributesBySymbol(string)": {
        "notice": "Given the symbol for a token in the registry, returns a tuple containing the token's address, the token's index in the registry, and the token's name.     * Example:  getTokenAttributesBySymbol(\"CK\");  => [\"0x06012c8cf97BEaD5deAe237070F9587f8E7A266d\", 1, \"CryptoKitties\"]"
      },
      "getTokenIndexBySymbol(string)": {
        "notice": "Given a symbol, resolves the index of the token the symbol is mapped to within the registry's symbol list."
      },
      "getTokenNameByIndex(uint256)": {
        "notice": "Given the index for a token in the registry, returns the name of the token as provided in the associated TokensAttribute struct.     * Example:  getTokenNameByIndex(1);  => \"CryptoKitties\""
      },
      "getTokenNameBySymbol(string)": {
        "notice": "Given a symbol, returns the name of the token the symbol is mapped to within the registry's symbol list."
      },
      "getTokenSymbolByIndex(uint256)": {
        "notice": "Given an index, resolves the symbol of the token at that index in the registry's token symbol list."
      },
      "setTokenAttributes(string,address,string)": {
        "notice": "Maps the given symbol to the given token attributes."
      }
    },
    "notice": "The ERC721TokenRegistry is a basic registry mapping token symbols to their known, deployed addresses on the current blockchain. * Note that the TokenRegistry does *not* mediate any of the core protocol's business logic, but, rather, is a helpful utility for Terms Contracts to use in encoding, decoding, and resolving the addresses of currently deployed tokens. * At this point in time, administration of the Token Registry is under Dharma Labs' control.  With more sophisticated decentralized governance mechanisms, we intend to shift ownership of this utility contract to the Dharma community."
  }
}