{
  "contractName": "RepaymentRouter",
  "abi": [
    {
      "inputs": [
        {
          "internalType": "address",
          "name": "_debtRegistry",
          "type": "address"
        },
        {
          "internalType": "address",
          "name": "_tokenTransferProxy",
          "type": "address"
        }
      ],
      "payable": false,
      "stateMutability": "nonpayable",
      "type": "constructor"
    },
    {
      "anonymous": false,
      "inputs": [
        {
          "indexed": true,
          "internalType": "uint8",
          "name": "_errorId",
          "type": "uint8"
        },
        {
          "indexed": true,
          "internalType": "bytes32",
          "name": "_agreementId",
          "type": "bytes32"
        }
      ],
      "name": "LogError",
      "type": "event"
    },
    {
      "anonymous": false,
      "inputs": [
        {
          "indexed": true,
          "internalType": "bytes32",
          "name": "_agreementId",
          "type": "bytes32"
        },
        {
          "indexed": true,
          "internalType": "address",
          "name": "_payer",
          "type": "address"
        },
        {
          "indexed": true,
          "internalType": "address",
          "name": "_beneficiary",
          "type": "address"
        },
        {
          "indexed": false,
          "internalType": "uint256",
          "name": "_amount",
          "type": "uint256"
        },
        {
          "indexed": false,
          "internalType": "address",
          "name": "_token",
          "type": "address"
        }
      ],
      "name": "LogRepayment",
      "type": "event"
    },
    {
      "anonymous": false,
      "inputs": [
        {
          "indexed": true,
          "internalType": "address",
          "name": "previousOwner",
          "type": "address"
        }
      ],
      "name": "OwnershipRenounced",
      "type": "event"
    },
    {
      "anonymous": false,
      "inputs": [
        {
          "indexed": true,
          "internalType": "address",
          "name": "previousOwner",
          "type": "address"
        },
        {
          "indexed": true,
          "internalType": "address",
          "name": "newOwner",
          "type": "address"
        }
      ],
      "name": "OwnershipTransferred",
      "type": "event"
    },
    {
      "anonymous": false,
      "inputs": [],
      "name": "Pause",
      "type": "event"
    },
    {
      "anonymous": false,
      "inputs": [],
      "name": "Unpause",
      "type": "event"
    },
    {
      "constant": true,
      "inputs": [],
      "name": "debtRegistry",
      "outputs": [
        {
          "internalType": "contract DebtRegistry",
          "name": "",
          "type": "address"
        }
      ],
      "payable": false,
      "stateMutability": "view",
      "type": "function"
    },
    {
      "constant": true,
      "inputs": [],
      "name": "owner",
      "outputs": [
        {
          "internalType": "address",
          "name": "",
          "type": "address"
        }
      ],
      "payable": false,
      "stateMutability": "view",
      "type": "function"
    },
    {
      "constant": false,
      "inputs": [],
      "name": "pause",
      "outputs": [],
      "payable": false,
      "stateMutability": "nonpayable",
      "type": "function"
    },
    {
      "constant": true,
      "inputs": [],
      "name": "paused",
      "outputs": [
        {
          "internalType": "bool",
          "name": "",
          "type": "bool"
        }
      ],
      "payable": false,
      "stateMutability": "view",
      "type": "function"
    },
    {
      "constant": false,
      "inputs": [],
      "name": "renounceOwnership",
      "outputs": [],
      "payable": false,
      "stateMutability": "nonpayable",
      "type": "function"
    },
    {
      "constant": true,
      "inputs": [],
      "name": "tokenTransferProxy",
      "outputs": [
        {
          "internalType": "contract TokenTransferProxy",
          "name": "",
          "type": "address"
        }
      ],
      "payable": false,
      "stateMutability": "view",
      "type": "function"
    },
    {
      "constant": false,
      "inputs": [
        {
          "internalType": "address",
          "name": "newOwner",
          "type": "address"
        }
      ],
      "name": "transferOwnership",
      "outputs": [],
      "payable": false,
      "stateMutability": "nonpayable",
      "type": "function"
    },
    {
      "constant": false,
      "inputs": [],
      "name": "unpause",
      "outputs": [],
      "payable": false,
      "stateMutability": "nonpayable",
      "type": "function"
    },
    {
      "constant": false,
      "inputs": [
        {
          "internalType": "bytes32",
          "name": "agreementId",
          "type": "bytes32"
        },
        {
          "internalType": "uint256",
          "name": "amount",
          "type": "uint256"
        },
        {
          "internalType": "address",
          "name": "tokenAddress",
          "type": "address"
        }
      ],
      "name": "repay",
      "outputs": [
        {
          "internalType": "uint256",
          "name": "_amountRepaid",
          "type": "uint256"
        }
      ],
      "payable": false,
      "stateMutability": "nonpayable",
      "type": "function"
    }
  ],
  "bytecode": "0x608060405260008060146101000a81548160ff02191690831515021790555034801561002a57600080fd5b506040516110743803806110748339818101604052604081101561004d57600080fd5b810190808051906020019092919080519060200190929190505050336000806101000a81548173ffffffffffffffffffffffffffffffffffffffff021916908373ffffffffffffffffffffffffffffffffffffffff16021790555081600160006101000a81548173ffffffffffffffffffffffffffffffffffffffff021916908373ffffffffffffffffffffffffffffffffffffffff16021790555080600260006101000a81548173ffffffffffffffffffffffffffffffffffffffff021916908373ffffffffffffffffffffffffffffffffffffffff1602179055505050610f398061013b6000396000f3fe608060405234801561001057600080fd5b50600436106100935760003560e01c8063715018a611610066578063715018a6146101585780638456cb59146101625780638da5cb5b1461016c578063f2fde38b146101b6578063ff268125146101fa57610093565b80630eefdbad146100985780632f866f73146100e25780633f4ba83a1461012c5780635c975abb14610136575b600080fd5b6100a0610266565b604051808273ffffffffffffffffffffffffffffffffffffffff1673ffffffffffffffffffffffffffffffffffffffff16815260200191505060405180910390f35b6100ea61028c565b604051808273ffffffffffffffffffffffffffffffffffffffff1673ffffffffffffffffffffffffffffffffffffffff16815260200191505060405180910390f35b6101346102b2565b005b61013e61036c565b604051808215151515815260200191505060405180910390f35b61016061037f565b005b61016a61047f565b005b61017461053b565b604051808273ffffffffffffffffffffffffffffffffffffffff1673ffffffffffffffffffffffffffffffffffffffff16815260200191505060405180910390f35b6101f8600480360360208110156101cc57600080fd5b81019080803573ffffffffffffffffffffffffffffffffffffffff169060200190929190505050610560565b005b6102506004803603606081101561021057600080fd5b810190808035906020019092919080359060200190929190803573ffffffffffffffffffffffffffffffffffffffff1690602001909291905050506106b1565b6040518082815260200191505060405180910390f35b600260009054906101000a900473ffffffffffffffffffffffffffffffffffffffff1681565b600160009054906101000a900473ffffffffffffffffffffffffffffffffffffffff1681565b6000809054906101000a900473ffffffffffffffffffffffffffffffffffffffff1673ffffffffffffffffffffffffffffffffffffffff163373ffffffffffffffffffffffffffffffffffffffff161461030b57600080fd5b600060149054906101000a900460ff1661032457600080fd5b60008060146101000a81548160ff0219169083151502179055507f7805862f689e2f13df9f062ff482ad3ad112aca9e0847911ed832e158c525b3360405160405180910390a1565b600060149054906101000a900460ff1681565b6000809054906101000a900473ffffffffffffffffffffffffffffffffffffffff1673ffffffffffffffffffffffffffffffffffffffff163373ffffffffffffffffffffffffffffffffffffffff16146103d857600080fd5b6000809054906101000a900473ffffffffffffffffffffffffffffffffffffffff1673ffffffffffffffffffffffffffffffffffffffff167ff8df31144d9c2f0f6b59d69b8b98abd5459d07f2742c4df920b25aae33c6482060405160405180910390a260008060006101000a81548173ffffffffffffffffffffffffffffffffffffffff021916908373ffffffffffffffffffffffffffffffffffffffff160217905550565b6000809054906101000a900473ffffffffffffffffffffffffffffffffffffffff1673ffffffffffffffffffffffffffffffffffffffff163373ffffffffffffffffffffffffffffffffffffffff16146104d857600080fd5b600060149054906101000a900460ff16156104f257600080fd5b6001600060146101000a81548160ff0219169083151502179055507f6985a02210a168e66602d3235cb6db0e70f92b3ba4d376a33c0f3d9434bff62560405160405180910390a1565b6000809054906101000a900473ffffffffffffffffffffffffffffffffffffffff1681565b6000809054906101000a900473ffffffffffffffffffffffffffffffffffffffff1673ffffffffffffffffffffffffffffffffffffffff163373ffffffffffffffffffffffffffffffffffffffff16146105b957600080fd5b600073ffffffffffffffffffffffffffffffffffffffff168173ffffffffffffffffffffffffffffffffffffffff1614156105f357600080fd5b8073ffffffffffffffffffffffffffffffffffffffff166000809054906101000a900473ffffffffffffffffffffffffffffffffffffffff1673ffffffffffffffffffffffffffffffffffffffff167f8be0079c531659141344cd1fd0a4f28419497f9722a3daafe3b4186f6b6457e060405160405180910390a3806000806101000a81548173ffffffffffffffffffffffffffffffffffffffff021916908373ffffffffffffffffffffffffffffffffffffffff16021790555050565b60008060149054906101000a900460ff16156106cc57600080fd5b600073ffffffffffffffffffffffffffffffffffffffff168273ffffffffffffffffffffffffffffffffffffffff16141561070657600080fd5b6000831161071357600080fd5b600160009054906101000a900473ffffffffffffffffffffffffffffffffffffffff1673ffffffffffffffffffffffffffffffffffffffff16639758af1e856040518263ffffffff1660e01b81526004018082815260200191505060206040518083038186803b15801561078657600080fd5b505afa15801561079a573d6000803e3d6000fd5b505050506040513d60208110156107b057600080fd5b810190808051906020019092919050505061080b5783600060028111156107d357fe5b60ff167f36d86c59e00bd73dc19ba3adfe068e4b64ac7e92be35546adeddf1b956a87e9060405160405180910390a360009050610efd565b828273ffffffffffffffffffffffffffffffffffffffff166370a08231336040518263ffffffff1660e01b8152600401808273ffffffffffffffffffffffffffffffffffffffff1673ffffffffffffffffffffffffffffffffffffffff16815260200191505060206040518083038186803b15801561088957600080fd5b505afa15801561089d573d6000803e3d6000fd5b505050506040513d60208110156108b357600080fd5b810190808051906020019092919050505010806109dc5750828273ffffffffffffffffffffffffffffffffffffffff1663dd62ed3e33600260009054906101000a900473ffffffffffffffffffffffffffffffffffffffff166040518363ffffffff1660e01b8152600401808373ffffffffffffffffffffffffffffffffffffffff1673ffffffffffffffffffffffffffffffffffffffff1681526020018273ffffffffffffffffffffffffffffffffffffffff1673ffffffffffffffffffffffffffffffffffffffff1681526020019250505060206040518083038186803b15801561099f57600080fd5b505afa1580156109b3573d6000803e3d6000fd5b505050506040513d60208110156109c957600080fd5b8101908080519060200190929190505050105b15610a275783600160028111156109ef57fe5b60ff167f36d86c59e00bd73dc19ba3adfe068e4b64ac7e92be35546adeddf1b956a87e9060405160405180910390a360009050610efd565b6000600160009054906101000a900473ffffffffffffffffffffffffffffffffffffffff1673ffffffffffffffffffffffffffffffffffffffff1663f6f494c9866040518263ffffffff1660e01b81526004018082815260200191505060206040518083038186803b158015610a9c57600080fd5b505afa158015610ab0573d6000803e3d6000fd5b505050506040513d6020811015610ac657600080fd5b810190808051906020019092919050505090506000600160009054906101000a900473ffffffffffffffffffffffffffffffffffffffff1673ffffffffffffffffffffffffffffffffffffffff1663ba20dda4876040518263ffffffff1660e01b81526004018082815260200191505060206040518083038186803b158015610b4e57600080fd5b505afa158015610b62573d6000803e3d6000fd5b505050506040513d6020811015610b7857600080fd5b810190808051906020019092919050505090508173ffffffffffffffffffffffffffffffffffffffff16635f0280ba87338489896040518663ffffffff1660e01b8152600401808681526020018573ffffffffffffffffffffffffffffffffffffffff1673ffffffffffffffffffffffffffffffffffffffff1681526020018473ffffffffffffffffffffffffffffffffffffffff1673ffffffffffffffffffffffffffffffffffffffff1681526020018381526020018273ffffffffffffffffffffffffffffffffffffffff1673ffffffffffffffffffffffffffffffffffffffff16815260200195505050505050602060405180830381600087803b158015610c8257600080fd5b505af1158015610c96573d6000803e3d6000fd5b505050506040513d6020811015610cac57600080fd5b8101908080519060200190929190505050610d085785600280811115610cce57fe5b60ff167f36d86c59e00bd73dc19ba3adfe068e4b64ac7e92be35546adeddf1b956a87e9060405160405180910390a3600092505050610efd565b600260009054906101000a900473ffffffffffffffffffffffffffffffffffffffff1673ffffffffffffffffffffffffffffffffffffffff166315dacbea853384896040518563ffffffff1660e01b8152600401808573ffffffffffffffffffffffffffffffffffffffff1673ffffffffffffffffffffffffffffffffffffffff1681526020018473ffffffffffffffffffffffffffffffffffffffff1673ffffffffffffffffffffffffffffffffffffffff1681526020018373ffffffffffffffffffffffffffffffffffffffff1673ffffffffffffffffffffffffffffffffffffffff168152602001828152602001945050505050602060405180830381600087803b158015610e1957600080fd5b505af1158015610e2d573d6000803e3d6000fd5b505050506040513d6020811015610e4357600080fd5b8101908080519060200190929190505050610e5d57600080fd5b8073ffffffffffffffffffffffffffffffffffffffff163373ffffffffffffffffffffffffffffffffffffffff16877f43ea5a2b552489bf9de7c3d6ded86e3b82423e034255d06db4b388f806db50d08888604051808381526020018273ffffffffffffffffffffffffffffffffffffffff1673ffffffffffffffffffffffffffffffffffffffff1681526020019250505060405180910390a484925050505b939250505056fea265627a7a723158209bc0077530eaf3a94312d2dff7960773a890f877203de8a109ed7b7143736a5364736f6c63430005100032",
  "source": "/*\n\n  Copyright 2017 Dharma Labs Inc.\n\n  Licensed under the Apache License, Version 2.0 (the \"License\");\n  you may not use this file except in compliance with the License.\n  You may obtain a copy of the License at\n\n    http://www.apache.org/licenses/LICENSE-2.0\n\n  Unless required by applicable law or agreed to in writing, software\n  distributed under the License is distributed on an \"AS IS\" BASIS,\n  WITHOUT WARRANTIES OR CONDITIONS OF ANY KIND, either express or implied.\n  See the License for the specific language governing permissions and\n  limitations under the License.\n\n*/\n\n// SPDX-License-Identifier: MIT\npragma solidity >=0.4.21 <0.7.0;\n\nimport \"./DebtRegistry.sol\";\nimport \"./TermsContract.sol\";\nimport \"./TokenTransferProxy.sol\";\nimport \"./ERC20.sol\";\nimport \"../contracts/lifecycle/Pausable.sol\";\n\n\n\n/**\n * The RepaymentRouter routes allowers payers to make repayments on any\n * given debt agreement in any given token by routing the payments to\n * the debt agreement's beneficiary.  Additionally, the router acts\n * as a trusted oracle to the debt agreement's terms contract, informing\n * it of exactly what payments have been made in what quantity and in what token.\n *\n * Authors: Jaynti Kanani -- Github: jdkanani, Nadav Hollander -- Github: nadavhollander\n */\n\n \ncontract RepaymentRouter is Pausable {\n    DebtRegistry public debtRegistry;\n    TokenTransferProxy public tokenTransferProxy;\n\n    enum Errors {\n        DEBT_AGREEMENT_NONEXISTENT,\n        PAYER_BALANCE_OR_ALLOWANCE_INSUFFICIENT,\n        REPAYMENT_REJECTED_BY_TERMS_CONTRACT\n    }\n\n    event LogRepayment(\n        bytes32 indexed _agreementId,\n        address indexed _payer,\n        address indexed _beneficiary,\n        uint _amount,\n        address _token\n    );\n\n    event LogError(uint8 indexed _errorId, bytes32 indexed _agreementId);\n\n    /**\n     * Constructor points the repayment router at the deployed registry contract.\n     */\n    constructor (address _debtRegistry, address _tokenTransferProxy) public {\n        debtRegistry = DebtRegistry(_debtRegistry);\n        tokenTransferProxy = TokenTransferProxy(_tokenTransferProxy);\n    }\n\n    /**\n     * Given an agreement id, routes a repayment\n     * of a given ERC20 token to the debt's current beneficiary, and reports the repayment\n     * to the debt's associated terms contract.\n     */\n    function repay(\n        bytes32 agreementId,\n        uint256 amount,\n        address tokenAddress\n    )\n        public\n        whenNotPaused\n        returns (uint _amountRepaid)\n    {\n        require(tokenAddress != address(0));\n        require(amount > 0);\n\n        // Ensure agreement exists.\n        if (!debtRegistry.doesEntryExist(agreementId)) {\n            emit LogError(uint8(Errors.DEBT_AGREEMENT_NONEXISTENT), agreementId);\n            return 0;\n        }\n\n        // Check payer has sufficient balance and has granted router sufficient allowance.\n        if (ERC20(tokenAddress).balanceOf(msg.sender) < amount ||\n            ERC20(tokenAddress).allowance(msg.sender, address(tokenTransferProxy)) < amount) {\n            emit LogError(uint8(Errors.PAYER_BALANCE_OR_ALLOWANCE_INSUFFICIENT), agreementId);\n            return 0;\n        }\n\n        // Notify terms contract\n        address termsContract = debtRegistry.getTermsContract(agreementId);\n        address beneficiary = debtRegistry.getBeneficiary(agreementId);\n        if (!TermsContract(termsContract).registerRepayment(\n            agreementId,\n            msg.sender,\n            beneficiary,\n            amount,\n            tokenAddress\n        )) {\n            emit LogError(uint8(Errors.REPAYMENT_REJECTED_BY_TERMS_CONTRACT), agreementId);\n            return 0;\n        }\n\n        // Transfer amount to creditor\n        require(tokenTransferProxy.transferFrom(\n            tokenAddress,\n            msg.sender,\n            beneficiary,\n            amount\n        ));\n\n        // Log event for repayment\n       emit LogRepayment(agreementId, msg.sender, beneficiary, amount, tokenAddress);\n\n        return amount;\n    }\n}\n",
  "sourcePath": "/home/niraj/Desktop/customcognito/contracts/RepaymentRouter.sol",
  "compiler": {
    "name": "solc",
    "version": "0.5.16+commit.9c3226ce.Emscripten.clang"
  },
  "schemaVersion": "3.3.1",
  "updatedAt": "2020-11-09T08:10:46.840Z",
  "devdoc": {
    "methods": {
      "pause()": {
        "details": "called by the owner to pause, triggers stopped state"
      },
      "renounceOwnership()": {
        "details": "Allows the current owner to relinquish control of the contract."
      },
      "transferOwnership(address)": {
        "details": "Allows the current owner to transfer control of the contract to a newOwner.",
        "params": {
          "newOwner": "The address to transfer ownership to."
        }
      },
      "unpause()": {
        "details": "called by the owner to unpause, returns to normal state"
      }
    }
  },
  "userdoc": {
    "methods": {
      "constructor": "Constructor points the repayment router at the deployed registry contract.",
      "repay(bytes32,uint256,address)": {
        "notice": "Given an agreement id, routes a repayment of a given ERC20 token to the debt's current beneficiary, and reports the repayment to the debt's associated terms contract."
      }
    },
    "notice": "The RepaymentRouter routes allowers payers to make repayments on any given debt agreement in any given token by routing the payments to the debt agreement's beneficiary.  Additionally, the router acts as a trusted oracle to the debt agreement's terms contract, informing it of exactly what payments have been made in what quantity and in what token. * Authors: Jaynti Kanani -- Github: jdkanani, Nadav Hollander -- Github: nadavhollander"
  }
}