{
  "contractName": "TokenRegistry",
  "abi": [
    {
      "inputs": [],
      "payable": false,
      "stateMutability": "nonpayable",
      "type": "constructor"
    },
    {
      "anonymous": false,
      "inputs": [
        {
          "indexed": true,
          "internalType": "address",
          "name": "previousOwner",
          "type": "address"
        }
      ],
      "name": "OwnershipRenounced",
      "type": "event"
    },
    {
      "anonymous": false,
      "inputs": [
        {
          "indexed": true,
          "internalType": "address",
          "name": "previousOwner",
          "type": "address"
        },
        {
          "indexed": true,
          "internalType": "address",
          "name": "newOwner",
          "type": "address"
        }
      ],
      "name": "OwnershipTransferred",
      "type": "event"
    },
    {
      "constant": true,
      "inputs": [],
      "name": "owner",
      "outputs": [
        {
          "internalType": "address",
          "name": "",
          "type": "address"
        }
      ],
      "payable": false,
      "stateMutability": "view",
      "type": "function"
    },
    {
      "constant": true,
      "inputs": [
        {
          "internalType": "bytes32",
          "name": "",
          "type": "bytes32"
        }
      ],
      "name": "symbolHashToTokenAttributes",
      "outputs": [
        {
          "internalType": "address",
          "name": "tokenAddress",
          "type": "address"
        },
        {
          "internalType": "uint256",
          "name": "tokenIndex",
          "type": "uint256"
        },
        {
          "internalType": "string",
          "name": "name",
          "type": "string"
        },
        {
          "internalType": "uint8",
          "name": "numDecimals",
          "type": "uint8"
        }
      ],
      "payable": false,
      "stateMutability": "view",
      "type": "function"
    },
    {
      "constant": true,
      "inputs": [
        {
          "internalType": "uint256",
          "name": "",
          "type": "uint256"
        }
      ],
      "name": "tokenSymbolList",
      "outputs": [
        {
          "internalType": "string",
          "name": "",
          "type": "string"
        }
      ],
      "payable": false,
      "stateMutability": "view",
      "type": "function"
    },
    {
      "constant": true,
      "inputs": [],
      "name": "tokenSymbolListLength",
      "outputs": [
        {
          "internalType": "uint8",
          "name": "",
          "type": "uint8"
        }
      ],
      "payable": false,
      "stateMutability": "view",
      "type": "function"
    },
    {
      "constant": false,
      "inputs": [
        {
          "internalType": "string",
          "name": "_symbol",
          "type": "string"
        },
        {
          "internalType": "address",
          "name": "_tokenAddress",
          "type": "address"
        },
        {
          "internalType": "string",
          "name": "_tokenName",
          "type": "string"
        },
        {
          "internalType": "uint8",
          "name": "_numDecimals",
          "type": "uint8"
        }
      ],
      "name": "setTokenAttributes",
      "outputs": [],
      "payable": false,
      "stateMutability": "nonpayable",
      "type": "function"
    },
    {
      "constant": true,
      "inputs": [
        {
          "internalType": "string",
          "name": "_symbol",
          "type": "string"
        }
      ],
      "name": "getTokenAddressBySymbol",
      "outputs": [
        {
          "internalType": "address",
          "name": "",
          "type": "address"
        }
      ],
      "payable": false,
      "stateMutability": "view",
      "type": "function"
    },
    {
      "constant": true,
      "inputs": [
        {
          "internalType": "uint256",
          "name": "_index",
          "type": "uint256"
        }
      ],
      "name": "getTokenAddressByIndex",
      "outputs": [
        {
          "internalType": "address",
          "name": "",
          "type": "address"
        }
      ],
      "payable": false,
      "stateMutability": "view",
      "type": "function"
    },
    {
      "constant": true,
      "inputs": [
        {
          "internalType": "string",
          "name": "_symbol",
          "type": "string"
        }
      ],
      "name": "getTokenIndexBySymbol",
      "outputs": [
        {
          "internalType": "uint256",
          "name": "",
          "type": "uint256"
        }
      ],
      "payable": false,
      "stateMutability": "view",
      "type": "function"
    },
    {
      "constant": true,
      "inputs": [
        {
          "internalType": "uint256",
          "name": "_index",
          "type": "uint256"
        }
      ],
      "name": "getTokenSymbolByIndex",
      "outputs": [
        {
          "internalType": "string",
          "name": "",
          "type": "string"
        }
      ],
      "payable": false,
      "stateMutability": "view",
      "type": "function"
    },
    {
      "constant": true,
      "inputs": [
        {
          "internalType": "string",
          "name": "_symbol",
          "type": "string"
        }
      ],
      "name": "getTokenNameBySymbol",
      "outputs": [
        {
          "internalType": "string",
          "name": "",
          "type": "string"
        }
      ],
      "payable": false,
      "stateMutability": "view",
      "type": "function"
    },
    {
      "constant": true,
      "inputs": [
        {
          "internalType": "string",
          "name": "_symbol",
          "type": "string"
        }
      ],
      "name": "getNumDecimalsFromSymbol",
      "outputs": [
        {
          "internalType": "uint8",
          "name": "",
          "type": "uint8"
        }
      ],
      "payable": false,
      "stateMutability": "view",
      "type": "function"
    },
    {
      "constant": true,
      "inputs": [
        {
          "internalType": "uint256",
          "name": "_index",
          "type": "uint256"
        }
      ],
      "name": "getNumDecimalsByIndex",
      "outputs": [
        {
          "internalType": "uint8",
          "name": "",
          "type": "uint8"
        }
      ],
      "payable": false,
      "stateMutability": "view",
      "type": "function"
    },
    {
      "constant": true,
      "inputs": [
        {
          "internalType": "uint256",
          "name": "_index",
          "type": "uint256"
        }
      ],
      "name": "getTokenNameByIndex",
      "outputs": [
        {
          "internalType": "string",
          "name": "",
          "type": "string"
        }
      ],
      "payable": false,
      "stateMutability": "view",
      "type": "function"
    },
    {
      "constant": true,
      "inputs": [
        {
          "internalType": "string",
          "name": "_symbol",
          "type": "string"
        }
      ],
      "name": "getTokenAttributesBySymbol",
      "outputs": [
        {
          "internalType": "address",
          "name": "",
          "type": "address"
        },
        {
          "internalType": "uint256",
          "name": "",
          "type": "uint256"
        },
        {
          "internalType": "string",
          "name": "",
          "type": "string"
        },
        {
          "internalType": "uint256",
          "name": "",
          "type": "uint256"
        }
      ],
      "payable": false,
      "stateMutability": "view",
      "type": "function"
    },
    {
      "constant": true,
      "inputs": [
        {
          "internalType": "uint256",
          "name": "_index",
          "type": "uint256"
        }
      ],
      "name": "getTokenAttributesByIndex",
      "outputs": [
        {
          "internalType": "address",
          "name": "",
          "type": "address"
        },
        {
          "internalType": "string",
          "name": "",
          "type": "string"
        },
        {
          "internalType": "string",
          "name": "",
          "type": "string"
        },
        {
          "internalType": "uint8",
          "name": "",
          "type": "uint8"
        }
      ],
      "payable": false,
      "stateMutability": "view",
      "type": "function"
    },
    {
      "constant": false,
      "inputs": [
        {
          "internalType": "address",
          "name": "newOwner",
          "type": "address"
        }
      ],
      "name": "transferOwnership",
      "outputs": [],
      "payable": false,
      "stateMutability": "nonpayable",
      "type": "function"
    },
    {
      "constant": false,
      "inputs": [],
      "name": "renounceOwnership",
      "outputs": [],
      "payable": false,
      "stateMutability": "nonpayable",
      "type": "function"
    }
  ],
  "bytecode": "0x608060405234801561001057600080fd5b503361010160016101000a81548173ffffffffffffffffffffffffffffffffffffffff021916908373ffffffffffffffffffffffffffffffffffffffff160217905550612033806100626000396000f3fe608060405234801561001057600080fd5b506004361061010b5760003560e01c80638052348b116100a257806395f121bf1161007157806395f121bf14610a95578063bd7b564d14610b3c578063c51ccb4014610c70578063f2fde38b14610c94578063fa7f369714610cd85761010b565b80638052348b146107b957806380ec85871461092e57806382f6943014610a035780638da5cb5b14610a4b5761010b565b806351d658d2116100de57806351d658d21461051b5780635715c5b71461069a5780636e7cbb0d14610708578063715018a6146107af5761010b565b80631e71f8d1146101105780632e1e1bb3146102635780633550b6d9146103325780633dbe284a1461042d575b600080fd5b61013c6004803603602081101561012657600080fd5b8101908080359060200190929190505050610d7f565b604051808573ffffffffffffffffffffffffffffffffffffffff1673ffffffffffffffffffffffffffffffffffffffff16815260200180602001806020018460ff1660ff168152602001838103835286818151815260200191508051906020019080838360005b838110156101be5780820151818401526020810190506101a3565b50505050905090810190601f1680156101eb5780820380516001836020036101000a031916815260200191505b50838103825285818151815260200191508051906020019080838360005b83811015610224578082015181840152602081019050610209565b50505050905090810190601f1680156102515780820380516001836020036101000a031916815260200191505b50965050505050505060405180910390f35b61031c6004803603602081101561027957600080fd5b810190808035906020019064010000000081111561029657600080fd5b8201836020820111156102a857600080fd5b803590602001918460018302840111640100000000831117156102ca57600080fd5b91908080601f016020809104026020016040519081016040528093929190818152602001838380828437600081840152601f19601f820116905080830192505050505050509192919290505050610f23565b6040518082815260200191505060405180910390f35b6103eb6004803603602081101561034857600080fd5b810190808035906020019064010000000081111561036557600080fd5b82018360208201111561037757600080fd5b8035906020019184600183028401116401000000008311171561039957600080fd5b91908080601f016020809104026020016040519081016040528093929190818152602001838380828437600081840152601f19601f820116905080830192505050505050509192919290505050610fd8565b604051808273ffffffffffffffffffffffffffffffffffffffff1673ffffffffffffffffffffffffffffffffffffffff16815260200191505060405180910390f35b6104596004803603602081101561044357600080fd5b81019080803590602001909291905050506110ad565b604051808573ffffffffffffffffffffffffffffffffffffffff1673ffffffffffffffffffffffffffffffffffffffff168152602001848152602001806020018360ff1660ff168152602001828103825284818151815260200191508051906020019080838360005b838110156104dd5780820151818401526020810190506104c2565b50505050905090810190601f16801561050a5780820380516001836020036101000a031916815260200191505b509550505050505060405180910390f35b6106986004803603608081101561053157600080fd5b810190808035906020019064010000000081111561054e57600080fd5b82018360208201111561056057600080fd5b8035906020019184600183028401116401000000008311171561058257600080fd5b91908080601f016020809104026020016040519081016040528093929190818152602001838380828437600081840152601f19601f820116905080830192505050505050509192919290803573ffffffffffffffffffffffffffffffffffffffff1690602001909291908035906020019064010000000081111561060557600080fd5b82018360208201111561061757600080fd5b8035906020019184600183028401116401000000008311171561063957600080fd5b91908080601f016020809104026020016040519081016040528093929190818152602001838380828437600081840152601f19601f820116905080830192505050505050509192919290803560ff1690602001909291905050506111a2565b005b6106c6600480360360208110156106b057600080fd5b81019080803590602001909291905050506115ec565b604051808273ffffffffffffffffffffffffffffffffffffffff1673ffffffffffffffffffffffffffffffffffffffff16815260200191505060405180910390f35b6107346004803603602081101561071e57600080fd5b81019080803590602001909291905050506116aa565b6040518080602001828103825283818151815260200191508051906020019080838360005b83811015610774578082015181840152602081019050610759565b50505050905090810190601f1680156107a15780820380516001836020036101000a031916815260200191505b509250505060405180910390f35b6107b761175b565b005b610872600480360360208110156107cf57600080fd5b81019080803590602001906401000000008111156107ec57600080fd5b8201836020820111156107fe57600080fd5b8035906020019184600183028401116401000000008311171561082057600080fd5b91908080601f016020809104026020016040519081016040528093929190818152602001838380828437600081840152601f19601f820116905080830192505050505050509192919290505050611861565b604051808573ffffffffffffffffffffffffffffffffffffffff1673ffffffffffffffffffffffffffffffffffffffff16815260200184815260200180602001838152602001828103825284818151815260200191508051906020019080838360005b838110156108f05780820151818401526020810190506108d5565b50505050905090810190601f16801561091d5780820380516001836020036101000a031916815260200191505b509550505050505060405180910390f35b6109e76004803603602081101561094457600080fd5b810190808035906020019064010000000081111561096157600080fd5b82018360208201111561097357600080fd5b8035906020019184600183028401116401000000008311171561099557600080fd5b91908080601f016020809104026020016040519081016040528093929190818152602001838380828437600081840152601f19601f820116905080830192505050505050509192919290505050611a00565b604051808260ff1660ff16815260200191505060405180910390f35b610a2f60048036036020811015610a1957600080fd5b8101908080359060200190929190505050611ac2565b604051808260ff1660ff16815260200191505060405180910390f35b610a53611ae2565b604051808273ffffffffffffffffffffffffffffffffffffffff1673ffffffffffffffffffffffffffffffffffffffff16815260200191505060405180910390f35b610ac160048036036020811015610aab57600080fd5b8101908080359060200190929190505050611b09565b6040518080602001828103825283818151815260200191508051906020019080838360005b83811015610b01578082015181840152602081019050610ae6565b50505050905090810190601f168015610b2e5780820380516001836020036101000a031916815260200191505b509250505060405180910390f35b610bf560048036036020811015610b5257600080fd5b8101908080359060200190640100000000811115610b6f57600080fd5b820183602082011115610b8157600080fd5b80359060200191846001830284011164010000000083111715610ba357600080fd5b91908080601f016020809104026020016040519081016040528093929190818152602001838380828437600081840152601f19601f820116905080830192505050505050509192919290505050611bba565b6040518080602001828103825283818151815260200191508051906020019080838360005b83811015610c35578082015181840152602081019050610c1a565b50505050905090810190601f168015610c625780820380516001836020036101000a031916815260200191505b509250505060405180910390f35b610c78611d08565b604051808260ff1660ff16815260200191505060405180910390f35b610cd660048036036020811015610caa57600080fd5b81019080803573ffffffffffffffffffffffffffffffffffffffff169060200190929190505050611d1c565b005b610d0460048036036020811015610cee57600080fd5b8101908080359060200190929190505050611e73565b6040518080602001828103825283818151815260200191508051906020019080838360005b83811015610d44578082015181840152602081019050610d29565b50505050905090810190601f168015610d715780820380516001836020036101000a031916815260200191505b509250505060405180910390f35b600060608060006060610d91866116aa565b90506000816040516020018080602001828103825283818151815260200191508051906020019080838360005b83811015610dd9578082015181840152602081019050610dbe565b50505050905090810190601f168015610e065780820380516001836020036101000a031916815260200191505b5092505050604051602081830303815290604052805190602001209050600080600083815260200190815260200160002090508060000160009054906101000a900473ffffffffffffffffffffffffffffffffffffffff1683826002018360030160009054906101000a900460ff16818054600181600116156101000203166002900480601f016020809104026020016040519081016040528092919081815260200182805460018160011615610100020316600290048015610f0a5780601f10610edf57610100808354040283529160200191610f0a565b820191906000526020600020905b815481529060010190602001808311610eed57829003601f168201915b5050505050915096509650965096505050509193509193565b600080826040516020018080602001828103825283818151815260200191508051906020019080838360005b83811015610f6a578082015181840152602081019050610f4f565b50505050905090810190601f168015610f975780820380516001836020036101000a031916815260200191505b509250505060405160208183030381529060405280519060200120905060008060008381526020019081526020016000209050806001015492505050919050565b600080826040516020018080602001828103825283818151815260200191508051906020019080838360005b8381101561101f578082015181840152602081019050611004565b50505050905090810190601f16801561104c5780820380516001836020036101000a031916815260200191505b5092505050604051602081830303815290604052805190602001209050600080600083815260200190815260200160002090508060000160009054906101000a900473ffffffffffffffffffffffffffffffffffffffff1692505050919050565b60006020528060005260406000206000915090508060000160009054906101000a900473ffffffffffffffffffffffffffffffffffffffff1690806001015490806002018054600181600116156101000203166002900480601f0160208091040260200160405190810160405280929190818152602001828054600181600116156101000203166002900480156111855780601f1061115a57610100808354040283529160200191611185565b820191906000526020600020905b81548152906001019060200180831161116857829003601f168201915b5050505050908060030160009054906101000a900460ff16905084565b61010160019054906101000a900473ffffffffffffffffffffffffffffffffffffffff1673ffffffffffffffffffffffffffffffffffffffff163373ffffffffffffffffffffffffffffffffffffffff16146111fd57600080fd5b6000846040516020018080602001828103825283818151815260200191508051906020019080838360005b83811015611243578082015181840152602081019050611228565b50505050905090810190601f1680156112705780820380516001836020036101000a031916815260200191505b5092505050604051602081830303815290604052805190602001209050611295611e98565b6000808381526020019081526020016000206040518060800160405290816000820160009054906101000a900473ffffffffffffffffffffffffffffffffffffffff1673ffffffffffffffffffffffffffffffffffffffff1673ffffffffffffffffffffffffffffffffffffffff16815260200160018201548152602001600282018054600181600116156101000203166002900480601f0160208091040260200160405190810160405280929190818152602001828054600181600116156101000203166002900480156113ab5780601f10611380576101008083540402835291602001916113ab565b820191906000526020600020905b81548152906001019060200180831161138e57829003601f168201915b505050505081526020016003820160009054906101000a900460ff1660ff1660ff16815250509050600073ffffffffffffffffffffffffffffffffffffffff16816000015173ffffffffffffffffffffffffffffffffffffffff1614156114eb5784816000019073ffffffffffffffffffffffffffffffffffffffff16908173ffffffffffffffffffffffffffffffffffffffff168152505082816060019060ff16908160ff168152505083816040018190525061010160009054906101000a900460ff1660ff1681602001818152505085600161010160009054906101000a900460ff1660ff16610100811061149e57fe5b0190805190602001906114b2929190611ed9565b50610101600081819054906101000a900460ff168092919060010191906101000a81548160ff021916908360ff1602179055505061153f565b84816000019073ffffffffffffffffffffffffffffffffffffffff16908173ffffffffffffffffffffffffffffffffffffffff168152505082816060019060ff16908160ff16815250508381604001819052505b8060008084815260200190815260200160002060008201518160000160006101000a81548173ffffffffffffffffffffffffffffffffffffffff021916908373ffffffffffffffffffffffffffffffffffffffff1602179055506020820151816001015560408201518160020190805190602001906115bf929190611f59565b5060608201518160030160006101000a81548160ff021916908360ff160217905550905050505050505050565b60008060018361010081106115fd57fe5b0190506116a2818054600181600116156101000203166002900480601f0160208091040260200160405190810160405280929190818152602001828054600181600116156101000203166002900480156116985780601f1061166d57610100808354040283529160200191611698565b820191906000526020600020905b81548152906001019060200180831161167b57829003601f168201915b5050505050610fd8565b915050919050565b606060018261010081106116ba57fe5b018054600181600116156101000203166002900480601f01602080910402602001604051908101604052809291908181526020018280546001816001161561010002031660029004801561174f5780601f106117245761010080835404028352916020019161174f565b820191906000526020600020905b81548152906001019060200180831161173257829003601f168201915b50505050509050919050565b61010160019054906101000a900473ffffffffffffffffffffffffffffffffffffffff1673ffffffffffffffffffffffffffffffffffffffff163373ffffffffffffffffffffffffffffffffffffffff16146117b657600080fd5b61010160019054906101000a900473ffffffffffffffffffffffffffffffffffffffff1673ffffffffffffffffffffffffffffffffffffffff167ff8df31144d9c2f0f6b59d69b8b98abd5459d07f2742c4df920b25aae33c6482060405160405180910390a2600061010160016101000a81548173ffffffffffffffffffffffffffffffffffffffff021916908373ffffffffffffffffffffffffffffffffffffffff160217905550565b6000806060600080856040516020018080602001828103825283818151815260200191508051906020019080838360005b838110156118ad578082015181840152602081019050611892565b50505050905090810190601f1680156118da5780820380516001836020036101000a031916815260200191505b5092505050604051602081830303815290604052805190602001209050600080600083815260200190815260200160002090508060000160009054906101000a900473ffffffffffffffffffffffffffffffffffffffff168160010154826002018360030160009054906101000a900460ff16818054600181600116156101000203166002900480601f0160208091040260200160405190810160405280929190818152602001828054600181600116156101000203166002900480156119e25780601f106119b7576101008083540402835291602001916119e2565b820191906000526020600020905b8154815290600101906020018083116119c557829003601f168201915b505050505091508060ff169050955095509550955050509193509193565b600080826040516020018080602001828103825283818151815260200191508051906020019080838360005b83811015611a47578082015181840152602081019050611a2c565b50505050905090810190601f168015611a745780820380516001836020036101000a031916815260200191505b5092505050604051602081830303815290604052805190602001209050600080600083815260200190815260200160002090508060030160009054906101000a900460ff1692505050919050565b60006060611acf836116aa565b9050611ada81611a00565b915050919050565b61010160019054906101000a900473ffffffffffffffffffffffffffffffffffffffff1681565b6001816101008110611b1757fe5b016000915090508054600181600116156101000203166002900480601f016020809104026020016040519081016040528092919081815260200182805460018160011615610100020316600290048015611bb25780601f10611b8757610100808354040283529160200191611bb2565b820191906000526020600020905b815481529060010190602001808311611b9557829003601f168201915b505050505081565b60606000826040516020018080602001828103825283818151815260200191508051906020019080838360005b83811015611c02578082015181840152602081019050611be7565b50505050905090810190601f168015611c2f5780820380516001836020036101000a031916815260200191505b509250505060405160208183030381529060405280519060200120905060008060008381526020019081526020016000209050806002018054600181600116156101000203166002900480601f016020809104026020016040519081016040528092919081815260200182805460018160011615610100020316600290048015611cfa5780601f10611ccf57610100808354040283529160200191611cfa565b820191906000526020600020905b815481529060010190602001808311611cdd57829003601f168201915b505050505092505050919050565b61010160009054906101000a900460ff1681565b61010160019054906101000a900473ffffffffffffffffffffffffffffffffffffffff1673ffffffffffffffffffffffffffffffffffffffff163373ffffffffffffffffffffffffffffffffffffffff1614611d7757600080fd5b600073ffffffffffffffffffffffffffffffffffffffff168173ffffffffffffffffffffffffffffffffffffffff161415611db157600080fd5b8073ffffffffffffffffffffffffffffffffffffffff1661010160019054906101000a900473ffffffffffffffffffffffffffffffffffffffff1673ffffffffffffffffffffffffffffffffffffffff167f8be0079c531659141344cd1fd0a4f28419497f9722a3daafe3b4186f6b6457e060405160405180910390a38061010160016101000a81548173ffffffffffffffffffffffffffffffffffffffff021916908373ffffffffffffffffffffffffffffffffffffffff16021790555050565b606080611e7f836116aa565b90506060611e8c82611bba565b90508092505050919050565b6040518060800160405280600073ffffffffffffffffffffffffffffffffffffffff1681526020016000815260200160608152602001600060ff1681525090565b828054600181600116156101000203166002900490600052602060002090601f016020900481019282601f10611f1a57805160ff1916838001178555611f48565b82800160010185558215611f48579182015b82811115611f47578251825591602001919060010190611f2c565b5b509050611f559190611fd9565b5090565b828054600181600116156101000203166002900490600052602060002090601f016020900481019282601f10611f9a57805160ff1916838001178555611fc8565b82800160010185558215611fc8579182015b82811115611fc7578251825591602001919060010190611fac565b5b509050611fd59190611fd9565b5090565b611ffb91905b80821115611ff7576000816000905550600101611fdf565b5090565b9056fea265627a7a723158201963f94f7bde9a485e64b4dc4143379730323ab528ee41d9ef5a09d0f10d5fbf64736f6c63430005100032",
  "source": "// SPDX-License-Identifier: MIT\npragma solidity >=0.4.21 <0.7.0;\n\n\n\n\n/**\n * The TokenRegistry is a basic registry mapping token symbols\n * to their known, deployed addresses on the current blockchain.\n *\n * Note that the TokenRegistry does *not* mediate any of the\n * core protocol's business logic, but, rather, is a helpful\n * utility for Terms Contracts to use in encoding, decoding, and\n * resolving the addresses of currently deployed tokens.\n *\n * At this point in time, administration of the Token Registry is\n * under Dharma Labs' control.  With more sophisticated decentralized\n * governance mechanisms, we intend to shift ownership of this utility\n * contract to the Dharma community.\n */\ncontract TokenRegistry {\n    \n    mapping (bytes32 => TokenAttributes) public symbolHashToTokenAttributes;\n    string[256] public tokenSymbolList;\n    uint8 public tokenSymbolListLength;\n    address public owner;\n\n    struct TokenAttributes {\n        // The ERC20 contract address.\n        address tokenAddress;\n        // The index in `tokenSymbolList` where the token's symbol can be found.\n        uint tokenIndex;\n        // The name of the given token, e.g. \"Canonical Wrapped Ether\"\n        string name;\n        // The number of digits that come after the decimal place when displaying token value.\n        uint8 numDecimals;\n    }\n\n    /**\n     * Maps the given symbol to the given token attributes.\n     */\n    function setTokenAttributes(\n        string memory _symbol,\n        address _tokenAddress,\n        string memory _tokenName,\n        uint8 _numDecimals\n    )\n        public onlyOwner\n    {\n        bytes32 symbolHash = keccak256(abi.encode(_symbol));\n\n        // Attempt to retrieve the token's attributes from the registry.\n        TokenAttributes memory attributes = symbolHashToTokenAttributes[symbolHash];\n\n        if (attributes.tokenAddress == address(0)) {\n            // The token has not yet been added to the registry.\n            attributes.tokenAddress = _tokenAddress;\n            attributes.numDecimals = _numDecimals;\n            attributes.name = _tokenName;\n            attributes.tokenIndex = tokenSymbolListLength;\n\n            tokenSymbolList[tokenSymbolListLength] = _symbol;\n            tokenSymbolListLength++;\n        } else {\n            // The token has already been added to the registry; update attributes.\n            attributes.tokenAddress = _tokenAddress;\n            attributes.numDecimals = _numDecimals;\n            attributes.name = _tokenName;\n        }\n\n        // Update this contract's storage.\n        symbolHashToTokenAttributes[symbolHash] = attributes;\n    }\n\n    /**\n     * Given a symbol, resolves the current address of the token the symbol is mapped to.\n     */\n    function getTokenAddressBySymbol(string memory _symbol) public view returns (address) {\n        bytes32 symbolHash = keccak256(abi.encode(_symbol));\n\n        TokenAttributes storage attributes = symbolHashToTokenAttributes[symbolHash];\n\n        return attributes.tokenAddress;\n    }\n\n    /**\n     * Given the known index of a token within the registry's symbol list,\n     * returns the address of the token mapped to the symbol at that index.\n     *\n     * This is a useful utility for compactly encoding the address of a token into a\n     * TermsContractParameters string -- by encoding a token by its index in a\n     * a 256 slot array, we can represent a token by a 1 byte uint instead of a 20 byte address.\n     */\n    function getTokenAddressByIndex(uint _index) public view returns (address) {\n        string storage symbol = tokenSymbolList[_index];\n\n        return getTokenAddressBySymbol(symbol);\n    }\n\n    /**\n     * Given a symbol, resolves the index of the token the symbol is mapped to within the registry's\n     * symbol list.\n     */\n    function getTokenIndexBySymbol(string memory _symbol) public view returns (uint) {\n        bytes32 symbolHash = keccak256(abi.encode(_symbol));\n\n        TokenAttributes storage attributes = symbolHashToTokenAttributes[symbolHash];\n\n        return attributes.tokenIndex;\n    }\n\n    /**\n     * Given an index, resolves the symbol of the token at that index in the registry's\n     * token symbol list.\n     */\n    function getTokenSymbolByIndex(uint _index) public view returns (string memory) {\n        return tokenSymbolList[_index];\n    }\n\n    /**\n     * Given a symbol, returns the name of the token the symbol is mapped to within the registry's\n     * symbol list.\n     */\n    function getTokenNameBySymbol(string memory _symbol) public view returns (string memory) {\n        bytes32 symbolHash = keccak256(abi.encode(_symbol));\n\n        TokenAttributes storage attributes = symbolHashToTokenAttributes[symbolHash];\n\n        return attributes.name;\n    }\n\n    /**\n     * Given the symbol for a token, returns the number of decimals as provided in\n     * the associated TokensAttribute struct.\n     *\n     * Example:\n     *   getNumDecimalsFromSymbol(\"REP\");\n     *   => 18\n     */\n    function getNumDecimalsFromSymbol(string memory _symbol) public view returns (uint8) {\n        bytes32 symbolHash = keccak256(abi.encode(_symbol));\n\n        TokenAttributes storage attributes = symbolHashToTokenAttributes[symbolHash];\n\n        return attributes.numDecimals;\n    }\n\n    /**\n     * Given the index for a token in the registry, returns the number of decimals as provided in\n     * the associated TokensAttribute struct.\n     *\n     * Example:\n     *   getNumDecimalsByIndex(1);\n     *   => 18\n     */\n    function getNumDecimalsByIndex(uint _index) public view returns (uint8) {\n        string memory symbol = getTokenSymbolByIndex(_index);\n\n        return getNumDecimalsFromSymbol(symbol);\n    }\n\n    /**\n     * Given the index for a token in the registry, returns the name of the token as provided in\n     * the associated TokensAttribute struct.\n     *\n     * Example:\n     *   getTokenNameByIndex(1);\n     *   => \"Canonical Wrapped Ether\"\n     */\n    function getTokenNameByIndex(uint _index) public view returns (string memory) {\n        string memory symbol = getTokenSymbolByIndex(_index);\n\n        string memory tokenName = getTokenNameBySymbol(symbol);\n\n        return tokenName;\n    }\n\n    /**\n     * Given the symbol for a token in the registry, returns a tuple containing the token's address,\n     * the token's index in the registry, the token's name, and the number of decimals.\n     *\n     * Example:\n     *   getTokenAttributesBySymbol(\"WETH\");\n     *   => [\"0xc02aaa39b223fe8d0a0e5c4f27ead9083c756cc2\", 1, \"Canonical Wrapped Ether\", 18]\n     */\n    function getTokenAttributesBySymbol(string memory _symbol)\n        public\n        view\n        returns (\n            address,\n            uint,\n            string memory,\n            uint\n        )\n    {\n        bytes32 symbolHash = keccak256(abi.encode(_symbol));\n\n        TokenAttributes storage attributes = symbolHashToTokenAttributes[symbolHash];\n\n        return (\n            attributes.tokenAddress,\n            attributes.tokenIndex,\n            attributes.name,\n            attributes.numDecimals\n        );\n    }\n\n    /**\n     * Given the index for a token in the registry, returns a tuple containing the token's address,\n     * the token's symbol, the token's name, and the number of decimals.\n     *\n     * Example:\n     *   getTokenAttributesByIndex(1);\n     *   => [\"0xc02aaa39b223fe8d0a0e5c4f27ead9083c756cc2\", \"WETH\", \"Canonical Wrapped Ether\", 18]\n     */\n    function getTokenAttributesByIndex(uint _index)\n        public\n        view\n        returns (\n            address,\n            string memory,\n            string memory,\n            uint8\n        )\n    {\n        string memory symbol = getTokenSymbolByIndex(_index);\n\n        bytes32 symbolHash = keccak256(abi.encode(symbol));\n\n        TokenAttributes storage attributes = symbolHashToTokenAttributes[symbolHash];\n\n        return (\n            attributes.tokenAddress,\n            symbol,\n            attributes.name,\n            attributes.numDecimals\n        );\n    }\n\n    \n    event OwnershipRenounced(address indexed previousOwner);\n  event OwnershipTransferred(\n    address indexed previousOwner,\n    address indexed newOwner\n  );\n\n\n  /**\n   * @dev The Ownable constructor sets the original `owner` of the contract to the sender\n   * account.\n   */\n  constructor() public {\n    owner = msg.sender;\n  }\n\n  /**\n   * @dev Throws if called by any account other than the owner.\n   */\n  modifier onlyOwner() {\n    require(msg.sender == owner);\n    _;\n  }\n\n  /**\n   * @dev Allows the current owner to transfer control of the contract to a newOwner.\n   * @param newOwner The address to transfer ownership to.\n   */\n  function transferOwnership(address newOwner) public onlyOwner {\n    require(newOwner != address(0));\n    emit OwnershipTransferred(owner, newOwner);\n    owner = newOwner;\n  }\n\n  /**\n   * @dev Allows the current owner to relinquish control of the contract.\n   */\n  function renounceOwnership() public onlyOwner {\n    emit OwnershipRenounced(owner);\n    owner = address(0);\n  }\n\n\n    \n}\n",
  "sourcePath": "/home/niraj/Desktop/customcognito/contracts/TokenRegistry.sol",
  "compiler": {
    "name": "solc",
    "version": "0.5.16+commit.9c3226ce.Emscripten.clang"
  },
  "schemaVersion": "3.3.1",
  "updatedAt": "2020-11-04T05:52:15.539Z",
  "devdoc": {
    "methods": {
      "constructor": {
        "details": "The Ownable constructor sets the original `owner` of the contract to the sender account."
      },
      "renounceOwnership()": {
        "details": "Allows the current owner to relinquish control of the contract."
      },
      "transferOwnership(address)": {
        "details": "Allows the current owner to transfer control of the contract to a newOwner.",
        "params": {
          "newOwner": "The address to transfer ownership to."
        }
      }
    }
  },
  "userdoc": {
    "methods": {
      "getNumDecimalsByIndex(uint256)": {
        "notice": "Given the index for a token in the registry, returns the number of decimals as provided in the associated TokensAttribute struct.     * Example:  getNumDecimalsByIndex(1);  => 18"
      },
      "getNumDecimalsFromSymbol(string)": {
        "notice": "Given the symbol for a token, returns the number of decimals as provided in the associated TokensAttribute struct.     * Example:  getNumDecimalsFromSymbol(\"REP\");  => 18"
      },
      "getTokenAddressByIndex(uint256)": {
        "notice": "Given the known index of a token within the registry's symbol list, returns the address of the token mapped to the symbol at that index.     * This is a useful utility for compactly encoding the address of a token into a TermsContractParameters string -- by encoding a token by its index in a a 256 slot array, we can represent a token by a 1 byte uint instead of a 20 byte address."
      },
      "getTokenAddressBySymbol(string)": {
        "notice": "Given a symbol, resolves the current address of the token the symbol is mapped to."
      },
      "getTokenAttributesByIndex(uint256)": {
        "notice": "Given the index for a token in the registry, returns a tuple containing the token's address, the token's symbol, the token's name, and the number of decimals.     * Example:  getTokenAttributesByIndex(1);  => [\"0xc02aaa39b223fe8d0a0e5c4f27ead9083c756cc2\", \"WETH\", \"Canonical Wrapped Ether\", 18]"
      },
      "getTokenAttributesBySymbol(string)": {
        "notice": "Given the symbol for a token in the registry, returns a tuple containing the token's address, the token's index in the registry, the token's name, and the number of decimals.     * Example:  getTokenAttributesBySymbol(\"WETH\");  => [\"0xc02aaa39b223fe8d0a0e5c4f27ead9083c756cc2\", 1, \"Canonical Wrapped Ether\", 18]"
      },
      "getTokenIndexBySymbol(string)": {
        "notice": "Given a symbol, resolves the index of the token the symbol is mapped to within the registry's symbol list."
      },
      "getTokenNameByIndex(uint256)": {
        "notice": "Given the index for a token in the registry, returns the name of the token as provided in the associated TokensAttribute struct.     * Example:  getTokenNameByIndex(1);  => \"Canonical Wrapped Ether\""
      },
      "getTokenNameBySymbol(string)": {
        "notice": "Given a symbol, returns the name of the token the symbol is mapped to within the registry's symbol list."
      },
      "getTokenSymbolByIndex(uint256)": {
        "notice": "Given an index, resolves the symbol of the token at that index in the registry's token symbol list."
      },
      "setTokenAttributes(string,address,string,uint8)": {
        "notice": "Maps the given symbol to the given token attributes."
      }
    },
    "notice": "The TokenRegistry is a basic registry mapping token symbols to their known, deployed addresses on the current blockchain. * Note that the TokenRegistry does *not* mediate any of the core protocol's business logic, but, rather, is a helpful utility for Terms Contracts to use in encoding, decoding, and resolving the addresses of currently deployed tokens. * At this point in time, administration of the Token Registry is under Dharma Labs' control.  With more sophisticated decentralized governance mechanisms, we intend to shift ownership of this utility contract to the Dharma community."
  }
}