{
  "contractName": "TokenTransferProxy",
  "abi": [
    {
      "anonymous": false,
      "inputs": [
        {
          "indexed": true,
          "internalType": "address",
          "name": "agent",
          "type": "address"
        },
        {
          "indexed": false,
          "internalType": "string",
          "name": "callingContext",
          "type": "string"
        }
      ],
      "name": "AuthorizationRevoked",
      "type": "event"
    },
    {
      "anonymous": false,
      "inputs": [
        {
          "indexed": true,
          "internalType": "address",
          "name": "agent",
          "type": "address"
        },
        {
          "indexed": false,
          "internalType": "string",
          "name": "callingContext",
          "type": "string"
        }
      ],
      "name": "Authorized",
      "type": "event"
    },
    {
      "anonymous": false,
      "inputs": [
        {
          "indexed": true,
          "internalType": "address",
          "name": "previousOwner",
          "type": "address"
        }
      ],
      "name": "OwnershipRenounced",
      "type": "event"
    },
    {
      "anonymous": false,
      "inputs": [
        {
          "indexed": true,
          "internalType": "address",
          "name": "previousOwner",
          "type": "address"
        },
        {
          "indexed": true,
          "internalType": "address",
          "name": "newOwner",
          "type": "address"
        }
      ],
      "name": "OwnershipTransferred",
      "type": "event"
    },
    {
      "anonymous": false,
      "inputs": [],
      "name": "Pause",
      "type": "event"
    },
    {
      "anonymous": false,
      "inputs": [],
      "name": "Unpause",
      "type": "event"
    },
    {
      "constant": true,
      "inputs": [],
      "name": "CONTEXT",
      "outputs": [
        {
          "internalType": "string",
          "name": "",
          "type": "string"
        }
      ],
      "payable": false,
      "stateMutability": "view",
      "type": "function"
    },
    {
      "constant": true,
      "inputs": [],
      "name": "owner",
      "outputs": [
        {
          "internalType": "address",
          "name": "",
          "type": "address"
        }
      ],
      "payable": false,
      "stateMutability": "view",
      "type": "function"
    },
    {
      "constant": false,
      "inputs": [],
      "name": "pause",
      "outputs": [],
      "payable": false,
      "stateMutability": "nonpayable",
      "type": "function"
    },
    {
      "constant": true,
      "inputs": [],
      "name": "paused",
      "outputs": [
        {
          "internalType": "bool",
          "name": "",
          "type": "bool"
        }
      ],
      "payable": false,
      "stateMutability": "view",
      "type": "function"
    },
    {
      "constant": false,
      "inputs": [],
      "name": "renounceOwnership",
      "outputs": [],
      "payable": false,
      "stateMutability": "nonpayable",
      "type": "function"
    },
    {
      "constant": false,
      "inputs": [
        {
          "internalType": "address",
          "name": "newOwner",
          "type": "address"
        }
      ],
      "name": "transferOwnership",
      "outputs": [],
      "payable": false,
      "stateMutability": "nonpayable",
      "type": "function"
    },
    {
      "constant": false,
      "inputs": [],
      "name": "unpause",
      "outputs": [],
      "payable": false,
      "stateMutability": "nonpayable",
      "type": "function"
    },
    {
      "constant": false,
      "inputs": [
        {
          "internalType": "address",
          "name": "_agent",
          "type": "address"
        }
      ],
      "name": "addAuthorizedTransferAgent",
      "outputs": [],
      "payable": false,
      "stateMutability": "nonpayable",
      "type": "function"
    },
    {
      "constant": false,
      "inputs": [
        {
          "internalType": "address",
          "name": "_agent",
          "type": "address"
        }
      ],
      "name": "revokeTransferAgentAuthorization",
      "outputs": [],
      "payable": false,
      "stateMutability": "nonpayable",
      "type": "function"
    },
    {
      "constant": true,
      "inputs": [],
      "name": "getAuthorizedTransferAgents",
      "outputs": [
        {
          "internalType": "address[]",
          "name": "authorizedAgents",
          "type": "address[]"
        }
      ],
      "payable": false,
      "stateMutability": "view",
      "type": "function"
    },
    {
      "constant": false,
      "inputs": [
        {
          "internalType": "address",
          "name": "_token",
          "type": "address"
        },
        {
          "internalType": "address",
          "name": "_from",
          "type": "address"
        },
        {
          "internalType": "address",
          "name": "_to",
          "type": "address"
        },
        {
          "internalType": "uint256",
          "name": "_amount",
          "type": "uint256"
        }
      ],
      "name": "transferFrom",
      "outputs": [
        {
          "internalType": "bool",
          "name": "_success",
          "type": "bool"
        }
      ],
      "payable": false,
      "stateMutability": "nonpayable",
      "type": "function"
    }
  ],
  "bytecode": "0x608060405260008060146101000a81548160ff021916908315150217905550336000806101000a81548173ffffffffffffffffffffffffffffffffffffffff021916908373ffffffffffffffffffffffffffffffffffffffff1602179055506110918061006d6000396000f3fe608060405234801561001057600080fd5b50600436106100a95760003560e01c8063715018a611610071578063715018a6146102475780638456cb59146102515780638da5cb5b1461025b57806394ae6e71146102a55780639c200302146102e9578063f2fde38b14610348576100a9565b80630a8f7b52146100ae57806315dacbea146100f25780632e667c4e146101985780633f4ba83a1461021b5780635c975abb14610225575b600080fd5b6100f0600480360360208110156100c457600080fd5b81019080803573ffffffffffffffffffffffffffffffffffffffff16906020019092919050505061038c565b005b61017e6004803603608081101561010857600080fd5b81019080803573ffffffffffffffffffffffffffffffffffffffff169060200190929190803573ffffffffffffffffffffffffffffffffffffffff169060200190929190803573ffffffffffffffffffffffffffffffffffffffff16906020019092919080359060200190929190505050610433565b604051808215151515815260200191505060405180910390f35b6101a0610552565b6040518080602001828103825283818151815260200191508051906020019080838360005b838110156101e05780820151818401526020810190506101c5565b50505050905090810190601f16801561020d5780820380516001836020036101000a031916815260200191505b509250505060405180910390f35b61022361058b565b005b61022d610645565b604051808215151515815260200191505060405180910390f35b61024f610658565b005b610259610758565b005b610263610814565b604051808273ffffffffffffffffffffffffffffffffffffffff1673ffffffffffffffffffffffffffffffffffffffff16815260200191505060405180910390f35b6102e7600480360360208110156102bb57600080fd5b81019080803573ffffffffffffffffffffffffffffffffffffffff169060200190929190505050610839565b005b6102f16108e0565b6040518080602001828103825283818151815260200191508051906020019060200280838360005b83811015610334578082015181840152602081019050610319565b505050509050019250505060405180910390f35b61038a6004803603602081101561035e57600080fd5b81019080803573ffffffffffffffffffffffffffffffffffffffff1690602001909291905050506108f1565b005b6000809054906101000a900473ffffffffffffffffffffffffffffffffffffffff1673ffffffffffffffffffffffffffffffffffffffff163373ffffffffffffffffffffffffffffffffffffffff16146103e557600080fd5b610430816040518060400160405280601481526020017f746f6b656e2d7472616e736665722d70726f78790000000000000000000000008152506001610a429092919063ffffffff16565b50565b6000610449336001610c1f90919063ffffffff16565b61045257600080fd5b8473ffffffffffffffffffffffffffffffffffffffff166323b872dd8585856040518463ffffffff1660e01b8152600401808473ffffffffffffffffffffffffffffffffffffffff1673ffffffffffffffffffffffffffffffffffffffff1681526020018373ffffffffffffffffffffffffffffffffffffffff1673ffffffffffffffffffffffffffffffffffffffff1681526020018281526020019350505050602060405180830381600087803b15801561050d57600080fd5b505af1158015610521573d6000803e3d6000fd5b505050506040513d602081101561053757600080fd5b81019080805190602001909291905050509050949350505050565b6040518060400160405280601481526020017f746f6b656e2d7472616e736665722d70726f787900000000000000000000000081525081565b6000809054906101000a900473ffffffffffffffffffffffffffffffffffffffff1673ffffffffffffffffffffffffffffffffffffffff163373ffffffffffffffffffffffffffffffffffffffff16146105e457600080fd5b600060149054906101000a900460ff166105fd57600080fd5b60008060146101000a81548160ff0219169083151502179055507f7805862f689e2f13df9f062ff482ad3ad112aca9e0847911ed832e158c525b3360405160405180910390a1565b600060149054906101000a900460ff1681565b6000809054906101000a900473ffffffffffffffffffffffffffffffffffffffff1673ffffffffffffffffffffffffffffffffffffffff163373ffffffffffffffffffffffffffffffffffffffff16146106b157600080fd5b6000809054906101000a900473ffffffffffffffffffffffffffffffffffffffff1673ffffffffffffffffffffffffffffffffffffffff167ff8df31144d9c2f0f6b59d69b8b98abd5459d07f2742c4df920b25aae33c6482060405160405180910390a260008060006101000a81548173ffffffffffffffffffffffffffffffffffffffff021916908373ffffffffffffffffffffffffffffffffffffffff160217905550565b6000809054906101000a900473ffffffffffffffffffffffffffffffffffffffff1673ffffffffffffffffffffffffffffffffffffffff163373ffffffffffffffffffffffffffffffffffffffff16146107b157600080fd5b600060149054906101000a900460ff16156107cb57600080fd5b6001600060146101000a81548160ff0219169083151502179055507f6985a02210a168e66602d3235cb6db0e70f92b3ba4d376a33c0f3d9434bff62560405160405180910390a1565b6000809054906101000a900473ffffffffffffffffffffffffffffffffffffffff1681565b6000809054906101000a900473ffffffffffffffffffffffffffffffffffffffff1673ffffffffffffffffffffffffffffffffffffffff163373ffffffffffffffffffffffffffffffffffffffff161461089257600080fd5b6108dd816040518060400160405280601481526020017f746f6b656e2d7472616e736665722d70726f78790000000000000000000000008152506001610c789092919063ffffffff16565b50565b60606108ec6001610f64565b905090565b6000809054906101000a900473ffffffffffffffffffffffffffffffffffffffff1673ffffffffffffffffffffffffffffffffffffffff163373ffffffffffffffffffffffffffffffffffffffff161461094a57600080fd5b600073ffffffffffffffffffffffffffffffffffffffff168173ffffffffffffffffffffffffffffffffffffffff16141561098457600080fd5b8073ffffffffffffffffffffffffffffffffffffffff166000809054906101000a900473ffffffffffffffffffffffffffffffffffffffff1673ffffffffffffffffffffffffffffffffffffffff167f8be0079c531659141344cd1fd0a4f28419497f9722a3daafe3b4186f6b6457e060405160405180910390a3806000806101000a81548173ffffffffffffffffffffffffffffffffffffffff021916908373ffffffffffffffffffffffffffffffffffffffff16021790555050565b610a4c8383610ff6565b610a5557600080fd5b60018360000160008473ffffffffffffffffffffffffffffffffffffffff1673ffffffffffffffffffffffffffffffffffffffff16815260200190815260200160002060006101000a81548160ff021916908315150217905550826002018290806001815401808255809150509060018203906000526020600020016000909192909190916101000a81548173ffffffffffffffffffffffffffffffffffffffff021916908373ffffffffffffffffffffffffffffffffffffffff1602179055505060018360020180549050038360010160008473ffffffffffffffffffffffffffffffffffffffff1673ffffffffffffffffffffffffffffffffffffffff168152602001908152602001600020819055508173ffffffffffffffffffffffffffffffffffffffff167f571925c699f9072cec76b6c6c000571cc8d0bb5c47e5819202e2e9496c6508b5826040518080602001828103825283818151815260200191508051906020019080838360005b83811015610be0578082015181840152602081019050610bc5565b50505050905090810190601f168015610c0d5780820380516001836020036101000a031916815260200191505b509250505060405180910390a2505050565b60008260000160008373ffffffffffffffffffffffffffffffffffffffff1673ffffffffffffffffffffffffffffffffffffffff16815260200190815260200160002060009054906101000a900460ff16905092915050565b610c828383610c1f565b610c8b57600080fd5b60008360010160008473ffffffffffffffffffffffffffffffffffffffff1673ffffffffffffffffffffffffffffffffffffffff1681526020019081526020016000205490506000600185600201805490500390506000856002018281548110610cf157fe5b9060005260206000200160009054906101000a900473ffffffffffffffffffffffffffffffffffffffff1690508560000160008673ffffffffffffffffffffffffffffffffffffffff1673ffffffffffffffffffffffffffffffffffffffff16815260200190815260200160002060006101000a81549060ff021916905580866002018481548110610d7f57fe5b9060005260206000200160006101000a81548173ffffffffffffffffffffffffffffffffffffffff021916908373ffffffffffffffffffffffffffffffffffffffff160217905550828660010160008373ffffffffffffffffffffffffffffffffffffffff1673ffffffffffffffffffffffffffffffffffffffff168152602001908152602001600020819055508560010160008673ffffffffffffffffffffffffffffffffffffffff1673ffffffffffffffffffffffffffffffffffffffff16815260200190815260200160002060009055856002018281548110610e6157fe5b9060005260206000200160006101000a81549073ffffffffffffffffffffffffffffffffffffffff021916905560018660020181818054905003915081610ea8919061100b565b508473ffffffffffffffffffffffffffffffffffffffff167f0814e4ee85854cea446b4a27a460e5ffb41516230dbc02f226c07907e432241c856040518080602001828103825283818151815260200191508051906020019080838360005b83811015610f22578082015181840152602081019050610f07565b50505050905090810190601f168015610f4f5780820380516001836020036101000a031916815260200191505b509250505060405180910390a2505050505050565b606081600201805480602002602001604051908101604052809291908181526020018280548015610fea57602002820191906000526020600020905b8160009054906101000a900473ffffffffffffffffffffffffffffffffffffffff1673ffffffffffffffffffffffffffffffffffffffff1681526020019060010190808311610fa0575b50505050509050919050565b60006110028383610c1f565b15905092915050565b815481835581811115611032578183600052602060002091820191016110319190611037565b5b505050565b61105991905b8082111561105557600081600090555060010161103d565b5090565b9056fea265627a7a72315820af6aac7550c36c59754e7285033cbd325fc2f8b76bc9d29e83579a60a9143e6664736f6c63430005100032",
  "source": "/*\n\n  Copyright 2017 Dharma Labs Inc.\n\n  Licensed under the Apache License, Version 2.0 (the \"License\");\n  you may not use this file except in compliance with the License.\n  You may obtain a copy of the License at\n\n    http://www.apache.org/licenses/LICENSE-2.0\n\n  Unless required by applicable law or agreed to in writing, software\n  distributed under the License is distributed on an \"AS IS\" BASIS,\n  WITHOUT WARRANTIES OR CONDITIONS OF ANY KIND, either express or implied.\n  See the License for the specific language governing permissions and\n  limitations under the License.\n\n*/\n// SPDX-License-Identifier: MIT\npragma solidity >=0.4.21 <0.7.0;\n\nimport \"./DebtRegistry.sol\";\nimport { PermissionsLib, PermissionEvents } from \"../contracts/libraries/PermissionsLib.sol\";\nimport \"../contracts/lifecycle/Pausable.sol\";\nimport \"./ERC20.sol\";\n\n\n\n/**\n * The TokenTransferProxy is a proxy contract for transfering principal\n * and fee payments and repayments between agents and keepers in the Dharma\n * ecosystem.  It is decoupled from the DebtKernel in order to make upgrades to the\n * protocol contracts smoother -- if the DebtKernel or RepyamentRouter is upgraded to a new contract,\n * creditors will not have to grant new transfer approvals to a new contract's address.\n *\n * Author: Nadav Hollander -- Github: nadavhollander\n */\n\n \ncontract TokenTransferProxy is Pausable, PermissionEvents {\n    using PermissionsLib for PermissionsLib.Permissions;\n\n    PermissionsLib.Permissions internal tokenTransferPermissions;\n\n    string public constant CONTEXT = \"token-transfer-proxy\";\n\n    /**\n     * Add address to list of agents authorized to initiate `transferFrom` calls\n     */\n    function addAuthorizedTransferAgent(address _agent)\n        public\n        onlyOwner\n    {\n        tokenTransferPermissions.authorize(_agent, CONTEXT);\n    }\n\n    /**\n     * Remove address from list of agents authorized to initiate `transferFrom` calls\n     */\n    function revokeTransferAgentAuthorization(address _agent)\n        public\n        onlyOwner\n    {\n        tokenTransferPermissions.revokeAuthorization(_agent, CONTEXT);\n    }\n\n    /**\n     * Return list of agents authorized to initiate `transferFrom` calls\n     */\n    function getAuthorizedTransferAgents()\n        public\n        view\n        returns (address[]  memory authorizedAgents)\n    {\n        return tokenTransferPermissions.getAuthorizedAgents();\n    }\n\n    /**\n     * Transfer specified token amount from _from address to _to address on give token\n     */\n    function transferFrom(\n        address _token,\n        address _from,\n        address _to,\n        uint _amount\n    )\n        public\n        returns (bool _success)\n    {\n        require(tokenTransferPermissions.isAuthorized(msg.sender));\n\n        return ERC20(_token).transferFrom(_from, _to, _amount);\n    }\n}\n",
  "sourcePath": "/home/niraj/Desktop/customcognito/contracts/TokenTransferProxy.sol",
  "compiler": {
    "name": "solc",
    "version": "0.5.16+commit.9c3226ce.Emscripten.clang"
  },
  "schemaVersion": "3.3.1",
  "updatedAt": "2020-11-09T08:10:46.868Z",
  "devdoc": {
    "methods": {
      "pause()": {
        "details": "called by the owner to pause, triggers stopped state"
      },
      "renounceOwnership()": {
        "details": "Allows the current owner to relinquish control of the contract."
      },
      "transferOwnership(address)": {
        "details": "Allows the current owner to transfer control of the contract to a newOwner.",
        "params": {
          "newOwner": "The address to transfer ownership to."
        }
      },
      "unpause()": {
        "details": "called by the owner to unpause, returns to normal state"
      }
    }
  },
  "userdoc": {
    "methods": {
      "addAuthorizedTransferAgent(address)": {
        "notice": "Add address to list of agents authorized to initiate `transferFrom` calls"
      },
      "getAuthorizedTransferAgents()": {
        "notice": "Return list of agents authorized to initiate `transferFrom` calls"
      },
      "revokeTransferAgentAuthorization(address)": {
        "notice": "Remove address from list of agents authorized to initiate `transferFrom` calls"
      },
      "transferFrom(address,address,address,uint256)": {
        "notice": "Transfer specified token amount from _from address to _to address on give token"
      }
    },
    "notice": "The TokenTransferProxy is a proxy contract for transfering principal and fee payments and repayments between agents and keepers in the Dharma ecosystem.  It is decoupled from the DebtKernel in order to make upgrades to the protocol contracts smoother -- if the DebtKernel or RepyamentRouter is upgraded to a new contract, creditors will not have to grant new transfer approvals to a new contract's address. * Author: Nadav Hollander -- Github: nadavhollander"
  }
}